{"contracts/AionisAgentManager.sol":{"AionisAgentManager":{"abi":[{"anonymous":false,"inputs":[{"indexed":true,"internalType":"address","name":"follower","type":"address"},{"indexed":true,"internalType":"address","name":"leader","type":"address"},{"indexed":false,"internalType":"uint256","name":"usdcSpent","type":"uint256"},{"indexed":false,"internalType":"uint256","name":"wsomiReceived","type":"uint256"},{"indexed":false,"internalType":"uint8","name":"copyScore","type":"uint8"}],"name":"CopyTradeExecuted","type":"event"},{"anonymous":false,"inputs":[{"indexed":true,"internalType":"address","name":"follower","type":"address"},{"indexed":true,"internalType":"address","name":"leader","type":"address"},{"indexed":false,"internalType":"uint8","name":"copyScore","type":"uint8"},{"indexed":false,"internalType":"string","name":"reason","type":"string"}],"name":"CopyTradeSkipped","type":"event"},{"anonymous":false,"inputs":[{"indexed":true,"internalType":"address","name":"follower","type":"address"},{"indexed":true,"internalType":"address","name":"leader","type":"address"},{"indexed":false,"internalType":"uint8","name":"riskTolerance","type":"uint8"},{"indexed":false,"internalType":"uint256","name":"maxAllocationUsdc","type":"uint256"}],"name":"FollowingStarted","type":"event"},{"anonymous":false,"inputs":[{"indexed":true,"internalType":"address","name":"follower","type":"address"},{"indexed":true,"internalType":"address","name":"leader","type":"address"}],"name":"FollowingStopped","type":"event"},{"anonymous":false,"inputs":[{"indexed":true,"internalType":"address","name":"follower","type":"address"},{"indexed":false,"internalType":"uint256","name":"amount","type":"uint256"}],"name":"FundsDeposited","type":"event"},{"anonymous":false,"inputs":[{"indexed":true,"internalType":"address","name":"follower","type":"address"},{"indexed":false,"internalType":"uint256","name":"amount","type":"uint256"}],"name":"FundsWithdrawn","type":"event"},{"anonymous":false,"inputs":[{"indexed":true,"internalType":"bytes32","name":"requestId","type":"bytes32"},{"indexed":true,"internalType":"address","name":"follower","type":"address"},{"indexed":false,"internalType":"string","name":"prompt","type":"string"}],"name":"StrategistRequestSent","type":"event"},{"anonymous":false,"inputs":[{"indexed":true,"internalType":"bytes32","name":"requestId","type":"bytes32"},{"indexed":true,"internalType":"address","name":"follower","type":"address"},{"indexed":false,"internalType":"uint8","name":"copyScore","type":"uint8"},{"indexed":false,"internalType":"bool","name":"willExecute","type":"bool"}],"name":"StrategistResponseReceived","type":"event"},{"anonymous":false,"inputs":[{"indexed":true,"internalType":"bytes32","name":"requestId","type":"bytes32"},{"indexed":true,"internalType":"address","name":"follower","type":"address"},{"indexed":true,"internalType":"address","name":"leader","type":"address"}],"name":"WatcherRequestSent","type":"event"},{"anonymous":false,"inputs":[{"indexed":true,"internalType":"bytes32","name":"requestId","type":"bytes32"},{"indexed":false,"internalType":"address","name":"tokenIn","type":"address"},{"indexed":false,"internalType":"address","name":"tokenOut","type":"address"},{"indexed":false,"internalType":"uint256","name":"amountIn","type":"uint256"},{"indexed":false,"internalType":"uint256","name":"tradeTimestamp","type":"uint256"}],"name":"WatcherResponseReceived","type":"event"},{"inputs":[],"name":"AGENT_PLATFORM","outputs":[{"internalType":"address","name":"","type":"address"}],"stateMutability":"view","type":"function"},{"inputs":[],"name":"AIONIS_API","outputs":[{"internalType":"string","name":"","type":"string"}],"stateMutability":"view","type":"function"},{"inputs":[],"name":"JSON_API_AGENT_ID","outputs":[{"internalType":"uint256","name":"","type":"uint256"}],"stateMutability":"view","type":"function"},{"inputs":[],"name":"LLM_AGENT_ID","outputs":[{"internalType":"uint256","name":"","type":"uint256"}],"stateMutability":"view","type":"function"},{"inputs":[],"name":"MAX_TRADE_AGE","outputs":[{"internalType":"uint256","name":"","type":"uint256"}],"stateMutability":"view","type":"function"},{"inputs":[],"name":"MIN_EXECUTE_SCORE","outputs":[{"internalType":"uint8","name":"","type":"uint8"}],"stateMutability":"view","type":"function"},{"inputs":[],"name":"QUICKSWAP_ROUTER","outputs":[{"internalType":"address","name":"","type":"address"}],"stateMutability":"view","type":"function"},{"inputs":[],"name":"USDCE","outputs":[{"internalType":"address","name":"","type":"address"}],"stateMutability":"view","type":"function"},{"inputs":[],"name":"WSOMI","outputs":[{"internalType":"address","name":"","type":"address"}],"stateMutability":"view","type":"function"},{"inputs":[{"internalType":"address","name":"","type":"address"}],"name":"activeRequest","outputs":[{"internalType":"bytes32","name":"","type":"bytes32"}],"stateMutability":"view","type":"function"},{"inputs":[{"internalType":"address","name":"follower","type":"address"}],"name":"checkLeaderActivity","outputs":[],"stateMutability":"payable","type":"function"},{"inputs":[{"internalType":"uint256","name":"amount","type":"uint256"}],"name":"deposit","outputs":[],"stateMutability":"nonpayable","type":"function"},{"inputs":[{"internalType":"address","name":"follower","type":"address"}],"name":"getProfile","outputs":[{"components":[{"internalType":"address","name":"leader","type":"address"},{"internalType":"uint8","name":"riskTolerance","type":"uint8"},{"internalType":"uint256","name":"maxAllocationUsdc","type":"uint256"},{"internalType":"uint256","name":"depositedUsdc","type":"uint256"},{"internalType":"bool","name":"active","type":"bool"},{"internalType":"uint256","name":"openPositionWsomi","type":"uint256"}],"internalType":"struct AionisAgentManager.FollowerProfile","name":"","type":"tuple"}],"stateMutability":"view","type":"function"},{"inputs":[{"internalType":"address","name":"follower","type":"address"}],"name":"getRequestStage","outputs":[{"internalType":"enum AionisAgentManager.RequestStage","name":"stage","type":"uint8"},{"internalType":"bytes32","name":"requestId","type":"bytes32"}],"stateMutability":"view","type":"function"},{"inputs":[{"internalType":"bytes32","name":"requestId","type":"bytes32"},{"internalType":"bytes","name":"response","type":"bytes"}],"name":"onStrategistResponse","outputs":[],"stateMutability":"nonpayable","type":"function"},{"inputs":[{"internalType":"bytes32","name":"requestId","type":"bytes32"},{"internalType":"bytes","name":"response","type":"bytes"}],"name":"onWatcherResponse","outputs":[],"stateMutability":"nonpayable","type":"function"},{"inputs":[{"internalType":"bytes32","name":"","type":"bytes32"}],"name":"pendingRequests","outputs":[{"internalType":"address","name":"follower","type":"address"},{"internalType":"address","name":"leader","type":"address"},{"internalType":"bytes","name":"tradeData","type":"bytes"},{"internalType":"enum AionisAgentManager.RequestStage","name":"stage","type":"uint8"},{"internalType":"uint256","name":"createdAt","type":"uint256"}],"stateMutability":"view","type":"function"},{"inputs":[{"internalType":"address","name":"","type":"address"}],"name":"profiles","outputs":[{"internalType":"address","name":"leader","type":"address"},{"internalType":"uint8","name":"riskTolerance","type":"uint8"},{"internalType":"uint256","name":"maxAllocationUsdc","type":"uint256"},{"internalType":"uint256","name":"depositedUsdc","type":"uint256"},{"internalType":"bool","name":"active","type":"bool"},{"internalType":"uint256","name":"openPositionWsomi","type":"uint256"}],"stateMutability":"view","type":"function"},{"inputs":[{"internalType":"address","name":"leader","type":"address"},{"internalType":"uint8","name":"riskTolerance","type":"uint8"},{"internalType":"uint256","name":"maxAllocationUsdc","type":"uint256"},{"internalType":"uint256","name":"initialDeposit","type":"uint256"}],"name":"startFollowing","outputs":[],"stateMutability":"nonpayable","type":"function"},{"inputs":[],"name":"stopFollowing","outputs":[],"stateMutability":"nonpayable","type":"function"},{"stateMutability":"payable","type":"receive"}],"evm":{"bytecode":{"linkReferences":{},"object":"608060405234801561001057600080fd5b50614c67806100206000396000f3fe6080604052600436106101235760003560e01c8063b6b55f25116100a0578063d5a53bbb11610064578063d5a53bbb146103de578063e55ee7eb14610409578063e9e4259614610434578063f4cce57e1461045d578063fdb1e58b1461049b5761012a565b8063b6b55f25146102f4578063b765e3131461031d578063bbe1562714610334578063c2c7793814610376578063d0919116146103b35761012a565b80632e90c1a9116100e75780632e90c1a91461022e578063503ee6301461025957806382cb455b146102755780638b50817b146102a05780639530b30f146102c95761012a565b8063011f8b1b1461012f5780630f53a4701461015a578063195187e1146101975780631e13c6c3146101c25780632795ad20146101ed5761012a565b3661012a57005b600080fd5b34801561013b57600080fd5b506101446104c4565b6040516101519190612bff565b60405180910390f35b34801561016657600080fd5b50610181600480360381019061017c9190612c82565b6104c9565b60405161018e9190612d7f565b60405180910390f35b3480156101a357600080fd5b506101ac6105cd565b6040516101b99190612da9565b60405180910390f35b3480156101ce57600080fd5b506101d76105e5565b6040516101e49190612dd3565b60405180910390f35b3480156101f957600080fd5b50610214600480360381019061020f9190612e24565b6105ea565b604051610225959493929190612f58565b60405180910390f35b34801561023a57600080fd5b506102436106f5565b6040516102509190612bff565b60405180910390f35b610273600480360381019061026e9190612c82565b6106fa565b005b34801561028157600080fd5b5061028a610bd6565b6040516102979190613007565b60405180910390f35b3480156102ac57600080fd5b506102c760048036038101906102c2919061308e565b610bf2565b005b3480156102d557600080fd5b506102de611115565b6040516102eb9190612bff565b60405180910390f35b34801561030057600080fd5b5061031b6004803603810190610316919061311a565b61111a565b005b34801561032957600080fd5b50610332611324565b005b34801561034057600080fd5b5061035b60048036038101906103569190612c82565b611592565b60405161036d96959493929190613156565b60405180910390f35b34801561038257600080fd5b5061039d60048036038101906103989190612c82565b611608565b6040516103aa91906131c6565b60405180910390f35b3480156103bf57600080fd5b506103c8611620565b6040516103d59190612da9565b60405180910390f35b3480156103ea57600080fd5b506103f3611638565b6040516104009190612da9565b60405180910390f35b34801561041557600080fd5b5061041e611650565b60405161042b9190612da9565b60405180910390f35b34801561044057600080fd5b5061045b6004803603810190610456919061308e565b611668565b005b34801561046957600080fd5b50610484600480360381019061047f9190612c82565b611949565b6040516104929291906131e1565b60405180910390f35b3480156104a757600080fd5b506104c260048036038101906104bd9190613236565b6119d3565b005b600181565b6104d1612b38565b6000808373ffffffffffffffffffffffffffffffffffffffff1673ffffffffffffffffffffffffffffffffffffffff1681526020019081526020016000206040518060c00160405290816000820160009054906101000a900473ffffffffffffffffffffffffffffffffffffffff1673ffffffffffffffffffffffffffffffffffffffff1673ffffffffffffffffffffffffffffffffffffffff1681526020016000820160149054906101000a900460ff1660ff1660ff16815260200160018201548152602001600282015481526020016003820160009054906101000a900460ff161515151581526020016004820154815250509050919050565b7328bec7e30e6faee657a03e19bf1128aad7632a0081565b600a81565b60016020528060005260406000206000915090508060000160009054906101000a900473ffffffffffffffffffffffffffffffffffffffff16908060010160009054906101000a900473ffffffffffffffffffffffffffffffffffffffff1690806002018054610659906132cc565b80601f0160208091040260200160405190810160405280929190818152602001828054610685906132cc565b80156106d25780601f106106a7576101008083540402835291602001916106d2565b820191906000526020600020905b8154815290600101906020018083116106b557829003601f168201915b5050505050908060030160009054906101000a900460ff16908060040154905085565b600281565b60008060008373ffffffffffffffffffffffffffffffffffffffff1673ffffffffffffffffffffffffffffffffffffffff16815260200190815260200160002090508060030160009054906101000a900460ff1661078d576040517f08c379a000000000000000000000000000000000000000000000000000000000815260040161078490613349565b60405180910390fd5b6000801b600260008473ffffffffffffffffffffffffffffffffffffffff1673ffffffffffffffffffffffffffffffffffffffff1681526020019081526020016000205414610811576040517f08c379a0000000000000000000000000000000000000000000000000000000008152600401610808906133b5565b60405180910390fd5b6000604051806060016040528060218152602001614c11602191396108598360000160009054906101000a900473ffffffffffffffffffffffffffffffffffffffff16611e13565b60405160200161086a929190613437565b604051602081830303815290604052905060006040518060400160405280600681526020017f242e7377617000000000000000000000000000000000000000000000000000008152509050600082826040516020016108ca92919061346a565b6040516020818303038152906040529050600073037bb9c718f3f7fe5ecbdb0b600d607b5270677673ffffffffffffffffffffffffffffffffffffffff16638b8168043460018530638b50817b60e01b6040518663ffffffff1660e01b815260040161093994939291906134dc565b60206040518083038185885af1158015610957573d6000803e3d6000fd5b50505050506040513d601f19601f8201168201806040525081019061097c919061353d565b90506040518060a001604052808773ffffffffffffffffffffffffffffffffffffffff1681526020018660000160009054906101000a900473ffffffffffffffffffffffffffffffffffffffff1673ffffffffffffffffffffffffffffffffffffffff16815260200160405180602001604052806000815250815260200160016003811115610a0e57610a0d612ee1565b5b8152602001428152506001600083815260200190815260200160002060008201518160000160006101000a81548173ffffffffffffffffffffffffffffffffffffffff021916908373ffffffffffffffffffffffffffffffffffffffff16021790555060208201518160010160006101000a81548173ffffffffffffffffffffffffffffffffffffffff021916908373ffffffffffffffffffffffffffffffffffffffff1602179055506040820151816002019081610acd9190613745565b5060608201518160030160006101000a81548160ff02191690836003811115610af957610af8612ee1565b5b02179055506080820151816004015590505080600260008873ffffffffffffffffffffffffffffffffffffffff1673ffffffffffffffffffffffffffffffffffffffff168152602001908152602001600020819055508460000160009054906101000a900473ffffffffffffffffffffffffffffffffffffffff1673ffffffffffffffffffffffffffffffffffffffff168673ffffffffffffffffffffffffffffffffffffffff16827fcf5049019cf7659010e4a5f9638f071339a89fc1f0f77be053ee91034cdadcf960405160405180910390a4505050505050565b604051806060016040528060218152602001614c116021913981565b73037bb9c718f3f7fe5ecbdb0b600d607b5270677673ffffffffffffffffffffffffffffffffffffffff163373ffffffffffffffffffffffffffffffffffffffff1614610c74576040517f08c379a0000000000000000000000000000000000000000000000000000000008152600401610c6b90613889565b60405180910390fd5b600060016000858152602001908152602001600020905060016003811115610c9f57610c9e612ee1565b5b8160030160009054906101000a900460ff166003811115610cc357610cc2612ee1565b5b14610d03576040517f08c379a0000000000000000000000000000000000000000000000000000000008152600401610cfa906138f5565b60405180910390fd5b60008060008060008787810190610d1a9190613953565b94509450945094509450887fe749f5137156531ea5889480e8efebcae165f1505a891ea7654695636a1e447086868685604051610d5a94939291906139ce565b60405180910390a2601e8142610d709190613a42565b1115610e5d578560010160009054906101000a900473ffffffffffffffffffffffffffffffffffffffff1673ffffffffffffffffffffffffffffffffffffffff168660000160009054906101000a900473ffffffffffffffffffffffffffffffffffffffff1673ffffffffffffffffffffffffffffffffffffffff167fe1eb86b493665260f23a08f75ecd7e5de3b75eb90129dbc0741d062961d430956000604051610e1c9190613afd565b60405180910390a3610e52898760000160009054906101000a900473ffffffffffffffffffffffffffffffffffffffff166120f2565b505050505050611110565b60007328bec7e30e6faee657a03e19bf1128aad7632a0073ffffffffffffffffffffffffffffffffffffffff168673ffffffffffffffffffffffffffffffffffffffff16148015610eed575073046ede9564a72571df6f5e44d0405360c0f4dcab73ffffffffffffffffffffffffffffffffffffffff168573ffffffffffffffffffffffffffffffffffffffff16145b80610f82575073046ede9564a72571df6f5e44d0405360c0f4dcab73ffffffffffffffffffffffffffffffffffffffff168673ffffffffffffffffffffffffffffffffffffffff16148015610f8157507328bec7e30e6faee657a03e19bf1128aad7632a0073ffffffffffffffffffffffffffffffffffffffff168573ffffffffffffffffffffffffffffffffffffffff16145b5b905080611071578660010160009054906101000a900473ffffffffffffffffffffffffffffffffffffffff1673ffffffffffffffffffffffffffffffffffffffff168760000160009054906101000a900473ffffffffffffffffffffffffffffffffffffffff1673ffffffffffffffffffffffffffffffffffffffff167fe1eb86b493665260f23a08f75ecd7e5de3b75eb90129dbc0741d062961d43095600060405161102f9190613b77565b60405180910390a36110658a8860000160009054906101000a900473ffffffffffffffffffffffffffffffffffffffff166120f2565b50505050505050611110565b8888886002019182611084929190613bb0565b5060028760030160006101000a81548160ff021916908360038111156110ad576110ac612ee1565b5b02179055506111088a8860000160009054906101000a900473ffffffffffffffffffffffffffffffffffffffff168960010160009054906101000a900473ffffffffffffffffffffffffffffffffffffffff168988876121c9565b505050505050505b505050565b601e81565b6000803373ffffffffffffffffffffffffffffffffffffffff1673ffffffffffffffffffffffffffffffffffffffff16815260200190815260200160002060030160009054906101000a900460ff166111a8576040517f08c379a000000000000000000000000000000000000000000000000000000000815260040161119f90613ccc565b60405180910390fd5b7328bec7e30e6faee657a03e19bf1128aad7632a0073ffffffffffffffffffffffffffffffffffffffff166323b872dd3330846040518463ffffffff1660e01b81526004016111f993929190613cec565b6020604051808303816000875af1158015611218573d6000803e3d6000fd5b505050506040513d601f19601f8201168201806040525081019061123c9190613d4f565b61127b576040517f08c379a000000000000000000000000000000000000000000000000000000000815260040161127290613dc8565b60405180910390fd5b806000803373ffffffffffffffffffffffffffffffffffffffff1673ffffffffffffffffffffffffffffffffffffffff16815260200190815260200160002060020160008282546112cc9190613de8565b925050819055503373ffffffffffffffffffffffffffffffffffffffff167f543ba50a5eec5e6178218e364b1d0f396157b3c8fa278522c2cb7fd99407d474826040516113199190612bff565b60405180910390a250565b60008060003373ffffffffffffffffffffffffffffffffffffffff1673ffffffffffffffffffffffffffffffffffffffff16815260200190815260200160002090508060030160009054906101000a900460ff166113b7576040517f08c379a00000000000000000000000000000000000000000000000000000000081526004016113ae90613e68565b60405180910390fd5b60008160030160006101000a81548160ff021916908315150217905550600081600201549050600082600201819055506000811115611510577328bec7e30e6faee657a03e19bf1128aad7632a0073ffffffffffffffffffffffffffffffffffffffff1663a9059cbb33836040518363ffffffff1660e01b815260040161143f929190613e88565b6020604051808303816000875af115801561145e573d6000803e3d6000fd5b505050506040513d601f19601f820116820180604052508101906114829190613d4f565b6114c1576040517f08c379a00000000000000000000000000000000000000000000000000000000081526004016114b890613efd565b60405180910390fd5b3373ffffffffffffffffffffffffffffffffffffffff167feaff4b37086828766ad3268786972c0cd24259d4c87a80f9d3963a3c3d999b0d826040516115079190612bff565b60405180910390a25b8160000160009054906101000a900473ffffffffffffffffffffffffffffffffffffffff1673ffffffffffffffffffffffffffffffffffffffff163373ffffffffffffffffffffffffffffffffffffffff167f56fe74051b56c316f13ccdc09e12c003dd7a1d971132b7a360099c9c9373bf8c60405160405180910390a35050565b60006020528060005260406000206000915090508060000160009054906101000a900473ffffffffffffffffffffffffffffffffffffffff16908060000160149054906101000a900460ff16908060010154908060020154908060030160009054906101000a900460ff16908060040154905086565b60026020528060005260406000206000915090505481565b731582f6f3d26658f7208a799be46e34b1f366ce4481565b73046ede9564a72571df6f5e44d0405360c0f4dcab81565b73037bb9c718f3f7fe5ecbdb0b600d607b5270677681565b73037bb9c718f3f7fe5ecbdb0b600d607b5270677673ffffffffffffffffffffffffffffffffffffffff163373ffffffffffffffffffffffffffffffffffffffff16146116ea576040517f08c379a00000000000000000000000000000000000000000000000000000000081526004016116e190613889565b60405180910390fd5b60006001600085815260200190815260200160002090506002600381111561171557611714612ee1565b5b8160030160009054906101000a900460ff16600381111561173957611738612ee1565b5b14611779576040517f08c379a000000000000000000000000000000000000000000000000000000000815260040161177090613f69565b60405180910390fd5b6000838381019061178a9190613f89565b905060648160ff16111561179d57606490505b6000600a60ff168260ff16101590508260000160009054906101000a900473ffffffffffffffffffffffffffffffffffffffff1673ffffffffffffffffffffffffffffffffffffffff16867f822a77c1206275a8317399c6767734ce30774ff289de39a882aebe1bd663f3568484604051611819929190613fb6565b60405180910390a380611909578260010160009054906101000a900473ffffffffffffffffffffffffffffffffffffffff1673ffffffffffffffffffffffffffffffffffffffff168360000160009054906101000a900473ffffffffffffffffffffffffffffffffffffffff1673ffffffffffffffffffffffffffffffffffffffff167fe1eb86b493665260f23a08f75ecd7e5de3b75eb90129dbc0741d062961d43095846040516118cb919061402b565b60405180910390a3611901868460000160009054906101000a900473ffffffffffffffffffffffffffffffffffffffff166120f2565b505050611944565b60038360030160006101000a81548160ff0219169083600381111561193157611930612ee1565b5b02179055506119408683612497565b5050505b505050565b600080600260008473ffffffffffffffffffffffffffffffffffffffff1673ffffffffffffffffffffffffffffffffffffffff1681526020019081526020016000205490506000801b81036119a75760008060001b915091506119ce565b6001600082815260200190815260200160002060030160009054906101000a900460ff1691505b915091565b600073ffffffffffffffffffffffffffffffffffffffff168473ffffffffffffffffffffffffffffffffffffffff1603611a42576040517f08c379a0000000000000000000000000000000000000000000000000000000008152600401611a39906140a5565b60405180910390fd5b3373ffffffffffffffffffffffffffffffffffffffff168473ffffffffffffffffffffffffffffffffffffffff1603611ab0576040517f08c379a0000000000000000000000000000000000000000000000000000000008152600401611aa790614111565b60405180910390fd5b60018360ff1610158015611ac85750600a8360ff1611155b611b07576040517f08c379a0000000000000000000000000000000000000000000000000000000008152600401611afe9061417d565b60405180910390fd5b60008211611b4a576040517f08c379a0000000000000000000000000000000000000000000000000000000008152600401611b41906141e9565b60405180910390fd5b6000811115611c75577328bec7e30e6faee657a03e19bf1128aad7632a0073ffffffffffffffffffffffffffffffffffffffff166323b872dd3330846040518463ffffffff1660e01b8152600401611ba493929190613cec565b6020604051808303816000875af1158015611bc3573d6000803e3d6000fd5b505050506040513d601f19601f82011682018060405250810190611be79190613d4f565b611c26576040517f08c379a0000000000000000000000000000000000000000000000000000000008152600401611c1d90613dc8565b60405180910390fd5b3373ffffffffffffffffffffffffffffffffffffffff167f543ba50a5eec5e6178218e364b1d0f396157b3c8fa278522c2cb7fd99407d47482604051611c6c9190612bff565b60405180910390a25b6040518060c001604052808573ffffffffffffffffffffffffffffffffffffffff1681526020018460ff16815260200183815260200182815260200160011515815260200160008152506000803373ffffffffffffffffffffffffffffffffffffffff1673ffffffffffffffffffffffffffffffffffffffff16815260200190815260200160002060008201518160000160006101000a81548173ffffffffffffffffffffffffffffffffffffffff021916908373ffffffffffffffffffffffffffffffffffffffff16021790555060208201518160000160146101000a81548160ff021916908360ff160217905550604082015181600101556060820151816002015560808201518160030160006101000a81548160ff02191690831515021790555060a082015181600401559050508373ffffffffffffffffffffffffffffffffffffffff163373ffffffffffffffffffffffffffffffffffffffff167fa632ff4f31efe35c19d3dfe479239a82e9f487e3b437687615d4d25a0a71ba608585604051611e05929190614209565b60405180910390a350505050565b6060600082604051602001611e28919061427a565b604051602081830303815290604052905060006040518060400160405280601081526020017f303132333435363738396162636465660000000000000000000000000000000081525090506000602a67ffffffffffffffff811115611e9057611e8f61356a565b5b6040519080825280601f01601f191660200182016040528015611ec25781602001600182028036833780820191505090505b5090507f300000000000000000000000000000000000000000000000000000000000000081600081518110611efa57611ef9614295565b5b60200101907effffffffffffffffffffffffffffffffffffffffffffffffffffffffffffff1916908160001a9053507f780000000000000000000000000000000000000000000000000000000000000081600181518110611f5e57611f5d614295565b5b60200101907effffffffffffffffffffffffffffffffffffffffffffffffffffffffffffff1916908160001a90535060005b60148110156120e657826004858381518110611faf57611fae614295565b5b602001015160f81c60f81b60f81c60ff16901c60ff1681518110611fd657611fd5614295565b5b602001015160f81c60f81b82600283611fef91906142c4565b6002611ffb9190613de8565b8151811061200c5761200b614295565b5b60200101907effffffffffffffffffffffffffffffffffffffffffffffffffffffffffffff1916908160001a90535082600f85838151811061205157612050614295565b5b602001015160f81c60f81b60f81c1660ff168151811061207457612073614295565b5b602001015160f81c60f81b8260028361208d91906142c4565b60036120999190613de8565b815181106120aa576120a9614295565b5b60200101907effffffffffffffffffffffffffffffffffffffffffffffffffffffffffffff1916908160001a9053508080600101915050611f90565b50809350505050919050565b60016000838152602001908152602001600020600080820160006101000a81549073ffffffffffffffffffffffffffffffffffffffff02191690556001820160006101000a81549073ffffffffffffffffffffffffffffffffffffffff02191690556002820160006121649190612b89565b6003820160006101000a81549060ff021916905560048201600090555050600260008273ffffffffffffffffffffffffffffffffffffffff1673ffffffffffffffffffffffffffffffffffffffff168152602001908152602001600020600090555050565b60008060008773ffffffffffffffffffffffffffffffffffffffff1673ffffffffffffffffffffffffffffffffffffffff168152602001908152602001600020905060007328bec7e30e6faee657a03e19bf1128aad7632a0073ffffffffffffffffffffffffffffffffffffffff168573ffffffffffffffffffffffffffffffffffffffff161461228f576040518060400160405280600481526020017f53454c4c000000000000000000000000000000000000000000000000000000008152506122c6565b6040518060400160405280600381526020017f42555900000000000000000000000000000000000000000000000000000000008152505b905060006122d387611e13565b826122eb620f4240886122e69190614335565b6129d3565b6122ff87426122fa9190613a42565b6129d3565b61231c8760000160149054906101000a900460ff1660ff166129d3565b612337620f424089600101546123329190614335565b6129d3565b612352620f42408a6002015461234d9190614335565b6129d3565b60405160200161236897969594939291906147da565b604051602081830303815290604052905060008160405160200161238c9190613007565b604051602081830303815290604052905073037bb9c718f3f7fe5ecbdb0b600d607b5270677673ffffffffffffffffffffffffffffffffffffffff16638b8168046002833063e9e4259660e01b6040518563ffffffff1660e01b81526004016123f894939291906134dc565b6020604051808303816000875af1158015612417573d6000803e3d6000fd5b505050506040513d601f19601f8201168201806040525081019061243b919061353d565b508873ffffffffffffffffffffffffffffffffffffffff168a7fd3e7a0095b210e7ef5b3879cf7aea23db5ec3184775333b16bcc708a15ace725846040516124839190613007565b60405180910390a350505050505050505050565b600060016000848152602001908152602001600020905060008060008360000160009054906101000a900473ffffffffffffffffffffffffffffffffffffffff1673ffffffffffffffffffffffffffffffffffffffff1673ffffffffffffffffffffffffffffffffffffffff16815260200190815260200160002090506000816002015482600101541061252f578160020154612535565b81600101545b9050600060648560ff168361254a91906142c4565b6125549190614335565b905060008114806125685750808360020154105b15612651578360010160009054906101000a900473ffffffffffffffffffffffffffffffffffffffff1673ffffffffffffffffffffffffffffffffffffffff168460000160009054906101000a900473ffffffffffffffffffffffffffffffffffffffff1673ffffffffffffffffffffffffffffffffffffffff167fe1eb86b493665260f23a08f75ecd7e5de3b75eb90129dbc0741d062961d430958760405161261291906149a3565b60405180910390a3612648868560000160009054906101000a900473ffffffffffffffffffffffffffffffffffffffff166120f2565b505050506129cf565b808360020160008282546126659190613a42565b925050819055507328bec7e30e6faee657a03e19bf1128aad7632a0073ffffffffffffffffffffffffffffffffffffffff1663095ea7b3731582f6f3d26658f7208a799be46e34b1f366ce44836040518363ffffffff1660e01b81526004016126cf929190613e88565b6020604051808303816000875af11580156126ee573d6000803e3d6000fd5b505050506040513d601f19601f820116820180604052508101906127129190613d4f565b612751576040517f08c379a000000000000000000000000000000000000000000000000000000000815260040161274890614a1d565b60405180910390fd5b60006040518060e001604052807328bec7e30e6faee657a03e19bf1128aad7632a0073ffffffffffffffffffffffffffffffffffffffff16815260200173046ede9564a72571df6f5e44d0405360c0f4dcab73ffffffffffffffffffffffffffffffffffffffff1681526020018660000160009054906101000a900473ffffffffffffffffffffffffffffffffffffffff1673ffffffffffffffffffffffffffffffffffffffff168152602001603c4261280b9190613de8565b815260200183815260200160008152602001600073ffffffffffffffffffffffffffffffffffffffff1681525090506000731582f6f3d26658f7208a799be46e34b1f366ce4473ffffffffffffffffffffffffffffffffffffffff1663bc651188836040518263ffffffff1660e01b81526004016128899190614ada565b6020604051808303816000875af11580156128a8573d6000803e3d6000fd5b505050506040513d601f19601f820116820180604052508101906128cc9190614b0a565b9050808560040160008282546128e29190613de8565b925050819055508560010160009054906101000a900473ffffffffffffffffffffffffffffffffffffffff1673ffffffffffffffffffffffffffffffffffffffff168660000160009054906101000a900473ffffffffffffffffffffffffffffffffffffffff1673ffffffffffffffffffffffffffffffffffffffff167f3f88bdd6633cd54b71b7cae22eae61c3b2c6560fc2f44d5b631985520f9ad99685848b60405161299293929190614b37565b60405180910390a36129c8888760000160009054906101000a900473ffffffffffffffffffffffffffffffffffffffff166120f2565b5050505050505b5050565b606060008203612a1a576040518060400160405280600181526020017f30000000000000000000000000000000000000000000000000000000000000008152509050612b33565b600082905060005b60008214612a4c578080612a3590614b6e565b915050600a82612a459190614335565b9150612a22565b60008167ffffffffffffffff811115612a6857612a6761356a565b5b6040519080825280601f01601f191660200182016040528015612a9a5781602001600182028036833780820191505090505b50905060008290505b60008614612b2b578080612ab690614bb6565b915050600a86612ac69190614bdf565b6030612ad29190613de8565b60f81b828281518110612ae857612ae7614295565b5b60200101907effffffffffffffffffffffffffffffffffffffffffffffffffffffffffffff1916908160001a905350600a86612b249190614335565b9550612aa3565b819450505050505b919050565b6040518060c00160405280600073ffffffffffffffffffffffffffffffffffffffff168152602001600060ff1681526020016000815260200160008152602001600015158152602001600081525090565b508054612b95906132cc565b6000825580601f10612ba75750612bc6565b601f016020900490600052602060002090810190612bc59190612bc9565b5b50565b5b80821115612be2576000816000905550600101612bca565b5090565b6000819050919050565b612bf981612be6565b82525050565b6000602082019050612c146000830184612bf0565b92915050565b600080fd5b600080fd5b600073ffffffffffffffffffffffffffffffffffffffff82169050919050565b6000612c4f82612c24565b9050919050565b612c5f81612c44565b8114612c6a57600080fd5b50565b600081359050612c7c81612c56565b92915050565b600060208284031215612c9857612c97612c1a565b5b6000612ca684828501612c6d565b91505092915050565b612cb881612c44565b82525050565b600060ff82169050919050565b612cd481612cbe565b82525050565b612ce381612be6565b82525050565b60008115159050919050565b612cfe81612ce9565b82525050565b60c082016000820151612d1a6000850182612caf565b506020820151612d2d6020850182612ccb565b506040820151612d406040850182612cda565b506060820151612d536060850182612cda565b506080820151612d666080850182612cf5565b5060a0820151612d7960a0850182612cda565b50505050565b600060c082019050612d946000830184612d04565b92915050565b612da381612c44565b82525050565b6000602082019050612dbe6000830184612d9a565b92915050565b612dcd81612cbe565b82525050565b6000602082019050612de86000830184612dc4565b92915050565b6000819050919050565b612e0181612dee565b8114612e0c57600080fd5b50565b600081359050612e1e81612df8565b92915050565b600060208284031215612e3a57612e39612c1a565b5b6000612e4884828501612e0f565b91505092915050565b600081519050919050565b600082825260208201905092915050565b60005b83811015612e8b578082015181840152602081019050612e70565b60008484015250505050565b6000601f19601f8301169050919050565b6000612eb382612e51565b612ebd8185612e5c565b9350612ecd818560208601612e6d565b612ed681612e97565b840191505092915050565b7f4e487b7100000000000000000000000000000000000000000000000000000000600052602160045260246000fd5b60048110612f2157612f20612ee1565b5b50565b6000819050612f3282612f10565b919050565b6000612f4282612f24565b9050919050565b612f5281612f37565b82525050565b600060a082019050612f6d6000830188612d9a565b612f7a6020830187612d9a565b8181036040830152612f8c8186612ea8565b9050612f9b6060830185612f49565b612fa86080830184612bf0565b9695505050505050565b600081519050919050565b600082825260208201905092915050565b6000612fd982612fb2565b612fe38185612fbd565b9350612ff3818560208601612e6d565b612ffc81612e97565b840191505092915050565b600060208201905081810360008301526130218184612fce565b905092915050565b600080fd5b600080fd5b600080fd5b60008083601f84011261304e5761304d613029565b5b8235905067ffffffffffffffff81111561306b5761306a61302e565b5b60208301915083600182028301111561308757613086613033565b5b9250929050565b6000806000604084860312156130a7576130a6612c1a565b5b60006130b586828701612e0f565b935050602084013567ffffffffffffffff8111156130d6576130d5612c1f565b5b6130e286828701613038565b92509250509250925092565b6130f781612be6565b811461310257600080fd5b50565b600081359050613114816130ee565b92915050565b6000602082840312156131305761312f612c1a565b5b600061313e84828501613105565b91505092915050565b61315081612ce9565b82525050565b600060c08201905061316b6000830189612d9a565b6131786020830188612dc4565b6131856040830187612bf0565b6131926060830186612bf0565b61319f6080830185613147565b6131ac60a0830184612bf0565b979650505050505050565b6131c081612dee565b82525050565b60006020820190506131db60008301846131b7565b92915050565b60006040820190506131f66000830185612f49565b61320360208301846131b7565b9392505050565b61321381612cbe565b811461321e57600080fd5b50565b6000813590506132308161320a565b92915050565b600080600080608085870312156132505761324f612c1a565b5b600061325e87828801612c6d565b945050602061326f87828801613221565b935050604061328087828801613105565b925050606061329187828801613105565b91505092959194509250565b7f4e487b7100000000000000000000000000000000000000000000000000000000600052602260045260246000fd5b600060028204905060018216806132e457607f821691505b6020821081036132f7576132f661329d565b5b50919050565b7f53414d3a20666f6c6c6f77657220696e61637469766500000000000000000000600082015250565b6000613333601683612fbd565b915061333e826132fd565b602082019050919050565b6000602082019050818103600083015261336281613326565b9050919050565b7f53414d3a207265717565737420616c726561647920696e20666c696768740000600082015250565b600061339f601e83612fbd565b91506133aa82613369565b602082019050919050565b600060208201905081810360008301526133ce81613392565b9050919050565b600081905092915050565b60006133eb82612fb2565b6133f581856133d5565b9350613405818560208601612e6d565b80840191505092915050565b7f2f6c61746573742d737761700000000000000000000000000000000000000000815250565b600061344382856133e0565b915061344f82846133e0565b915061345a82613411565b600c820191508190509392505050565b600060408201905081810360008301526134848185612fce565b905081810360208301526134988184612fce565b90509392505050565b60007fffffffff0000000000000000000000000000000000000000000000000000000082169050919050565b6134d6816134a1565b82525050565b60006080820190506134f16000830187612bf0565b81810360208301526135038186612ea8565b90506135126040830185612d9a565b61351f60608301846134cd565b95945050505050565b60008151905061353781612df8565b92915050565b60006020828403121561355357613552612c1a565b5b600061356184828501613528565b91505092915050565b7f4e487b7100000000000000000000000000000000000000000000000000000000600052604160045260246000fd5b60008190508160005260206000209050919050565b60006020601f8301049050919050565b600082821b905092915050565b6000600883026135fb7fffffffffffffffffffffffffffffffffffffffffffffffffffffffffffffffff826135be565b61360586836135be565b95508019841693508086168417925050509392505050565b6000819050919050565b600061364261363d61363884612be6565b61361d565b612be6565b9050919050565b6000819050919050565b61365c83613627565b61367061366882613649565b8484546135cb565b825550505050565b600090565b613685613678565b613690818484613653565b505050565b5b818110156136b4576136a960008261367d565b600181019050613696565b5050565b601f8211156136f9576136ca81613599565b6136d3846135ae565b810160208510156136e2578190505b6136f66136ee856135ae565b830182613695565b50505b505050565b600082821c905092915050565b600061371c600019846008026136fe565b1980831691505092915050565b6000613735838361370b565b9150826002028217905092915050565b61374e82612e51565b67ffffffffffffffff8111156137675761376661356a565b5b61377182546132cc565b61377c8282856136b8565b600060209050601f8311600181146137af576000841561379d578287015190505b6137a78582613729565b86555061380f565b601f1984166137bd86613599565b60005b828110156137e5578489015182556001820191506020850194506020810190506137c0565b8683101561380257848901516137fe601f89168261370b565b8355505b6001600288020188555050505b505050505050565b7f53414d3a2063616c6c6572206973206e6f74206167656e7420706c6174666f7260008201527f6d00000000000000000000000000000000000000000000000000000000000000602082015250565b6000613873602183612fbd565b915061387e82613817565b604082019050919050565b600060208201905081810360008301526138a281613866565b9050919050565b7f53414d3a20756e65787065637465642077617463686572206362000000000000600082015250565b60006138df601a83612fbd565b91506138ea826138a9565b602082019050919050565b6000602082019050818103600083015261390e816138d2565b9050919050565b600061392082612c24565b9050919050565b61393081613915565b811461393b57600080fd5b50565b60008135905061394d81613927565b92915050565b600080600080600060a0868803121561396f5761396e612c1a565b5b600061397d8882890161393e565b955050602061398e8882890161393e565b945050604061399f88828901613105565b93505060606139b088828901613105565b92505060806139c188828901613105565b9150509295509295909350565b60006080820190506139e36000830187612d9a565b6139f06020830186612d9a565b6139fd6040830185612bf0565b613a0a6060830184612bf0565b95945050505050565b7f4e487b7100000000000000000000000000000000000000000000000000000000600052601160045260246000fd5b6000613a4d82612be6565b9150613a5883612be6565b9250828203905081811115613a7057613a6f613a13565b5b92915050565b6000819050919050565b6000613a9b613a96613a9184613a76565b61361d565b612cbe565b9050919050565b613aab81613a80565b82525050565b7f7374616c65207369676e616c0000000000000000000000000000000000000000600082015250565b6000613ae7600c83612fbd565b9150613af282613ab1565b602082019050919050565b6000604082019050613b126000830184613aa2565b8181036020830152613b2381613ada565b905092915050565b7f697272656c6576616e7420706169720000000000000000000000000000000000600082015250565b6000613b61600f83612fbd565b9150613b6c82613b2b565b602082019050919050565b6000604082019050613b8c6000830184613aa2565b8181036020830152613b9d81613b54565b905092915050565b600082905092915050565b613bba8383613ba5565b67ffffffffffffffff811115613bd357613bd261356a565b5b613bdd82546132cc565b613be88282856136b8565b6000601f831160018114613c175760008415613c05578287013590505b613c0f8582613729565b865550613c77565b601f198416613c2586613599565b60005b82811015613c4d57848901358255600182019150602085019450602081019050613c28565b86831015613c6a5784890135613c66601f89168261370b565b8355505b6001600288020188555050505b50505050505050565b7f53414d3a20737461727420666f6c6c6f77696e67206669727374000000000000600082015250565b6000613cb6601a83612fbd565b9150613cc182613c80565b602082019050919050565b60006020820190508181036000830152613ce581613ca9565b9050919050565b6000606082019050613d016000830186612d9a565b613d0e6020830185612d9a565b613d1b6040830184612bf0565b949350505050565b613d2c81612ce9565b8114613d3757600080fd5b50565b600081519050613d4981613d23565b92915050565b600060208284031215613d6557613d64612c1a565b5b6000613d7384828501613d3a565b91505092915050565b7f53414d3a206465706f736974206661696c656400000000000000000000000000600082015250565b6000613db2601383612fbd565b9150613dbd82613d7c565b602082019050919050565b60006020820190508181036000830152613de181613da5565b9050919050565b6000613df382612be6565b9150613dfe83612be6565b9250828201905080821115613e1657613e15613a13565b5b92915050565b7f53414d3a206e6f7420666f6c6c6f77696e670000000000000000000000000000600082015250565b6000613e52601283612fbd565b9150613e5d82613e1c565b602082019050919050565b60006020820190508181036000830152613e8181613e45565b9050919050565b6000604082019050613e9d6000830185612d9a565b613eaa6020830184612bf0565b9392505050565b7f53414d3a207769746864726177206661696c6564000000000000000000000000600082015250565b6000613ee7601483612fbd565b9150613ef282613eb1565b602082019050919050565b60006020820190508181036000830152613f1681613eda565b9050919050565b7f53414d3a20756e65787065637465642073747261746567697374206362000000600082015250565b6000613f53601d83612fbd565b9150613f5e82613f1d565b602082019050919050565b60006020820190508181036000830152613f8281613f46565b9050919050565b600060208284031215613f9f57613f9e612c1a565b5b6000613fad84828501613221565b91505092915050565b6000604082019050613fcb6000830185612dc4565b613fd86020830184613147565b9392505050565b7f73636f72652062656c6f77207468726573686f6c640000000000000000000000600082015250565b6000614015601583612fbd565b915061402082613fdf565b602082019050919050565b60006040820190506140406000830184612dc4565b818103602083015261405181614008565b905092915050565b7f53414d3a20696e76616c6964206c656164657200000000000000000000000000600082015250565b600061408f601383612fbd565b915061409a82614059565b602082019050919050565b600060208201905081810360008301526140be81614082565b9050919050565b7f53414d3a2063616e6e6f7420666f6c6c6f7720796f757273656c660000000000600082015250565b60006140fb601b83612fbd565b9150614106826140c5565b602082019050919050565b6000602082019050818103600083015261412a816140ee565b9050919050565b7f53414d3a207269736b20312d3130000000000000000000000000000000000000600082015250565b6000614167600e83612fbd565b915061417282614131565b602082019050919050565b600060208201905081810360008301526141968161415a565b9050919050565b7f53414d3a207a65726f20616c6c6f636174696f6e000000000000000000000000600082015250565b60006141d3601483612fbd565b91506141de8261419d565b602082019050919050565b60006020820190508181036000830152614202816141c6565b9050919050565b600060408201905061421e6000830185612dc4565b61422b6020830184612bf0565b9392505050565b60008160601b9050919050565b600061424a82614232565b9050919050565b600061425c8261423f565b9050919050565b61427461426f82612c44565b614251565b82525050565b60006142868284614263565b60148201915081905092915050565b7f4e487b7100000000000000000000000000000000000000000000000000000000600052603260045260246000fd5b60006142cf82612be6565b91506142da83612be6565b92508282026142e881612be6565b915082820484148315176142ff576142fe613a13565b5b5092915050565b7f4e487b7100000000000000000000000000000000000000000000000000000000600052601260045260246000fd5b600061434082612be6565b915061434b83612be6565b92508261435b5761435a614306565b5b828204905092915050565b7f596f7520617265206120636f70792d74726164696e67207269736b20656e676960008201527f6e652e20526573706f6e642077697468204f4e4c5920612073696e676c65206960208201527f6e746567657220302d3130302e20000000000000000000000000000000000000604082015250565b60006143e8604e836133d5565b91506143f382614366565b604e82019050919050565b7f30203d20736b69702c20312d313030203d20636f70792070657263656e74616760008201527f65206f66206d617820616c6c6f636174696f6e2e0a0a00000000000000000000602082015250565b600061445a6036836133d5565b9150614465826143fe565b603682019050919050565b7f4c65616465723a20000000000000000000000000000000000000000000000000815250565b7f0a00000000000000000000000000000000000000000000000000000000000000815250565b7f54726164653a2000000000000000000000000000000000000000000000000000815250565b7f2057534f4d490a00000000000000000000000000000000000000000000000000815250565b7f416d6f756e74496e3a2000000000000000000000000000000000000000000000815250565b7f20555344432028617070726f78290a0000000000000000000000000000000000815250565b7f5472616465206167653a20000000000000000000000000000000000000000000815250565b7f730a000000000000000000000000000000000000000000000000000000000000815250565b7f466f6c6c6f776572207269736b546f6c6572616e63653a200000000000000000815250565b7f2f31300a00000000000000000000000000000000000000000000000000000000815250565b7f466f6c6c6f776572206d6178416c6c6f636174696f6e3a202400000000000000815250565b7f466f6c6c6f77657220555344432062616c616e63653a20240000000000000000815250565b7f0a0a000000000000000000000000000000000000000000000000000000000000815250565b7f52756c65733a207269736b546f6c6572616e636520312d33202d3e3e206d617860008201527f2034302073636f72652e20000000000000000000000000000000000000000000602082015250565b60006146ba602b836133d5565b91506146c58261465e565b602b82019050919050565b7f7269736b546f6c6572616e636520372d3130202d3e3e2063616e20726574757260008201527f6e20757020746f203130302e2000000000000000000000000000000000000000602082015250565b600061472c602d836133d5565b9150614737826146d0565b602d82019050919050565b7f53454c4c207472616465732073686f756c642072657475726e203020756e6c6560008201527f7373207269736b546f6c6572616e63653e3d382e200000000000000000000000602082015250565b600061479e6035836133d5565b91506147a982614742565b603582019050919050565b7f526573706f6e64207769746820696e7465676572206f6e6c792e000000000000815250565b60006147e5826143db565b91506147f08261444d565b91506147fb82614470565b60088201915061480b828a6133e0565b915061481682614496565b600182019150614825826144bc565b60078201915061483582896133e0565b9150614840826144e2565b60078201915061484f82614508565b600a8201915061485f82886133e0565b915061486a8261452e565b600f8201915061487982614554565b600b8201915061488982876133e0565b91506148948261457a565b6002820191506148a3826145a0565b6018820191506148b382866133e0565b91506148be826145c6565b6004820191506148cd826145ec565b6019820191506148dd82856133e0565b91506148e882614496565b6001820191506148f782614612565b60188201915061490782846133e0565b915061491282614638565b600282019150614921826146ad565b915061492c8261471f565b915061493782614791565b9150614942826147b4565b601a8201915081905098975050505050505050565b7f696e73756666696369656e742062616c616e6365000000000000000000000000600082015250565b600061498d601483612fbd565b915061499882614957565b602082019050919050565b60006040820190506149b86000830184612dc4565b81810360208301526149c981614980565b905092915050565b7f53414d3a20617070726f7665206661696c656400000000000000000000000000600082015250565b6000614a07601383612fbd565b9150614a12826149d1565b602082019050919050565b60006020820190508181036000830152614a36816149fa565b9050919050565b614a4681612c24565b82525050565b60e082016000820151614a626000850182612caf565b506020820151614a756020850182612caf565b506040820151614a886040850182612caf565b506060820151614a9b6060850182612cda565b506080820151614aae6080850182612cda565b5060a0820151614ac160a0850182612cda565b5060c0820151614ad460c0850182614a3d565b50505050565b600060e082019050614aef6000830184614a4c565b92915050565b600081519050614b04816130ee565b92915050565b600060208284031215614b2057614b1f612c1a565b5b6000614b2e84828501614af5565b91505092915050565b6000606082019050614b4c6000830186612bf0565b614b596020830185612bf0565b614b666040830184612dc4565b949350505050565b6000614b7982612be6565b91507fffffffffffffffffffffffffffffffffffffffffffffffffffffffffffffffff8203614bab57614baa613a13565b5b600182019050919050565b6000614bc182612be6565b915060008203614bd457614bd3613a13565b5b600182039050919050565b6000614bea82612be6565b9150614bf583612be6565b925082614c0557614c04614306565b5b82820690509291505056fe68747470733a2f2f6170692e61696f6e69732e78797a2f76312f6c65616465722fa2646970667358221220b6d0e607097a19de191668ef26f0aa769b5f4cd56f2f856d4a89b6d2fdb6409064736f6c63430008180033","opcodes":"PUSH1 0x80 PUSH1 0x40 MSTORE CALLVALUE DUP1 ISZERO PUSH2 0x10 JUMPI PUSH1 0x0 DUP1 REVERT JUMPDEST POP PUSH2 0x4C67 DUP1 PUSH2 0x20 PUSH1 0x0 CODECOPY PUSH1 0x0 RETURN INVALID PUSH1 0x80 PUSH1 0x40 MSTORE PUSH1 0x4 CALLDATASIZE LT PUSH2 0x123 JUMPI PUSH1 0x0 CALLDATALOAD PUSH1 0xE0 SHR DUP1 PUSH4 0xB6B55F25 GT PUSH2 0xA0 JUMPI DUP1 PUSH4 0xD5A53BBB GT PUSH2 0x64 JUMPI DUP1 PUSH4 0xD5A53BBB EQ PUSH2 0x3DE JUMPI DUP1 PUSH4 0xE55EE7EB EQ PUSH2 0x409 JUMPI DUP1 PUSH4 0xE9E42596 EQ PUSH2 0x434 JUMPI DUP1 PUSH4 0xF4CCE57E EQ PUSH2 0x45D JUMPI DUP1 PUSH4 0xFDB1E58B EQ PUSH2 0x49B JUMPI PUSH2 0x12A JUMP JUMPDEST DUP1 PUSH4 0xB6B55F25 EQ PUSH2 0x2F4 JUMPI DUP1 PUSH4 0xB765E313 EQ PUSH2 0x31D JUMPI DUP1 PUSH4 0xBBE15627 EQ PUSH2 0x334 JUMPI DUP1 PUSH4 0xC2C77938 EQ PUSH2 0x376 JUMPI DUP1 PUSH4 0xD0919116 EQ PUSH2 0x3B3 JUMPI PUSH2 0x12A JUMP JUMPDEST DUP1 PUSH4 0x2E90C1A9 GT PUSH2 0xE7 JUMPI DUP1 PUSH4 0x2E90C1A9 EQ PUSH2 0x22E JUMPI DUP1 PUSH4 0x503EE630 EQ PUSH2 0x259 JUMPI DUP1 PUSH4 0x82CB455B EQ PUSH2 0x275 JUMPI DUP1 PUSH4 0x8B50817B EQ PUSH2 0x2A0 JUMPI DUP1 PUSH4 0x9530B30F EQ PUSH2 0x2C9 JUMPI PUSH2 0x12A JUMP JUMPDEST DUP1 PUSH4 0x11F8B1B EQ PUSH2 0x12F JUMPI DUP1 PUSH4 0xF53A470 EQ PUSH2 0x15A JUMPI DUP1 PUSH4 0x195187E1 EQ PUSH2 0x197 JUMPI DUP1 PUSH4 0x1E13C6C3 EQ PUSH2 0x1C2 JUMPI DUP1 PUSH4 0x2795AD20 EQ PUSH2 0x1ED JUMPI PUSH2 0x12A JUMP JUMPDEST CALLDATASIZE PUSH2 0x12A JUMPI STOP JUMPDEST PUSH1 0x0 DUP1 REVERT JUMPDEST CALLVALUE DUP1 ISZERO PUSH2 0x13B JUMPI PUSH1 0x0 DUP1 REVERT JUMPDEST POP PUSH2 0x144 PUSH2 0x4C4 JUMP JUMPDEST PUSH1 0x40 MLOAD PUSH2 0x151 SWAP2 SWAP1 PUSH2 0x2BFF JUMP JUMPDEST PUSH1 0x40 MLOAD DUP1 SWAP2 SUB SWAP1 RETURN JUMPDEST CALLVALUE DUP1 ISZERO PUSH2 0x166 JUMPI PUSH1 0x0 DUP1 REVERT JUMPDEST POP PUSH2 0x181 PUSH1 0x4 DUP1 CALLDATASIZE SUB DUP2 ADD SWAP1 PUSH2 0x17C SWAP2 SWAP1 PUSH2 0x2C82 JUMP JUMPDEST PUSH2 0x4C9 JUMP JUMPDEST PUSH1 0x40 MLOAD PUSH2 0x18E SWAP2 SWAP1 PUSH2 0x2D7F JUMP JUMPDEST PUSH1 0x40 MLOAD DUP1 SWAP2 SUB SWAP1 RETURN JUMPDEST CALLVALUE DUP1 ISZERO PUSH2 0x1A3 JUMPI PUSH1 0x0 DUP1 REVERT JUMPDEST POP PUSH2 0x1AC PUSH2 0x5CD JUMP JUMPDEST PUSH1 0x40 MLOAD PUSH2 0x1B9 SWAP2 SWAP1 PUSH2 0x2DA9 JUMP JUMPDEST PUSH1 0x40 MLOAD DUP1 SWAP2 SUB SWAP1 RETURN JUMPDEST CALLVALUE DUP1 ISZERO PUSH2 0x1CE JUMPI PUSH1 0x0 DUP1 REVERT JUMPDEST POP PUSH2 0x1D7 PUSH2 0x5E5 JUMP JUMPDEST PUSH1 0x40 MLOAD PUSH2 0x1E4 SWAP2 SWAP1 PUSH2 0x2DD3 JUMP JUMPDEST PUSH1 0x40 MLOAD DUP1 SWAP2 SUB SWAP1 RETURN JUMPDEST CALLVALUE DUP1 ISZERO PUSH2 0x1F9 JUMPI PUSH1 0x0 DUP1 REVERT JUMPDEST POP PUSH2 0x214 PUSH1 0x4 DUP1 CALLDATASIZE SUB DUP2 ADD SWAP1 PUSH2 0x20F SWAP2 SWAP1 PUSH2 0x2E24 JUMP JUMPDEST PUSH2 0x5EA JUMP JUMPDEST PUSH1 0x40 MLOAD PUSH2 0x225 SWAP6 SWAP5 SWAP4 SWAP3 SWAP2 SWAP1 PUSH2 0x2F58 JUMP JUMPDEST PUSH1 0x40 MLOAD DUP1 SWAP2 SUB SWAP1 RETURN JUMPDEST CALLVALUE DUP1 ISZERO PUSH2 0x23A JUMPI PUSH1 0x0 DUP1 REVERT JUMPDEST POP PUSH2 0x243 PUSH2 0x6F5 JUMP JUMPDEST PUSH1 0x40 MLOAD PUSH2 0x250 SWAP2 SWAP1 PUSH2 0x2BFF JUMP JUMPDEST PUSH1 0x40 MLOAD DUP1 SWAP2 SUB SWAP1 RETURN JUMPDEST PUSH2 0x273 PUSH1 0x4 DUP1 CALLDATASIZE SUB DUP2 ADD SWAP1 PUSH2 0x26E SWAP2 SWAP1 PUSH2 0x2C82 JUMP JUMPDEST PUSH2 0x6FA JUMP JUMPDEST STOP JUMPDEST CALLVALUE DUP1 ISZERO PUSH2 0x281 JUMPI PUSH1 0x0 DUP1 REVERT JUMPDEST POP PUSH2 0x28A PUSH2 0xBD6 JUMP JUMPDEST PUSH1 0x40 MLOAD PUSH2 0x297 SWAP2 SWAP1 PUSH2 0x3007 JUMP JUMPDEST PUSH1 0x40 MLOAD DUP1 SWAP2 SUB SWAP1 RETURN JUMPDEST CALLVALUE DUP1 ISZERO PUSH2 0x2AC JUMPI PUSH1 0x0 DUP1 REVERT JUMPDEST POP PUSH2 0x2C7 PUSH1 0x4 DUP1 CALLDATASIZE SUB DUP2 ADD SWAP1 PUSH2 0x2C2 SWAP2 SWAP1 PUSH2 0x308E JUMP JUMPDEST PUSH2 0xBF2 JUMP JUMPDEST STOP JUMPDEST CALLVALUE DUP1 ISZERO PUSH2 0x2D5 JUMPI PUSH1 0x0 DUP1 REVERT JUMPDEST POP PUSH2 0x2DE PUSH2 0x1115 JUMP JUMPDEST PUSH1 0x40 MLOAD PUSH2 0x2EB SWAP2 SWAP1 PUSH2 0x2BFF JUMP JUMPDEST PUSH1 0x40 MLOAD DUP1 SWAP2 SUB SWAP1 RETURN JUMPDEST CALLVALUE DUP1 ISZERO PUSH2 0x300 JUMPI PUSH1 0x0 DUP1 REVERT JUMPDEST POP PUSH2 0x31B PUSH1 0x4 DUP1 CALLDATASIZE SUB DUP2 ADD SWAP1 PUSH2 0x316 SWAP2 SWAP1 PUSH2 0x311A JUMP JUMPDEST PUSH2 0x111A JUMP JUMPDEST STOP JUMPDEST CALLVALUE DUP1 ISZERO PUSH2 0x329 JUMPI PUSH1 0x0 DUP1 REVERT JUMPDEST POP PUSH2 0x332 PUSH2 0x1324 JUMP JUMPDEST STOP JUMPDEST CALLVALUE DUP1 ISZERO PUSH2 0x340 JUMPI PUSH1 0x0 DUP1 REVERT JUMPDEST POP PUSH2 0x35B PUSH1 0x4 DUP1 CALLDATASIZE SUB DUP2 ADD SWAP1 PUSH2 0x356 SWAP2 SWAP1 PUSH2 0x2C82 JUMP JUMPDEST PUSH2 0x1592 JUMP JUMPDEST PUSH1 0x40 MLOAD PUSH2 0x36D SWAP7 SWAP6 SWAP5 SWAP4 SWAP3 SWAP2 SWAP1 PUSH2 0x3156 JUMP JUMPDEST PUSH1 0x40 MLOAD DUP1 SWAP2 SUB SWAP1 RETURN JUMPDEST CALLVALUE DUP1 ISZERO PUSH2 0x382 JUMPI PUSH1 0x0 DUP1 REVERT JUMPDEST POP PUSH2 0x39D PUSH1 0x4 DUP1 CALLDATASIZE SUB DUP2 ADD SWAP1 PUSH2 0x398 SWAP2 SWAP1 PUSH2 0x2C82 JUMP JUMPDEST PUSH2 0x1608 JUMP JUMPDEST PUSH1 0x40 MLOAD PUSH2 0x3AA SWAP2 SWAP1 PUSH2 0x31C6 JUMP JUMPDEST PUSH1 0x40 MLOAD DUP1 SWAP2 SUB SWAP1 RETURN JUMPDEST CALLVALUE DUP1 ISZERO PUSH2 0x3BF JUMPI PUSH1 0x0 DUP1 REVERT JUMPDEST POP PUSH2 0x3C8 PUSH2 0x1620 JUMP JUMPDEST PUSH1 0x40 MLOAD PUSH2 0x3D5 SWAP2 SWAP1 PUSH2 0x2DA9 JUMP JUMPDEST PUSH1 0x40 MLOAD DUP1 SWAP2 SUB SWAP1 RETURN JUMPDEST CALLVALUE DUP1 ISZERO PUSH2 0x3EA JUMPI PUSH1 0x0 DUP1 REVERT JUMPDEST POP PUSH2 0x3F3 PUSH2 0x1638 JUMP JUMPDEST PUSH1 0x40 MLOAD PUSH2 0x400 SWAP2 SWAP1 PUSH2 0x2DA9 JUMP JUMPDEST PUSH1 0x40 MLOAD DUP1 SWAP2 SUB SWAP1 RETURN JUMPDEST CALLVALUE DUP1 ISZERO PUSH2 0x415 JUMPI PUSH1 0x0 DUP1 REVERT JUMPDEST POP PUSH2 0x41E PUSH2 0x1650 JUMP JUMPDEST PUSH1 0x40 MLOAD PUSH2 0x42B SWAP2 SWAP1 PUSH2 0x2DA9 JUMP JUMPDEST PUSH1 0x40 MLOAD DUP1 SWAP2 SUB SWAP1 RETURN JUMPDEST CALLVALUE DUP1 ISZERO PUSH2 0x440 JUMPI PUSH1 0x0 DUP1 REVERT JUMPDEST POP PUSH2 0x45B PUSH1 0x4 DUP1 CALLDATASIZE SUB DUP2 ADD SWAP1 PUSH2 0x456 SWAP2 SWAP1 PUSH2 0x308E JUMP JUMPDEST PUSH2 0x1668 JUMP JUMPDEST STOP JUMPDEST CALLVALUE DUP1 ISZERO PUSH2 0x469 JUMPI PUSH1 0x0 DUP1 REVERT JUMPDEST POP PUSH2 0x484 PUSH1 0x4 DUP1 CALLDATASIZE SUB DUP2 ADD SWAP1 PUSH2 0x47F SWAP2 SWAP1 PUSH2 0x2C82 JUMP JUMPDEST PUSH2 0x1949 JUMP JUMPDEST PUSH1 0x40 MLOAD PUSH2 0x492 SWAP3 SWAP2 SWAP1 PUSH2 0x31E1 JUMP JUMPDEST PUSH1 0x40 MLOAD DUP1 SWAP2 SUB SWAP1 RETURN JUMPDEST CALLVALUE DUP1 ISZERO PUSH2 0x4A7 JUMPI PUSH1 0x0 DUP1 REVERT JUMPDEST POP PUSH2 0x4C2 PUSH1 0x4 DUP1 CALLDATASIZE SUB DUP2 ADD SWAP1 PUSH2 0x4BD SWAP2 SWAP1 PUSH2 0x3236 JUMP JUMPDEST PUSH2 0x19D3 JUMP JUMPDEST STOP JUMPDEST PUSH1 0x1 DUP2 JUMP JUMPDEST PUSH2 0x4D1 PUSH2 0x2B38 JUMP JUMPDEST PUSH1 0x0 DUP1 DUP4 PUSH20 0xFFFFFFFFFFFFFFFFFFFFFFFFFFFFFFFFFFFFFFFF AND PUSH20 0xFFFFFFFFFFFFFFFFFFFFFFFFFFFFFFFFFFFFFFFF AND DUP2 MSTORE PUSH1 0x20 ADD SWAP1 DUP2 MSTORE PUSH1 0x20 ADD PUSH1 0x0 KECCAK256 PUSH1 0x40 MLOAD DUP1 PUSH1 0xC0 ADD PUSH1 0x40 MSTORE SWAP1 DUP2 PUSH1 0x0 DUP3 ADD PUSH1 0x0 SWAP1 SLOAD SWAP1 PUSH2 0x100 EXP SWAP1 DIV PUSH20 0xFFFFFFFFFFFFFFFFFFFFFFFFFFFFFFFFFFFFFFFF AND PUSH20 0xFFFFFFFFFFFFFFFFFFFFFFFFFFFFFFFFFFFFFFFF AND PUSH20 0xFFFFFFFFFFFFFFFFFFFFFFFFFFFFFFFFFFFFFFFF AND DUP2 MSTORE PUSH1 0x20 ADD PUSH1 0x0 DUP3 ADD PUSH1 0x14 SWAP1 SLOAD SWAP1 PUSH2 0x100 EXP SWAP1 DIV PUSH1 0xFF AND PUSH1 0xFF AND PUSH1 0xFF AND DUP2 MSTORE PUSH1 0x20 ADD PUSH1 0x1 DUP3 ADD SLOAD DUP2 MSTORE PUSH1 0x20 ADD PUSH1 0x2 DUP3 ADD SLOAD DUP2 MSTORE PUSH1 0x20 ADD PUSH1 0x3 DUP3 ADD PUSH1 0x0 SWAP1 SLOAD SWAP1 PUSH2 0x100 EXP SWAP1 DIV PUSH1 0xFF AND ISZERO ISZERO ISZERO ISZERO DUP2 MSTORE PUSH1 0x20 ADD PUSH1 0x4 DUP3 ADD SLOAD DUP2 MSTORE POP POP SWAP1 POP SWAP2 SWAP1 POP JUMP JUMPDEST PUSH20 0x28BEC7E30E6FAEE657A03E19BF1128AAD7632A00 DUP2 JUMP JUMPDEST PUSH1 0xA DUP2 JUMP JUMPDEST PUSH1 0x1 PUSH1 0x20 MSTORE DUP1 PUSH1 0x0 MSTORE PUSH1 0x40 PUSH1 0x0 KECCAK256 PUSH1 0x0 SWAP2 POP SWAP1 POP DUP1 PUSH1 0x0 ADD PUSH1 0x0 SWAP1 SLOAD SWAP1 PUSH2 0x100 EXP SWAP1 DIV PUSH20 0xFFFFFFFFFFFFFFFFFFFFFFFFFFFFFFFFFFFFFFFF AND SWAP1 DUP1 PUSH1 0x1 ADD PUSH1 0x0 SWAP1 SLOAD SWAP1 PUSH2 0x100 EXP SWAP1 DIV PUSH20 0xFFFFFFFFFFFFFFFFFFFFFFFFFFFFFFFFFFFFFFFF AND SWAP1 DUP1 PUSH1 0x2 ADD DUP1 SLOAD PUSH2 0x659 SWAP1 PUSH2 0x32CC JUMP JUMPDEST DUP1 PUSH1 0x1F ADD PUSH1 0x20 DUP1 SWAP2 DIV MUL PUSH1 0x20 ADD PUSH1 0x40 MLOAD SWAP1 DUP2 ADD PUSH1 0x40 MSTORE DUP1 SWAP3 SWAP2 SWAP1 DUP2 DUP2 MSTORE PUSH1 0x20 ADD DUP3 DUP1 SLOAD PUSH2 0x685 SWAP1 PUSH2 0x32CC JUMP JUMPDEST DUP1 ISZERO PUSH2 0x6D2 JUMPI DUP1 PUSH1 0x1F LT PUSH2 0x6A7 JUMPI PUSH2 0x100 DUP1 DUP4 SLOAD DIV MUL DUP4 MSTORE SWAP2 PUSH1 0x20 ADD SWAP2 PUSH2 0x6D2 JUMP JUMPDEST DUP3 ADD SWAP2 SWAP1 PUSH1 0x0 MSTORE PUSH1 0x20 PUSH1 0x0 KECCAK256 SWAP1 JUMPDEST DUP2 SLOAD DUP2 MSTORE SWAP1 PUSH1 0x1 ADD SWAP1 PUSH1 0x20 ADD DUP1 DUP4 GT PUSH2 0x6B5 JUMPI DUP3 SWAP1 SUB PUSH1 0x1F AND DUP3 ADD SWAP2 JUMPDEST POP POP POP POP POP SWAP1 DUP1 PUSH1 0x3 ADD PUSH1 0x0 SWAP1 SLOAD SWAP1 PUSH2 0x100 EXP SWAP1 DIV PUSH1 0xFF AND SWAP1 DUP1 PUSH1 0x4 ADD SLOAD SWAP1 POP DUP6 JUMP JUMPDEST PUSH1 0x2 DUP2 JUMP JUMPDEST PUSH1 0x0 DUP1 PUSH1 0x0 DUP4 PUSH20 0xFFFFFFFFFFFFFFFFFFFFFFFFFFFFFFFFFFFFFFFF AND PUSH20 0xFFFFFFFFFFFFFFFFFFFFFFFFFFFFFFFFFFFFFFFF AND DUP2 MSTORE PUSH1 0x20 ADD SWAP1 DUP2 MSTORE PUSH1 0x20 ADD PUSH1 0x0 KECCAK256 SWAP1 POP DUP1 PUSH1 0x3 ADD PUSH1 0x0 SWAP1 SLOAD SWAP1 PUSH2 0x100 EXP SWAP1 DIV PUSH1 0xFF AND PUSH2 0x78D JUMPI PUSH1 0x40 MLOAD PUSH32 0x8C379A000000000000000000000000000000000000000000000000000000000 DUP2 MSTORE PUSH1 0x4 ADD PUSH2 0x784 SWAP1 PUSH2 0x3349 JUMP JUMPDEST PUSH1 0x40 MLOAD DUP1 SWAP2 SUB SWAP1 REVERT JUMPDEST PUSH1 0x0 DUP1 SHL PUSH1 0x2 PUSH1 0x0 DUP5 PUSH20 0xFFFFFFFFFFFFFFFFFFFFFFFFFFFFFFFFFFFFFFFF AND PUSH20 0xFFFFFFFFFFFFFFFFFFFFFFFFFFFFFFFFFFFFFFFF AND DUP2 MSTORE PUSH1 0x20 ADD SWAP1 DUP2 MSTORE PUSH1 0x20 ADD PUSH1 0x0 KECCAK256 SLOAD EQ PUSH2 0x811 JUMPI PUSH1 0x40 MLOAD PUSH32 0x8C379A000000000000000000000000000000000000000000000000000000000 DUP2 MSTORE PUSH1 0x4 ADD PUSH2 0x808 SWAP1 PUSH2 0x33B5 JUMP JUMPDEST PUSH1 0x40 MLOAD DUP1 SWAP2 SUB SWAP1 REVERT JUMPDEST PUSH1 0x0 PUSH1 0x40 MLOAD DUP1 PUSH1 0x60 ADD PUSH1 0x40 MSTORE DUP1 PUSH1 0x21 DUP2 MSTORE PUSH1 0x20 ADD PUSH2 0x4C11 PUSH1 0x21 SWAP2 CODECOPY PUSH2 0x859 DUP4 PUSH1 0x0 ADD PUSH1 0x0 SWAP1 SLOAD SWAP1 PUSH2 0x100 EXP SWAP1 DIV PUSH20 0xFFFFFFFFFFFFFFFFFFFFFFFFFFFFFFFFFFFFFFFF AND PUSH2 0x1E13 JUMP JUMPDEST PUSH1 0x40 MLOAD PUSH1 0x20 ADD PUSH2 0x86A SWAP3 SWAP2 SWAP1 PUSH2 0x3437 JUMP JUMPDEST PUSH1 0x40 MLOAD PUSH1 0x20 DUP2 DUP4 SUB SUB DUP2 MSTORE SWAP1 PUSH1 0x40 MSTORE SWAP1 POP PUSH1 0x0 PUSH1 0x40 MLOAD DUP1 PUSH1 0x40 ADD PUSH1 0x40 MSTORE DUP1 PUSH1 0x6 DUP2 MSTORE PUSH1 0x20 ADD PUSH32 0x242E737761700000000000000000000000000000000000000000000000000000 DUP2 MSTORE POP SWAP1 POP PUSH1 0x0 DUP3 DUP3 PUSH1 0x40 MLOAD PUSH1 0x20 ADD PUSH2 0x8CA SWAP3 SWAP2 SWAP1 PUSH2 0x346A JUMP JUMPDEST PUSH1 0x40 MLOAD PUSH1 0x20 DUP2 DUP4 SUB SUB DUP2 MSTORE SWAP1 PUSH1 0x40 MSTORE SWAP1 POP PUSH1 0x0 PUSH20 0x37BB9C718F3F7FE5ECBDB0B600D607B52706776 PUSH20 0xFFFFFFFFFFFFFFFFFFFFFFFFFFFFFFFFFFFFFFFF AND PUSH4 0x8B816804 CALLVALUE PUSH1 0x1 DUP6 ADDRESS PUSH4 0x8B50817B PUSH1 0xE0 SHL PUSH1 0x40 MLOAD DUP7 PUSH4 0xFFFFFFFF AND PUSH1 0xE0 SHL DUP2 MSTORE PUSH1 0x4 ADD PUSH2 0x939 SWAP5 SWAP4 SWAP3 SWAP2 SWAP1 PUSH2 0x34DC JUMP JUMPDEST PUSH1 0x20 PUSH1 0x40 MLOAD DUP1 DUP4 SUB DUP2 DUP6 DUP9 GAS CALL ISZERO DUP1 ISZERO PUSH2 0x957 JUMPI RETURNDATASIZE PUSH1 0x0 DUP1 RETURNDATACOPY RETURNDATASIZE PUSH1 0x0 REVERT JUMPDEST POP POP POP POP POP PUSH1 0x40 MLOAD RETURNDATASIZE PUSH1 0x1F NOT PUSH1 0x1F DUP3 ADD AND DUP3 ADD DUP1 PUSH1 0x40 MSTORE POP DUP2 ADD SWAP1 PUSH2 0x97C SWAP2 SWAP1 PUSH2 0x353D JUMP JUMPDEST SWAP1 POP PUSH1 0x40 MLOAD DUP1 PUSH1 0xA0 ADD PUSH1 0x40 MSTORE DUP1 DUP8 PUSH20 0xFFFFFFFFFFFFFFFFFFFFFFFFFFFFFFFFFFFFFFFF AND DUP2 MSTORE PUSH1 0x20 ADD DUP7 PUSH1 0x0 ADD PUSH1 0x0 SWAP1 SLOAD SWAP1 PUSH2 0x100 EXP SWAP1 DIV PUSH20 0xFFFFFFFFFFFFFFFFFFFFFFFFFFFFFFFFFFFFFFFF AND PUSH20 0xFFFFFFFFFFFFFFFFFFFFFFFFFFFFFFFFFFFFFFFF AND DUP2 MSTORE PUSH1 0x20 ADD PUSH1 0x40 MLOAD DUP1 PUSH1 0x20 ADD PUSH1 0x40 MSTORE DUP1 PUSH1 0x0 DUP2 MSTORE POP DUP2 MSTORE PUSH1 0x20 ADD PUSH1 0x1 PUSH1 0x3 DUP2 GT ISZERO PUSH2 0xA0E JUMPI PUSH2 0xA0D PUSH2 0x2EE1 JUMP JUMPDEST JUMPDEST DUP2 MSTORE PUSH1 0x20 ADD TIMESTAMP DUP2 MSTORE POP PUSH1 0x1 PUSH1 0x0 DUP4 DUP2 MSTORE PUSH1 0x20 ADD SWAP1 DUP2 MSTORE PUSH1 0x20 ADD PUSH1 0x0 KECCAK256 PUSH1 0x0 DUP3 ADD MLOAD DUP2 PUSH1 0x0 ADD PUSH1 0x0 PUSH2 0x100 EXP DUP2 SLOAD DUP2 PUSH20 0xFFFFFFFFFFFFFFFFFFFFFFFFFFFFFFFFFFFFFFFF MUL NOT AND SWAP1 DUP4 PUSH20 0xFFFFFFFFFFFFFFFFFFFFFFFFFFFFFFFFFFFFFFFF AND MUL OR SWAP1 SSTORE POP PUSH1 0x20 DUP3 ADD MLOAD DUP2 PUSH1 0x1 ADD PUSH1 0x0 PUSH2 0x100 EXP DUP2 SLOAD DUP2 PUSH20 0xFFFFFFFFFFFFFFFFFFFFFFFFFFFFFFFFFFFFFFFF MUL NOT AND SWAP1 DUP4 PUSH20 0xFFFFFFFFFFFFFFFFFFFFFFFFFFFFFFFFFFFFFFFF AND MUL OR SWAP1 SSTORE POP PUSH1 0x40 DUP3 ADD MLOAD DUP2 PUSH1 0x2 ADD SWAP1 DUP2 PUSH2 0xACD SWAP2 SWAP1 PUSH2 0x3745 JUMP JUMPDEST POP PUSH1 0x60 DUP3 ADD MLOAD DUP2 PUSH1 0x3 ADD PUSH1 0x0 PUSH2 0x100 EXP DUP2 SLOAD DUP2 PUSH1 0xFF MUL NOT AND SWAP1 DUP4 PUSH1 0x3 DUP2 GT ISZERO PUSH2 0xAF9 JUMPI PUSH2 0xAF8 PUSH2 0x2EE1 JUMP JUMPDEST JUMPDEST MUL OR SWAP1 SSTORE POP PUSH1 0x80 DUP3 ADD MLOAD DUP2 PUSH1 0x4 ADD SSTORE SWAP1 POP POP DUP1 PUSH1 0x2 PUSH1 0x0 DUP9 PUSH20 0xFFFFFFFFFFFFFFFFFFFFFFFFFFFFFFFFFFFFFFFF AND PUSH20 0xFFFFFFFFFFFFFFFFFFFFFFFFFFFFFFFFFFFFFFFF AND DUP2 MSTORE PUSH1 0x20 ADD SWAP1 DUP2 MSTORE PUSH1 0x20 ADD PUSH1 0x0 KECCAK256 DUP2 SWAP1 SSTORE POP DUP5 PUSH1 0x0 ADD PUSH1 0x0 SWAP1 SLOAD SWAP1 PUSH2 0x100 EXP SWAP1 DIV PUSH20 0xFFFFFFFFFFFFFFFFFFFFFFFFFFFFFFFFFFFFFFFF AND PUSH20 0xFFFFFFFFFFFFFFFFFFFFFFFFFFFFFFFFFFFFFFFF AND DUP7 PUSH20 0xFFFFFFFFFFFFFFFFFFFFFFFFFFFFFFFFFFFFFFFF AND DUP3 PUSH32 0xCF5049019CF7659010E4A5F9638F071339A89FC1F0F77BE053EE91034CDADCF9 PUSH1 0x40 MLOAD PUSH1 0x40 MLOAD DUP1 SWAP2 SUB SWAP1 LOG4 POP POP POP POP POP POP JUMP JUMPDEST PUSH1 0x40 MLOAD DUP1 PUSH1 0x60 ADD PUSH1 0x40 MSTORE DUP1 PUSH1 0x21 DUP2 MSTORE PUSH1 0x20 ADD PUSH2 0x4C11 PUSH1 0x21 SWAP2 CODECOPY DUP2 JUMP JUMPDEST PUSH20 0x37BB9C718F3F7FE5ECBDB0B600D607B52706776 PUSH20 0xFFFFFFFFFFFFFFFFFFFFFFFFFFFFFFFFFFFFFFFF AND CALLER PUSH20 0xFFFFFFFFFFFFFFFFFFFFFFFFFFFFFFFFFFFFFFFF AND EQ PUSH2 0xC74 JUMPI PUSH1 0x40 MLOAD PUSH32 0x8C379A000000000000000000000000000000000000000000000000000000000 DUP2 MSTORE PUSH1 0x4 ADD PUSH2 0xC6B SWAP1 PUSH2 0x3889 JUMP JUMPDEST PUSH1 0x40 MLOAD DUP1 SWAP2 SUB SWAP1 REVERT JUMPDEST PUSH1 0x0 PUSH1 0x1 PUSH1 0x0 DUP6 DUP2 MSTORE PUSH1 0x20 ADD SWAP1 DUP2 MSTORE PUSH1 0x20 ADD PUSH1 0x0 KECCAK256 SWAP1 POP PUSH1 0x1 PUSH1 0x3 DUP2 GT ISZERO PUSH2 0xC9F JUMPI PUSH2 0xC9E PUSH2 0x2EE1 JUMP JUMPDEST JUMPDEST DUP2 PUSH1 0x3 ADD PUSH1 0x0 SWAP1 SLOAD SWAP1 PUSH2 0x100 EXP SWAP1 DIV PUSH1 0xFF AND PUSH1 0x3 DUP2 GT ISZERO PUSH2 0xCC3 JUMPI PUSH2 0xCC2 PUSH2 0x2EE1 JUMP JUMPDEST JUMPDEST EQ PUSH2 0xD03 JUMPI PUSH1 0x40 MLOAD PUSH32 0x8C379A000000000000000000000000000000000000000000000000000000000 DUP2 MSTORE PUSH1 0x4 ADD PUSH2 0xCFA SWAP1 PUSH2 0x38F5 JUMP JUMPDEST PUSH1 0x40 MLOAD DUP1 SWAP2 SUB SWAP1 REVERT JUMPDEST PUSH1 0x0 DUP1 PUSH1 0x0 DUP1 PUSH1 0x0 DUP8 DUP8 DUP2 ADD SWAP1 PUSH2 0xD1A SWAP2 SWAP1 PUSH2 0x3953 JUMP JUMPDEST SWAP5 POP SWAP5 POP SWAP5 POP SWAP5 POP SWAP5 POP DUP9 PUSH32 0xE749F5137156531EA5889480E8EFEBCAE165F1505A891EA7654695636A1E4470 DUP7 DUP7 DUP7 DUP6 PUSH1 0x40 MLOAD PUSH2 0xD5A SWAP5 SWAP4 SWAP3 SWAP2 SWAP1 PUSH2 0x39CE JUMP JUMPDEST PUSH1 0x40 MLOAD DUP1 SWAP2 SUB SWAP1 LOG2 PUSH1 0x1E DUP2 TIMESTAMP PUSH2 0xD70 SWAP2 SWAP1 PUSH2 0x3A42 JUMP JUMPDEST GT ISZERO PUSH2 0xE5D JUMPI DUP6 PUSH1 0x1 ADD PUSH1 0x0 SWAP1 SLOAD SWAP1 PUSH2 0x100 EXP SWAP1 DIV PUSH20 0xFFFFFFFFFFFFFFFFFFFFFFFFFFFFFFFFFFFFFFFF AND PUSH20 0xFFFFFFFFFFFFFFFFFFFFFFFFFFFFFFFFFFFFFFFF AND DUP7 PUSH1 0x0 ADD PUSH1 0x0 SWAP1 SLOAD SWAP1 PUSH2 0x100 EXP SWAP1 DIV PUSH20 0xFFFFFFFFFFFFFFFFFFFFFFFFFFFFFFFFFFFFFFFF AND PUSH20 0xFFFFFFFFFFFFFFFFFFFFFFFFFFFFFFFFFFFFFFFF AND PUSH32 0xE1EB86B493665260F23A08F75ECD7E5DE3B75EB90129DBC0741D062961D43095 PUSH1 0x0 PUSH1 0x40 MLOAD PUSH2 0xE1C SWAP2 SWAP1 PUSH2 0x3AFD JUMP JUMPDEST PUSH1 0x40 MLOAD DUP1 SWAP2 SUB SWAP1 LOG3 PUSH2 0xE52 DUP10 DUP8 PUSH1 0x0 ADD PUSH1 0x0 SWAP1 SLOAD SWAP1 PUSH2 0x100 EXP SWAP1 DIV PUSH20 0xFFFFFFFFFFFFFFFFFFFFFFFFFFFFFFFFFFFFFFFF AND PUSH2 0x20F2 JUMP JUMPDEST POP POP POP POP POP POP PUSH2 0x1110 JUMP JUMPDEST PUSH1 0x0 PUSH20 0x28BEC7E30E6FAEE657A03E19BF1128AAD7632A00 PUSH20 0xFFFFFFFFFFFFFFFFFFFFFFFFFFFFFFFFFFFFFFFF AND DUP7 PUSH20 0xFFFFFFFFFFFFFFFFFFFFFFFFFFFFFFFFFFFFFFFF AND EQ DUP1 ISZERO PUSH2 0xEED JUMPI POP PUSH20 0x46EDE9564A72571DF6F5E44D0405360C0F4DCAB PUSH20 0xFFFFFFFFFFFFFFFFFFFFFFFFFFFFFFFFFFFFFFFF AND DUP6 PUSH20 0xFFFFFFFFFFFFFFFFFFFFFFFFFFFFFFFFFFFFFFFF AND EQ JUMPDEST DUP1 PUSH2 0xF82 JUMPI POP PUSH20 0x46EDE9564A72571DF6F5E44D0405360C0F4DCAB PUSH20 0xFFFFFFFFFFFFFFFFFFFFFFFFFFFFFFFFFFFFFFFF AND DUP7 PUSH20 0xFFFFFFFFFFFFFFFFFFFFFFFFFFFFFFFFFFFFFFFF AND EQ DUP1 ISZERO PUSH2 0xF81 JUMPI POP PUSH20 0x28BEC7E30E6FAEE657A03E19BF1128AAD7632A00 PUSH20 0xFFFFFFFFFFFFFFFFFFFFFFFFFFFFFFFFFFFFFFFF AND DUP6 PUSH20 0xFFFFFFFFFFFFFFFFFFFFFFFFFFFFFFFFFFFFFFFF AND EQ JUMPDEST JUMPDEST SWAP1 POP DUP1 PUSH2 0x1071 JUMPI DUP7 PUSH1 0x1 ADD PUSH1 0x0 SWAP1 SLOAD SWAP1 PUSH2 0x100 EXP SWAP1 DIV PUSH20 0xFFFFFFFFFFFFFFFFFFFFFFFFFFFFFFFFFFFFFFFF AND PUSH20 0xFFFFFFFFFFFFFFFFFFFFFFFFFFFFFFFFFFFFFFFF AND DUP8 PUSH1 0x0 ADD PUSH1 0x0 SWAP1 SLOAD SWAP1 PUSH2 0x100 EXP SWAP1 DIV PUSH20 0xFFFFFFFFFFFFFFFFFFFFFFFFFFFFFFFFFFFFFFFF AND PUSH20 0xFFFFFFFFFFFFFFFFFFFFFFFFFFFFFFFFFFFFFFFF AND PUSH32 0xE1EB86B493665260F23A08F75ECD7E5DE3B75EB90129DBC0741D062961D43095 PUSH1 0x0 PUSH1 0x40 MLOAD PUSH2 0x102F SWAP2 SWAP1 PUSH2 0x3B77 JUMP JUMPDEST PUSH1 0x40 MLOAD DUP1 SWAP2 SUB SWAP1 LOG3 PUSH2 0x1065 DUP11 DUP9 PUSH1 0x0 ADD PUSH1 0x0 SWAP1 SLOAD SWAP1 PUSH2 0x100 EXP SWAP1 DIV PUSH20 0xFFFFFFFFFFFFFFFFFFFFFFFFFFFFFFFFFFFFFFFF AND PUSH2 0x20F2 JUMP JUMPDEST POP POP POP POP POP POP POP PUSH2 0x1110 JUMP JUMPDEST DUP9 DUP9 DUP9 PUSH1 0x2 ADD SWAP2 DUP3 PUSH2 0x1084 SWAP3 SWAP2 SWAP1 PUSH2 0x3BB0 JUMP JUMPDEST POP PUSH1 0x2 DUP8 PUSH1 0x3 ADD PUSH1 0x0 PUSH2 0x100 EXP DUP2 SLOAD DUP2 PUSH1 0xFF MUL NOT AND SWAP1 DUP4 PUSH1 0x3 DUP2 GT ISZERO PUSH2 0x10AD JUMPI PUSH2 0x10AC PUSH2 0x2EE1 JUMP JUMPDEST JUMPDEST MUL OR SWAP1 SSTORE POP PUSH2 0x1108 DUP11 DUP9 PUSH1 0x0 ADD PUSH1 0x0 SWAP1 SLOAD SWAP1 PUSH2 0x100 EXP SWAP1 DIV PUSH20 0xFFFFFFFFFFFFFFFFFFFFFFFFFFFFFFFFFFFFFFFF AND DUP10 PUSH1 0x1 ADD PUSH1 0x0 SWAP1 SLOAD SWAP1 PUSH2 0x100 EXP SWAP1 DIV PUSH20 0xFFFFFFFFFFFFFFFFFFFFFFFFFFFFFFFFFFFFFFFF AND DUP10 DUP9 DUP8 PUSH2 0x21C9 JUMP JUMPDEST POP POP POP POP POP POP POP JUMPDEST POP POP POP JUMP JUMPDEST PUSH1 0x1E DUP2 JUMP JUMPDEST PUSH1 0x0 DUP1 CALLER PUSH20 0xFFFFFFFFFFFFFFFFFFFFFFFFFFFFFFFFFFFFFFFF AND PUSH20 0xFFFFFFFFFFFFFFFFFFFFFFFFFFFFFFFFFFFFFFFF AND DUP2 MSTORE PUSH1 0x20 ADD SWAP1 DUP2 MSTORE PUSH1 0x20 ADD PUSH1 0x0 KECCAK256 PUSH1 0x3 ADD PUSH1 0x0 SWAP1 SLOAD SWAP1 PUSH2 0x100 EXP SWAP1 DIV PUSH1 0xFF AND PUSH2 0x11A8 JUMPI PUSH1 0x40 MLOAD PUSH32 0x8C379A000000000000000000000000000000000000000000000000000000000 DUP2 MSTORE PUSH1 0x4 ADD PUSH2 0x119F SWAP1 PUSH2 0x3CCC JUMP JUMPDEST PUSH1 0x40 MLOAD DUP1 SWAP2 SUB SWAP1 REVERT JUMPDEST PUSH20 0x28BEC7E30E6FAEE657A03E19BF1128AAD7632A00 PUSH20 0xFFFFFFFFFFFFFFFFFFFFFFFFFFFFFFFFFFFFFFFF AND PUSH4 0x23B872DD CALLER ADDRESS DUP5 PUSH1 0x40 MLOAD DUP5 PUSH4 0xFFFFFFFF AND PUSH1 0xE0 SHL DUP2 MSTORE PUSH1 0x4 ADD PUSH2 0x11F9 SWAP4 SWAP3 SWAP2 SWAP1 PUSH2 0x3CEC JUMP JUMPDEST PUSH1 0x20 PUSH1 0x40 MLOAD DUP1 DUP4 SUB DUP2 PUSH1 0x0 DUP8 GAS CALL ISZERO DUP1 ISZERO PUSH2 0x1218 JUMPI RETURNDATASIZE PUSH1 0x0 DUP1 RETURNDATACOPY RETURNDATASIZE PUSH1 0x0 REVERT JUMPDEST POP POP POP POP PUSH1 0x40 MLOAD RETURNDATASIZE PUSH1 0x1F NOT PUSH1 0x1F DUP3 ADD AND DUP3 ADD DUP1 PUSH1 0x40 MSTORE POP DUP2 ADD SWAP1 PUSH2 0x123C SWAP2 SWAP1 PUSH2 0x3D4F JUMP JUMPDEST PUSH2 0x127B JUMPI PUSH1 0x40 MLOAD PUSH32 0x8C379A000000000000000000000000000000000000000000000000000000000 DUP2 MSTORE PUSH1 0x4 ADD PUSH2 0x1272 SWAP1 PUSH2 0x3DC8 JUMP JUMPDEST PUSH1 0x40 MLOAD DUP1 SWAP2 SUB SWAP1 REVERT JUMPDEST DUP1 PUSH1 0x0 DUP1 CALLER PUSH20 0xFFFFFFFFFFFFFFFFFFFFFFFFFFFFFFFFFFFFFFFF AND PUSH20 0xFFFFFFFFFFFFFFFFFFFFFFFFFFFFFFFFFFFFFFFF AND DUP2 MSTORE PUSH1 0x20 ADD SWAP1 DUP2 MSTORE PUSH1 0x20 ADD PUSH1 0x0 KECCAK256 PUSH1 0x2 ADD PUSH1 0x0 DUP3 DUP3 SLOAD PUSH2 0x12CC SWAP2 SWAP1 PUSH2 0x3DE8 JUMP JUMPDEST SWAP3 POP POP DUP2 SWAP1 SSTORE POP CALLER PUSH20 0xFFFFFFFFFFFFFFFFFFFFFFFFFFFFFFFFFFFFFFFF AND PUSH32 0x543BA50A5EEC5E6178218E364B1D0F396157B3C8FA278522C2CB7FD99407D474 DUP3 PUSH1 0x40 MLOAD PUSH2 0x1319 SWAP2 SWAP1 PUSH2 0x2BFF JUMP JUMPDEST PUSH1 0x40 MLOAD DUP1 SWAP2 SUB SWAP1 LOG2 POP JUMP JUMPDEST PUSH1 0x0 DUP1 PUSH1 0x0 CALLER PUSH20 0xFFFFFFFFFFFFFFFFFFFFFFFFFFFFFFFFFFFFFFFF AND PUSH20 0xFFFFFFFFFFFFFFFFFFFFFFFFFFFFFFFFFFFFFFFF AND DUP2 MSTORE PUSH1 0x20 ADD SWAP1 DUP2 MSTORE PUSH1 0x20 ADD PUSH1 0x0 KECCAK256 SWAP1 POP DUP1 PUSH1 0x3 ADD PUSH1 0x0 SWAP1 SLOAD SWAP1 PUSH2 0x100 EXP SWAP1 DIV PUSH1 0xFF AND PUSH2 0x13B7 JUMPI PUSH1 0x40 MLOAD PUSH32 0x8C379A000000000000000000000000000000000000000000000000000000000 DUP2 MSTORE PUSH1 0x4 ADD PUSH2 0x13AE SWAP1 PUSH2 0x3E68 JUMP JUMPDEST PUSH1 0x40 MLOAD DUP1 SWAP2 SUB SWAP1 REVERT JUMPDEST PUSH1 0x0 DUP2 PUSH1 0x3 ADD PUSH1 0x0 PUSH2 0x100 EXP DUP2 SLOAD DUP2 PUSH1 0xFF MUL NOT AND SWAP1 DUP4 ISZERO ISZERO MUL OR SWAP1 SSTORE POP PUSH1 0x0 DUP2 PUSH1 0x2 ADD SLOAD SWAP1 POP PUSH1 0x0 DUP3 PUSH1 0x2 ADD DUP2 SWAP1 SSTORE POP PUSH1 0x0 DUP2 GT ISZERO PUSH2 0x1510 JUMPI PUSH20 0x28BEC7E30E6FAEE657A03E19BF1128AAD7632A00 PUSH20 0xFFFFFFFFFFFFFFFFFFFFFFFFFFFFFFFFFFFFFFFF AND PUSH4 0xA9059CBB CALLER DUP4 PUSH1 0x40 MLOAD DUP4 PUSH4 0xFFFFFFFF AND PUSH1 0xE0 SHL DUP2 MSTORE PUSH1 0x4 ADD PUSH2 0x143F SWAP3 SWAP2 SWAP1 PUSH2 0x3E88 JUMP JUMPDEST PUSH1 0x20 PUSH1 0x40 MLOAD DUP1 DUP4 SUB DUP2 PUSH1 0x0 DUP8 GAS CALL ISZERO DUP1 ISZERO PUSH2 0x145E JUMPI RETURNDATASIZE PUSH1 0x0 DUP1 RETURNDATACOPY RETURNDATASIZE PUSH1 0x0 REVERT JUMPDEST POP POP POP POP PUSH1 0x40 MLOAD RETURNDATASIZE PUSH1 0x1F NOT PUSH1 0x1F DUP3 ADD AND DUP3 ADD DUP1 PUSH1 0x40 MSTORE POP DUP2 ADD SWAP1 PUSH2 0x1482 SWAP2 SWAP1 PUSH2 0x3D4F JUMP JUMPDEST PUSH2 0x14C1 JUMPI PUSH1 0x40 MLOAD PUSH32 0x8C379A000000000000000000000000000000000000000000000000000000000 DUP2 MSTORE PUSH1 0x4 ADD PUSH2 0x14B8 SWAP1 PUSH2 0x3EFD JUMP JUMPDEST PUSH1 0x40 MLOAD DUP1 SWAP2 SUB SWAP1 REVERT JUMPDEST CALLER PUSH20 0xFFFFFFFFFFFFFFFFFFFFFFFFFFFFFFFFFFFFFFFF AND PUSH32 0xEAFF4B37086828766AD3268786972C0CD24259D4C87A80F9D3963A3C3D999B0D DUP3 PUSH1 0x40 MLOAD PUSH2 0x1507 SWAP2 SWAP1 PUSH2 0x2BFF JUMP JUMPDEST PUSH1 0x40 MLOAD DUP1 SWAP2 SUB SWAP1 LOG2 JUMPDEST DUP2 PUSH1 0x0 ADD PUSH1 0x0 SWAP1 SLOAD SWAP1 PUSH2 0x100 EXP SWAP1 DIV PUSH20 0xFFFFFFFFFFFFFFFFFFFFFFFFFFFFFFFFFFFFFFFF AND PUSH20 0xFFFFFFFFFFFFFFFFFFFFFFFFFFFFFFFFFFFFFFFF AND CALLER PUSH20 0xFFFFFFFFFFFFFFFFFFFFFFFFFFFFFFFFFFFFFFFF AND PUSH32 0x56FE74051B56C316F13CCDC09E12C003DD7A1D971132B7A360099C9C9373BF8C PUSH1 0x40 MLOAD PUSH1 0x40 MLOAD DUP1 SWAP2 SUB SWAP1 LOG3 POP POP JUMP JUMPDEST PUSH1 0x0 PUSH1 0x20 MSTORE DUP1 PUSH1 0x0 MSTORE PUSH1 0x40 PUSH1 0x0 KECCAK256 PUSH1 0x0 SWAP2 POP SWAP1 POP DUP1 PUSH1 0x0 ADD PUSH1 0x0 SWAP1 SLOAD SWAP1 PUSH2 0x100 EXP SWAP1 DIV PUSH20 0xFFFFFFFFFFFFFFFFFFFFFFFFFFFFFFFFFFFFFFFF AND SWAP1 DUP1 PUSH1 0x0 ADD PUSH1 0x14 SWAP1 SLOAD SWAP1 PUSH2 0x100 EXP SWAP1 DIV PUSH1 0xFF AND SWAP1 DUP1 PUSH1 0x1 ADD SLOAD SWAP1 DUP1 PUSH1 0x2 ADD SLOAD SWAP1 DUP1 PUSH1 0x3 ADD PUSH1 0x0 SWAP1 SLOAD SWAP1 PUSH2 0x100 EXP SWAP1 DIV PUSH1 0xFF AND SWAP1 DUP1 PUSH1 0x4 ADD SLOAD SWAP1 POP DUP7 JUMP JUMPDEST PUSH1 0x2 PUSH1 0x20 MSTORE DUP1 PUSH1 0x0 MSTORE PUSH1 0x40 PUSH1 0x0 KECCAK256 PUSH1 0x0 SWAP2 POP SWAP1 POP SLOAD DUP2 JUMP JUMPDEST PUSH20 0x1582F6F3D26658F7208A799BE46E34B1F366CE44 DUP2 JUMP JUMPDEST PUSH20 0x46EDE9564A72571DF6F5E44D0405360C0F4DCAB DUP2 JUMP JUMPDEST PUSH20 0x37BB9C718F3F7FE5ECBDB0B600D607B52706776 DUP2 JUMP JUMPDEST PUSH20 0x37BB9C718F3F7FE5ECBDB0B600D607B52706776 PUSH20 0xFFFFFFFFFFFFFFFFFFFFFFFFFFFFFFFFFFFFFFFF AND CALLER PUSH20 0xFFFFFFFFFFFFFFFFFFFFFFFFFFFFFFFFFFFFFFFF AND EQ PUSH2 0x16EA JUMPI PUSH1 0x40 MLOAD PUSH32 0x8C379A000000000000000000000000000000000000000000000000000000000 DUP2 MSTORE PUSH1 0x4 ADD PUSH2 0x16E1 SWAP1 PUSH2 0x3889 JUMP JUMPDEST PUSH1 0x40 MLOAD DUP1 SWAP2 SUB SWAP1 REVERT JUMPDEST PUSH1 0x0 PUSH1 0x1 PUSH1 0x0 DUP6 DUP2 MSTORE PUSH1 0x20 ADD SWAP1 DUP2 MSTORE PUSH1 0x20 ADD PUSH1 0x0 KECCAK256 SWAP1 POP PUSH1 0x2 PUSH1 0x3 DUP2 GT ISZERO PUSH2 0x1715 JUMPI PUSH2 0x1714 PUSH2 0x2EE1 JUMP JUMPDEST JUMPDEST DUP2 PUSH1 0x3 ADD PUSH1 0x0 SWAP1 SLOAD SWAP1 PUSH2 0x100 EXP SWAP1 DIV PUSH1 0xFF AND PUSH1 0x3 DUP2 GT ISZERO PUSH2 0x1739 JUMPI PUSH2 0x1738 PUSH2 0x2EE1 JUMP JUMPDEST JUMPDEST EQ PUSH2 0x1779 JUMPI PUSH1 0x40 MLOAD PUSH32 0x8C379A000000000000000000000000000000000000000000000000000000000 DUP2 MSTORE PUSH1 0x4 ADD PUSH2 0x1770 SWAP1 PUSH2 0x3F69 JUMP JUMPDEST PUSH1 0x40 MLOAD DUP1 SWAP2 SUB SWAP1 REVERT JUMPDEST PUSH1 0x0 DUP4 DUP4 DUP2 ADD SWAP1 PUSH2 0x178A SWAP2 SWAP1 PUSH2 0x3F89 JUMP JUMPDEST SWAP1 POP PUSH1 0x64 DUP2 PUSH1 0xFF AND GT ISZERO PUSH2 0x179D JUMPI PUSH1 0x64 SWAP1 POP JUMPDEST PUSH1 0x0 PUSH1 0xA PUSH1 0xFF AND DUP3 PUSH1 0xFF AND LT ISZERO SWAP1 POP DUP3 PUSH1 0x0 ADD PUSH1 0x0 SWAP1 SLOAD SWAP1 PUSH2 0x100 EXP SWAP1 DIV PUSH20 0xFFFFFFFFFFFFFFFFFFFFFFFFFFFFFFFFFFFFFFFF AND PUSH20 0xFFFFFFFFFFFFFFFFFFFFFFFFFFFFFFFFFFFFFFFF AND DUP7 PUSH32 0x822A77C1206275A8317399C6767734CE30774FF289DE39A882AEBE1BD663F356 DUP5 DUP5 PUSH1 0x40 MLOAD PUSH2 0x1819 SWAP3 SWAP2 SWAP1 PUSH2 0x3FB6 JUMP JUMPDEST PUSH1 0x40 MLOAD DUP1 SWAP2 SUB SWAP1 LOG3 DUP1 PUSH2 0x1909 JUMPI DUP3 PUSH1 0x1 ADD PUSH1 0x0 SWAP1 SLOAD SWAP1 PUSH2 0x100 EXP SWAP1 DIV PUSH20 0xFFFFFFFFFFFFFFFFFFFFFFFFFFFFFFFFFFFFFFFF AND PUSH20 0xFFFFFFFFFFFFFFFFFFFFFFFFFFFFFFFFFFFFFFFF AND DUP4 PUSH1 0x0 ADD PUSH1 0x0 SWAP1 SLOAD SWAP1 PUSH2 0x100 EXP SWAP1 DIV PUSH20 0xFFFFFFFFFFFFFFFFFFFFFFFFFFFFFFFFFFFFFFFF AND PUSH20 0xFFFFFFFFFFFFFFFFFFFFFFFFFFFFFFFFFFFFFFFF AND PUSH32 0xE1EB86B493665260F23A08F75ECD7E5DE3B75EB90129DBC0741D062961D43095 DUP5 PUSH1 0x40 MLOAD PUSH2 0x18CB SWAP2 SWAP1 PUSH2 0x402B JUMP JUMPDEST PUSH1 0x40 MLOAD DUP1 SWAP2 SUB SWAP1 LOG3 PUSH2 0x1901 DUP7 DUP5 PUSH1 0x0 ADD PUSH1 0x0 SWAP1 SLOAD SWAP1 PUSH2 0x100 EXP SWAP1 DIV PUSH20 0xFFFFFFFFFFFFFFFFFFFFFFFFFFFFFFFFFFFFFFFF AND PUSH2 0x20F2 JUMP JUMPDEST POP POP POP PUSH2 0x1944 JUMP JUMPDEST PUSH1 0x3 DUP4 PUSH1 0x3 ADD PUSH1 0x0 PUSH2 0x100 EXP DUP2 SLOAD DUP2 PUSH1 0xFF MUL NOT AND SWAP1 DUP4 PUSH1 0x3 DUP2 GT ISZERO PUSH2 0x1931 JUMPI PUSH2 0x1930 PUSH2 0x2EE1 JUMP JUMPDEST JUMPDEST MUL OR SWAP1 SSTORE POP PUSH2 0x1940 DUP7 DUP4 PUSH2 0x2497 JUMP JUMPDEST POP POP POP JUMPDEST POP POP POP JUMP JUMPDEST PUSH1 0x0 DUP1 PUSH1 0x2 PUSH1 0x0 DUP5 PUSH20 0xFFFFFFFFFFFFFFFFFFFFFFFFFFFFFFFFFFFFFFFF AND PUSH20 0xFFFFFFFFFFFFFFFFFFFFFFFFFFFFFFFFFFFFFFFF AND DUP2 MSTORE PUSH1 0x20 ADD SWAP1 DUP2 MSTORE PUSH1 0x20 ADD PUSH1 0x0 KECCAK256 SLOAD SWAP1 POP PUSH1 0x0 DUP1 SHL DUP2 SUB PUSH2 0x19A7 JUMPI PUSH1 0x0 DUP1 PUSH1 0x0 SHL SWAP2 POP SWAP2 POP PUSH2 0x19CE JUMP JUMPDEST PUSH1 0x1 PUSH1 0x0 DUP3 DUP2 MSTORE PUSH1 0x20 ADD SWAP1 DUP2 MSTORE PUSH1 0x20 ADD PUSH1 0x0 KECCAK256 PUSH1 0x3 ADD PUSH1 0x0 SWAP1 SLOAD SWAP1 PUSH2 0x100 EXP SWAP1 DIV PUSH1 0xFF AND SWAP2 POP JUMPDEST SWAP2 POP SWAP2 JUMP JUMPDEST PUSH1 0x0 PUSH20 0xFFFFFFFFFFFFFFFFFFFFFFFFFFFFFFFFFFFFFFFF AND DUP5 PUSH20 0xFFFFFFFFFFFFFFFFFFFFFFFFFFFFFFFFFFFFFFFF AND SUB PUSH2 0x1A42 JUMPI PUSH1 0x40 MLOAD PUSH32 0x8C379A000000000000000000000000000000000000000000000000000000000 DUP2 MSTORE PUSH1 0x4 ADD PUSH2 0x1A39 SWAP1 PUSH2 0x40A5 JUMP JUMPDEST PUSH1 0x40 MLOAD DUP1 SWAP2 SUB SWAP1 REVERT JUMPDEST CALLER PUSH20 0xFFFFFFFFFFFFFFFFFFFFFFFFFFFFFFFFFFFFFFFF AND DUP5 PUSH20 0xFFFFFFFFFFFFFFFFFFFFFFFFFFFFFFFFFFFFFFFF AND SUB PUSH2 0x1AB0 JUMPI PUSH1 0x40 MLOAD PUSH32 0x8C379A000000000000000000000000000000000000000000000000000000000 DUP2 MSTORE PUSH1 0x4 ADD PUSH2 0x1AA7 SWAP1 PUSH2 0x4111 JUMP JUMPDEST PUSH1 0x40 MLOAD DUP1 SWAP2 SUB SWAP1 REVERT JUMPDEST PUSH1 0x1 DUP4 PUSH1 0xFF AND LT ISZERO DUP1 ISZERO PUSH2 0x1AC8 JUMPI POP PUSH1 0xA DUP4 PUSH1 0xFF AND GT ISZERO JUMPDEST PUSH2 0x1B07 JUMPI PUSH1 0x40 MLOAD PUSH32 0x8C379A000000000000000000000000000000000000000000000000000000000 DUP2 MSTORE PUSH1 0x4 ADD PUSH2 0x1AFE SWAP1 PUSH2 0x417D JUMP JUMPDEST PUSH1 0x40 MLOAD DUP1 SWAP2 SUB SWAP1 REVERT JUMPDEST PUSH1 0x0 DUP3 GT PUSH2 0x1B4A JUMPI PUSH1 0x40 MLOAD PUSH32 0x8C379A000000000000000000000000000000000000000000000000000000000 DUP2 MSTORE PUSH1 0x4 ADD PUSH2 0x1B41 SWAP1 PUSH2 0x41E9 JUMP JUMPDEST PUSH1 0x40 MLOAD DUP1 SWAP2 SUB SWAP1 REVERT JUMPDEST PUSH1 0x0 DUP2 GT ISZERO PUSH2 0x1C75 JUMPI PUSH20 0x28BEC7E30E6FAEE657A03E19BF1128AAD7632A00 PUSH20 0xFFFFFFFFFFFFFFFFFFFFFFFFFFFFFFFFFFFFFFFF AND PUSH4 0x23B872DD CALLER ADDRESS DUP5 PUSH1 0x40 MLOAD DUP5 PUSH4 0xFFFFFFFF AND PUSH1 0xE0 SHL DUP2 MSTORE PUSH1 0x4 ADD PUSH2 0x1BA4 SWAP4 SWAP3 SWAP2 SWAP1 PUSH2 0x3CEC JUMP JUMPDEST PUSH1 0x20 PUSH1 0x40 MLOAD DUP1 DUP4 SUB DUP2 PUSH1 0x0 DUP8 GAS CALL ISZERO DUP1 ISZERO PUSH2 0x1BC3 JUMPI RETURNDATASIZE PUSH1 0x0 DUP1 RETURNDATACOPY RETURNDATASIZE PUSH1 0x0 REVERT JUMPDEST POP POP POP POP PUSH1 0x40 MLOAD RETURNDATASIZE PUSH1 0x1F NOT PUSH1 0x1F DUP3 ADD AND DUP3 ADD DUP1 PUSH1 0x40 MSTORE POP DUP2 ADD SWAP1 PUSH2 0x1BE7 SWAP2 SWAP1 PUSH2 0x3D4F JUMP JUMPDEST PUSH2 0x1C26 JUMPI PUSH1 0x40 MLOAD PUSH32 0x8C379A000000000000000000000000000000000000000000000000000000000 DUP2 MSTORE PUSH1 0x4 ADD PUSH2 0x1C1D SWAP1 PUSH2 0x3DC8 JUMP JUMPDEST PUSH1 0x40 MLOAD DUP1 SWAP2 SUB SWAP1 REVERT JUMPDEST CALLER PUSH20 0xFFFFFFFFFFFFFFFFFFFFFFFFFFFFFFFFFFFFFFFF AND PUSH32 0x543BA50A5EEC5E6178218E364B1D0F396157B3C8FA278522C2CB7FD99407D474 DUP3 PUSH1 0x40 MLOAD PUSH2 0x1C6C SWAP2 SWAP1 PUSH2 0x2BFF JUMP JUMPDEST PUSH1 0x40 MLOAD DUP1 SWAP2 SUB SWAP1 LOG2 JUMPDEST PUSH1 0x40 MLOAD DUP1 PUSH1 0xC0 ADD PUSH1 0x40 MSTORE DUP1 DUP6 PUSH20 0xFFFFFFFFFFFFFFFFFFFFFFFFFFFFFFFFFFFFFFFF AND DUP2 MSTORE PUSH1 0x20 ADD DUP5 PUSH1 0xFF AND DUP2 MSTORE PUSH1 0x20 ADD DUP4 DUP2 MSTORE PUSH1 0x20 ADD DUP3 DUP2 MSTORE PUSH1 0x20 ADD PUSH1 0x1 ISZERO ISZERO DUP2 MSTORE PUSH1 0x20 ADD PUSH1 0x0 DUP2 MSTORE POP PUSH1 0x0 DUP1 CALLER PUSH20 0xFFFFFFFFFFFFFFFFFFFFFFFFFFFFFFFFFFFFFFFF AND PUSH20 0xFFFFFFFFFFFFFFFFFFFFFFFFFFFFFFFFFFFFFFFF AND DUP2 MSTORE PUSH1 0x20 ADD SWAP1 DUP2 MSTORE PUSH1 0x20 ADD PUSH1 0x0 KECCAK256 PUSH1 0x0 DUP3 ADD MLOAD DUP2 PUSH1 0x0 ADD PUSH1 0x0 PUSH2 0x100 EXP DUP2 SLOAD DUP2 PUSH20 0xFFFFFFFFFFFFFFFFFFFFFFFFFFFFFFFFFFFFFFFF MUL NOT AND SWAP1 DUP4 PUSH20 0xFFFFFFFFFFFFFFFFFFFFFFFFFFFFFFFFFFFFFFFF AND MUL OR SWAP1 SSTORE POP PUSH1 0x20 DUP3 ADD MLOAD DUP2 PUSH1 0x0 ADD PUSH1 0x14 PUSH2 0x100 EXP DUP2 SLOAD DUP2 PUSH1 0xFF MUL NOT AND SWAP1 DUP4 PUSH1 0xFF AND MUL OR SWAP1 SSTORE POP PUSH1 0x40 DUP3 ADD MLOAD DUP2 PUSH1 0x1 ADD SSTORE PUSH1 0x60 DUP3 ADD MLOAD DUP2 PUSH1 0x2 ADD SSTORE PUSH1 0x80 DUP3 ADD MLOAD DUP2 PUSH1 0x3 ADD PUSH1 0x0 PUSH2 0x100 EXP DUP2 SLOAD DUP2 PUSH1 0xFF MUL NOT AND SWAP1 DUP4 ISZERO ISZERO MUL OR SWAP1 SSTORE POP PUSH1 0xA0 DUP3 ADD MLOAD DUP2 PUSH1 0x4 ADD SSTORE SWAP1 POP POP DUP4 PUSH20 0xFFFFFFFFFFFFFFFFFFFFFFFFFFFFFFFFFFFFFFFF AND CALLER PUSH20 0xFFFFFFFFFFFFFFFFFFFFFFFFFFFFFFFFFFFFFFFF AND PUSH32 0xA632FF4F31EFE35C19D3DFE479239A82E9F487E3B437687615D4D25A0A71BA60 DUP6 DUP6 PUSH1 0x40 MLOAD PUSH2 0x1E05 SWAP3 SWAP2 SWAP1 PUSH2 0x4209 JUMP JUMPDEST PUSH1 0x40 MLOAD DUP1 SWAP2 SUB SWAP1 LOG3 POP POP POP POP JUMP JUMPDEST PUSH1 0x60 PUSH1 0x0 DUP3 PUSH1 0x40 MLOAD PUSH1 0x20 ADD PUSH2 0x1E28 SWAP2 SWAP1 PUSH2 0x427A JUMP JUMPDEST PUSH1 0x40 MLOAD PUSH1 0x20 DUP2 DUP4 SUB SUB DUP2 MSTORE SWAP1 PUSH1 0x40 MSTORE SWAP1 POP PUSH1 0x0 PUSH1 0x40 MLOAD DUP1 PUSH1 0x40 ADD PUSH1 0x40 MSTORE DUP1 PUSH1 0x10 DUP2 MSTORE PUSH1 0x20 ADD PUSH32 0x3031323334353637383961626364656600000000000000000000000000000000 DUP2 MSTORE POP SWAP1 POP PUSH1 0x0 PUSH1 0x2A PUSH8 0xFFFFFFFFFFFFFFFF DUP2 GT ISZERO PUSH2 0x1E90 JUMPI PUSH2 0x1E8F PUSH2 0x356A JUMP JUMPDEST JUMPDEST PUSH1 0x40 MLOAD SWAP1 DUP1 DUP3 MSTORE DUP1 PUSH1 0x1F ADD PUSH1 0x1F NOT AND PUSH1 0x20 ADD DUP3 ADD PUSH1 0x40 MSTORE DUP1 ISZERO PUSH2 0x1EC2 JUMPI DUP2 PUSH1 0x20 ADD PUSH1 0x1 DUP3 MUL DUP1 CALLDATASIZE DUP4 CALLDATACOPY DUP1 DUP3 ADD SWAP2 POP POP SWAP1 POP JUMPDEST POP SWAP1 POP PUSH32 0x3000000000000000000000000000000000000000000000000000000000000000 DUP2 PUSH1 0x0 DUP2 MLOAD DUP2 LT PUSH2 0x1EFA JUMPI PUSH2 0x1EF9 PUSH2 0x4295 JUMP JUMPDEST JUMPDEST PUSH1 0x20 ADD ADD SWAP1 PUSH31 0xFFFFFFFFFFFFFFFFFFFFFFFFFFFFFFFFFFFFFFFFFFFFFFFFFFFFFFFFFFFFFF NOT AND SWAP1 DUP2 PUSH1 0x0 BYTE SWAP1 MSTORE8 POP PUSH32 0x7800000000000000000000000000000000000000000000000000000000000000 DUP2 PUSH1 0x1 DUP2 MLOAD DUP2 LT PUSH2 0x1F5E JUMPI PUSH2 0x1F5D PUSH2 0x4295 JUMP JUMPDEST JUMPDEST PUSH1 0x20 ADD ADD SWAP1 PUSH31 0xFFFFFFFFFFFFFFFFFFFFFFFFFFFFFFFFFFFFFFFFFFFFFFFFFFFFFFFFFFFFFF NOT AND SWAP1 DUP2 PUSH1 0x0 BYTE SWAP1 MSTORE8 POP PUSH1 0x0 JUMPDEST PUSH1 0x14 DUP2 LT ISZERO PUSH2 0x20E6 JUMPI DUP3 PUSH1 0x4 DUP6 DUP4 DUP2 MLOAD DUP2 LT PUSH2 0x1FAF JUMPI PUSH2 0x1FAE PUSH2 0x4295 JUMP JUMPDEST JUMPDEST PUSH1 0x20 ADD ADD MLOAD PUSH1 0xF8 SHR PUSH1 0xF8 SHL PUSH1 0xF8 SHR PUSH1 0xFF AND SWAP1 SHR PUSH1 0xFF AND DUP2 MLOAD DUP2 LT PUSH2 0x1FD6 JUMPI PUSH2 0x1FD5 PUSH2 0x4295 JUMP JUMPDEST JUMPDEST PUSH1 0x20 ADD ADD MLOAD PUSH1 0xF8 SHR PUSH1 0xF8 SHL DUP3 PUSH1 0x2 DUP4 PUSH2 0x1FEF SWAP2 SWAP1 PUSH2 0x42C4 JUMP JUMPDEST PUSH1 0x2 PUSH2 0x1FFB SWAP2 SWAP1 PUSH2 0x3DE8 JUMP JUMPDEST DUP2 MLOAD DUP2 LT PUSH2 0x200C JUMPI PUSH2 0x200B PUSH2 0x4295 JUMP JUMPDEST JUMPDEST PUSH1 0x20 ADD ADD SWAP1 PUSH31 0xFFFFFFFFFFFFFFFFFFFFFFFFFFFFFFFFFFFFFFFFFFFFFFFFFFFFFFFFFFFFFF NOT AND SWAP1 DUP2 PUSH1 0x0 BYTE SWAP1 MSTORE8 POP DUP3 PUSH1 0xF DUP6 DUP4 DUP2 MLOAD DUP2 LT PUSH2 0x2051 JUMPI PUSH2 0x2050 PUSH2 0x4295 JUMP JUMPDEST JUMPDEST PUSH1 0x20 ADD ADD MLOAD PUSH1 0xF8 SHR PUSH1 0xF8 SHL PUSH1 0xF8 SHR AND PUSH1 0xFF AND DUP2 MLOAD DUP2 LT PUSH2 0x2074 JUMPI PUSH2 0x2073 PUSH2 0x4295 JUMP JUMPDEST JUMPDEST PUSH1 0x20 ADD ADD MLOAD PUSH1 0xF8 SHR PUSH1 0xF8 SHL DUP3 PUSH1 0x2 DUP4 PUSH2 0x208D SWAP2 SWAP1 PUSH2 0x42C4 JUMP JUMPDEST PUSH1 0x3 PUSH2 0x2099 SWAP2 SWAP1 PUSH2 0x3DE8 JUMP JUMPDEST DUP2 MLOAD DUP2 LT PUSH2 0x20AA JUMPI PUSH2 0x20A9 PUSH2 0x4295 JUMP JUMPDEST JUMPDEST PUSH1 0x20 ADD ADD SWAP1 PUSH31 0xFFFFFFFFFFFFFFFFFFFFFFFFFFFFFFFFFFFFFFFFFFFFFFFFFFFFFFFFFFFFFF NOT AND SWAP1 DUP2 PUSH1 0x0 BYTE SWAP1 MSTORE8 POP DUP1 DUP1 PUSH1 0x1 ADD SWAP2 POP POP PUSH2 0x1F90 JUMP JUMPDEST POP DUP1 SWAP4 POP POP POP POP SWAP2 SWAP1 POP JUMP JUMPDEST PUSH1 0x1 PUSH1 0x0 DUP4 DUP2 MSTORE PUSH1 0x20 ADD SWAP1 DUP2 MSTORE PUSH1 0x20 ADD PUSH1 0x0 KECCAK256 PUSH1 0x0 DUP1 DUP3 ADD PUSH1 0x0 PUSH2 0x100 EXP DUP2 SLOAD SWAP1 PUSH20 0xFFFFFFFFFFFFFFFFFFFFFFFFFFFFFFFFFFFFFFFF MUL NOT AND SWAP1 SSTORE PUSH1 0x1 DUP3 ADD PUSH1 0x0 PUSH2 0x100 EXP DUP2 SLOAD SWAP1 PUSH20 0xFFFFFFFFFFFFFFFFFFFFFFFFFFFFFFFFFFFFFFFF MUL NOT AND SWAP1 SSTORE PUSH1 0x2 DUP3 ADD PUSH1 0x0 PUSH2 0x2164 SWAP2 SWAP1 PUSH2 0x2B89 JUMP JUMPDEST PUSH1 0x3 DUP3 ADD PUSH1 0x0 PUSH2 0x100 EXP DUP2 SLOAD SWAP1 PUSH1 0xFF MUL NOT AND SWAP1 SSTORE PUSH1 0x4 DUP3 ADD PUSH1 0x0 SWAP1 SSTORE POP POP PUSH1 0x2 PUSH1 0x0 DUP3 PUSH20 0xFFFFFFFFFFFFFFFFFFFFFFFFFFFFFFFFFFFFFFFF AND PUSH20 0xFFFFFFFFFFFFFFFFFFFFFFFFFFFFFFFFFFFFFFFF AND DUP2 MSTORE PUSH1 0x20 ADD SWAP1 DUP2 MSTORE PUSH1 0x20 ADD PUSH1 0x0 KECCAK256 PUSH1 0x0 SWAP1 SSTORE POP POP JUMP JUMPDEST PUSH1 0x0 DUP1 PUSH1 0x0 DUP8 PUSH20 0xFFFFFFFFFFFFFFFFFFFFFFFFFFFFFFFFFFFFFFFF AND PUSH20 0xFFFFFFFFFFFFFFFFFFFFFFFFFFFFFFFFFFFFFFFF AND DUP2 MSTORE PUSH1 0x20 ADD SWAP1 DUP2 MSTORE PUSH1 0x20 ADD PUSH1 0x0 KECCAK256 SWAP1 POP PUSH1 0x0 PUSH20 0x28BEC7E30E6FAEE657A03E19BF1128AAD7632A00 PUSH20 0xFFFFFFFFFFFFFFFFFFFFFFFFFFFFFFFFFFFFFFFF AND DUP6 PUSH20 0xFFFFFFFFFFFFFFFFFFFFFFFFFFFFFFFFFFFFFFFF AND EQ PUSH2 0x228F JUMPI PUSH1 0x40 MLOAD DUP1 PUSH1 0x40 ADD PUSH1 0x40 MSTORE DUP1 PUSH1 0x4 DUP2 MSTORE PUSH1 0x20 ADD PUSH32 0x53454C4C00000000000000000000000000000000000000000000000000000000 DUP2 MSTORE POP PUSH2 0x22C6 JUMP JUMPDEST PUSH1 0x40 MLOAD DUP1 PUSH1 0x40 ADD PUSH1 0x40 MSTORE DUP1 PUSH1 0x3 DUP2 MSTORE PUSH1 0x20 ADD PUSH32 0x4255590000000000000000000000000000000000000000000000000000000000 DUP2 MSTORE POP JUMPDEST SWAP1 POP PUSH1 0x0 PUSH2 0x22D3 DUP8 PUSH2 0x1E13 JUMP JUMPDEST DUP3 PUSH2 0x22EB PUSH3 0xF4240 DUP9 PUSH2 0x22E6 SWAP2 SWAP1 PUSH2 0x4335 JUMP JUMPDEST PUSH2 0x29D3 JUMP JUMPDEST PUSH2 0x22FF DUP8 TIMESTAMP PUSH2 0x22FA SWAP2 SWAP1 PUSH2 0x3A42 JUMP JUMPDEST PUSH2 0x29D3 JUMP JUMPDEST PUSH2 0x231C DUP8 PUSH1 0x0 ADD PUSH1 0x14 SWAP1 SLOAD SWAP1 PUSH2 0x100 EXP SWAP1 DIV PUSH1 0xFF AND PUSH1 0xFF AND PUSH2 0x29D3 JUMP JUMPDEST PUSH2 0x2337 PUSH3 0xF4240 DUP10 PUSH1 0x1 ADD SLOAD PUSH2 0x2332 SWAP2 SWAP1 PUSH2 0x4335 JUMP JUMPDEST PUSH2 0x29D3 JUMP JUMPDEST PUSH2 0x2352 PUSH3 0xF4240 DUP11 PUSH1 0x2 ADD SLOAD PUSH2 0x234D SWAP2 SWAP1 PUSH2 0x4335 JUMP JUMPDEST PUSH2 0x29D3 JUMP JUMPDEST PUSH1 0x40 MLOAD PUSH1 0x20 ADD PUSH2 0x2368 SWAP8 SWAP7 SWAP6 SWAP5 SWAP4 SWAP3 SWAP2 SWAP1 PUSH2 0x47DA JUMP JUMPDEST PUSH1 0x40 MLOAD PUSH1 0x20 DUP2 DUP4 SUB SUB DUP2 MSTORE SWAP1 PUSH1 0x40 MSTORE SWAP1 POP PUSH1 0x0 DUP2 PUSH1 0x40 MLOAD PUSH1 0x20 ADD PUSH2 0x238C SWAP2 SWAP1 PUSH2 0x3007 JUMP JUMPDEST PUSH1 0x40 MLOAD PUSH1 0x20 DUP2 DUP4 SUB SUB DUP2 MSTORE SWAP1 PUSH1 0x40 MSTORE SWAP1 POP PUSH20 0x37BB9C718F3F7FE5ECBDB0B600D607B52706776 PUSH20 0xFFFFFFFFFFFFFFFFFFFFFFFFFFFFFFFFFFFFFFFF AND PUSH4 0x8B816804 PUSH1 0x2 DUP4 ADDRESS PUSH4 0xE9E42596 PUSH1 0xE0 SHL PUSH1 0x40 MLOAD DUP6 PUSH4 0xFFFFFFFF AND PUSH1 0xE0 SHL DUP2 MSTORE PUSH1 0x4 ADD PUSH2 0x23F8 SWAP5 SWAP4 SWAP3 SWAP2 SWAP1 PUSH2 0x34DC JUMP JUMPDEST PUSH1 0x20 PUSH1 0x40 MLOAD DUP1 DUP4 SUB DUP2 PUSH1 0x0 DUP8 GAS CALL ISZERO DUP1 ISZERO PUSH2 0x2417 JUMPI RETURNDATASIZE PUSH1 0x0 DUP1 RETURNDATACOPY RETURNDATASIZE PUSH1 0x0 REVERT JUMPDEST POP POP POP POP PUSH1 0x40 MLOAD RETURNDATASIZE PUSH1 0x1F NOT PUSH1 0x1F DUP3 ADD AND DUP3 ADD DUP1 PUSH1 0x40 MSTORE POP DUP2 ADD SWAP1 PUSH2 0x243B SWAP2 SWAP1 PUSH2 0x353D JUMP JUMPDEST POP DUP9 PUSH20 0xFFFFFFFFFFFFFFFFFFFFFFFFFFFFFFFFFFFFFFFF AND DUP11 PUSH32 0xD3E7A0095B210E7EF5B3879CF7AEA23DB5EC3184775333B16BCC708A15ACE725 DUP5 PUSH1 0x40 MLOAD PUSH2 0x2483 SWAP2 SWAP1 PUSH2 0x3007 JUMP JUMPDEST PUSH1 0x40 MLOAD DUP1 SWAP2 SUB SWAP1 LOG3 POP POP POP POP POP POP POP POP POP POP JUMP JUMPDEST PUSH1 0x0 PUSH1 0x1 PUSH1 0x0 DUP5 DUP2 MSTORE PUSH1 0x20 ADD SWAP1 DUP2 MSTORE PUSH1 0x20 ADD PUSH1 0x0 KECCAK256 SWAP1 POP PUSH1 0x0 DUP1 PUSH1 0x0 DUP4 PUSH1 0x0 ADD PUSH1 0x0 SWAP1 SLOAD SWAP1 PUSH2 0x100 EXP SWAP1 DIV PUSH20 0xFFFFFFFFFFFFFFFFFFFFFFFFFFFFFFFFFFFFFFFF AND PUSH20 0xFFFFFFFFFFFFFFFFFFFFFFFFFFFFFFFFFFFFFFFF AND PUSH20 0xFFFFFFFFFFFFFFFFFFFFFFFFFFFFFFFFFFFFFFFF AND DUP2 MSTORE PUSH1 0x20 ADD SWAP1 DUP2 MSTORE PUSH1 0x20 ADD PUSH1 0x0 KECCAK256 SWAP1 POP PUSH1 0x0 DUP2 PUSH1 0x2 ADD SLOAD DUP3 PUSH1 0x1 ADD SLOAD LT PUSH2 0x252F JUMPI DUP2 PUSH1 0x2 ADD SLOAD PUSH2 0x2535 JUMP JUMPDEST DUP2 PUSH1 0x1 ADD SLOAD JUMPDEST SWAP1 POP PUSH1 0x0 PUSH1 0x64 DUP6 PUSH1 0xFF AND DUP4 PUSH2 0x254A SWAP2 SWAP1 PUSH2 0x42C4 JUMP JUMPDEST PUSH2 0x2554 SWAP2 SWAP1 PUSH2 0x4335 JUMP JUMPDEST SWAP1 POP PUSH1 0x0 DUP2 EQ DUP1 PUSH2 0x2568 JUMPI POP DUP1 DUP4 PUSH1 0x2 ADD SLOAD LT JUMPDEST ISZERO PUSH2 0x2651 JUMPI DUP4 PUSH1 0x1 ADD PUSH1 0x0 SWAP1 SLOAD SWAP1 PUSH2 0x100 EXP SWAP1 DIV PUSH20 0xFFFFFFFFFFFFFFFFFFFFFFFFFFFFFFFFFFFFFFFF AND PUSH20 0xFFFFFFFFFFFFFFFFFFFFFFFFFFFFFFFFFFFFFFFF AND DUP5 PUSH1 0x0 ADD PUSH1 0x0 SWAP1 SLOAD SWAP1 PUSH2 0x100 EXP SWAP1 DIV PUSH20 0xFFFFFFFFFFFFFFFFFFFFFFFFFFFFFFFFFFFFFFFF AND PUSH20 0xFFFFFFFFFFFFFFFFFFFFFFFFFFFFFFFFFFFFFFFF AND PUSH32 0xE1EB86B493665260F23A08F75ECD7E5DE3B75EB90129DBC0741D062961D43095 DUP8 PUSH1 0x40 MLOAD PUSH2 0x2612 SWAP2 SWAP1 PUSH2 0x49A3 JUMP JUMPDEST PUSH1 0x40 MLOAD DUP1 SWAP2 SUB SWAP1 LOG3 PUSH2 0x2648 DUP7 DUP6 PUSH1 0x0 ADD PUSH1 0x0 SWAP1 SLOAD SWAP1 PUSH2 0x100 EXP SWAP1 DIV PUSH20 0xFFFFFFFFFFFFFFFFFFFFFFFFFFFFFFFFFFFFFFFF AND PUSH2 0x20F2 JUMP JUMPDEST POP POP POP POP PUSH2 0x29CF JUMP JUMPDEST DUP1 DUP4 PUSH1 0x2 ADD PUSH1 0x0 DUP3 DUP3 SLOAD PUSH2 0x2665 SWAP2 SWAP1 PUSH2 0x3A42 JUMP JUMPDEST SWAP3 POP POP DUP2 SWAP1 SSTORE POP PUSH20 0x28BEC7E30E6FAEE657A03E19BF1128AAD7632A00 PUSH20 0xFFFFFFFFFFFFFFFFFFFFFFFFFFFFFFFFFFFFFFFF AND PUSH4 0x95EA7B3 PUSH20 0x1582F6F3D26658F7208A799BE46E34B1F366CE44 DUP4 PUSH1 0x40 MLOAD DUP4 PUSH4 0xFFFFFFFF AND PUSH1 0xE0 SHL DUP2 MSTORE PUSH1 0x4 ADD PUSH2 0x26CF SWAP3 SWAP2 SWAP1 PUSH2 0x3E88 JUMP JUMPDEST PUSH1 0x20 PUSH1 0x40 MLOAD DUP1 DUP4 SUB DUP2 PUSH1 0x0 DUP8 GAS CALL ISZERO DUP1 ISZERO PUSH2 0x26EE JUMPI RETURNDATASIZE PUSH1 0x0 DUP1 RETURNDATACOPY RETURNDATASIZE PUSH1 0x0 REVERT JUMPDEST POP POP POP POP PUSH1 0x40 MLOAD RETURNDATASIZE PUSH1 0x1F NOT PUSH1 0x1F DUP3 ADD AND DUP3 ADD DUP1 PUSH1 0x40 MSTORE POP DUP2 ADD SWAP1 PUSH2 0x2712 SWAP2 SWAP1 PUSH2 0x3D4F JUMP JUMPDEST PUSH2 0x2751 JUMPI PUSH1 0x40 MLOAD PUSH32 0x8C379A000000000000000000000000000000000000000000000000000000000 DUP2 MSTORE PUSH1 0x4 ADD PUSH2 0x2748 SWAP1 PUSH2 0x4A1D JUMP JUMPDEST PUSH1 0x40 MLOAD DUP1 SWAP2 SUB SWAP1 REVERT JUMPDEST PUSH1 0x0 PUSH1 0x40 MLOAD DUP1 PUSH1 0xE0 ADD PUSH1 0x40 MSTORE DUP1 PUSH20 0x28BEC7E30E6FAEE657A03E19BF1128AAD7632A00 PUSH20 0xFFFFFFFFFFFFFFFFFFFFFFFFFFFFFFFFFFFFFFFF AND DUP2 MSTORE PUSH1 0x20 ADD PUSH20 0x46EDE9564A72571DF6F5E44D0405360C0F4DCAB PUSH20 0xFFFFFFFFFFFFFFFFFFFFFFFFFFFFFFFFFFFFFFFF AND DUP2 MSTORE PUSH1 0x20 ADD DUP7 PUSH1 0x0 ADD PUSH1 0x0 SWAP1 SLOAD SWAP1 PUSH2 0x100 EXP SWAP1 DIV PUSH20 0xFFFFFFFFFFFFFFFFFFFFFFFFFFFFFFFFFFFFFFFF AND PUSH20 0xFFFFFFFFFFFFFFFFFFFFFFFFFFFFFFFFFFFFFFFF AND DUP2 MSTORE PUSH1 0x20 ADD PUSH1 0x3C TIMESTAMP PUSH2 0x280B SWAP2 SWAP1 PUSH2 0x3DE8 JUMP JUMPDEST DUP2 MSTORE PUSH1 0x20 ADD DUP4 DUP2 MSTORE PUSH1 0x20 ADD PUSH1 0x0 DUP2 MSTORE PUSH1 0x20 ADD PUSH1 0x0 PUSH20 0xFFFFFFFFFFFFFFFFFFFFFFFFFFFFFFFFFFFFFFFF AND DUP2 MSTORE POP SWAP1 POP PUSH1 0x0 PUSH20 0x1582F6F3D26658F7208A799BE46E34B1F366CE44 PUSH20 0xFFFFFFFFFFFFFFFFFFFFFFFFFFFFFFFFFFFFFFFF AND PUSH4 0xBC651188 DUP4 PUSH1 0x40 MLOAD DUP3 PUSH4 0xFFFFFFFF AND PUSH1 0xE0 SHL DUP2 MSTORE PUSH1 0x4 ADD PUSH2 0x2889 SWAP2 SWAP1 PUSH2 0x4ADA JUMP JUMPDEST PUSH1 0x20 PUSH1 0x40 MLOAD DUP1 DUP4 SUB DUP2 PUSH1 0x0 DUP8 GAS CALL ISZERO DUP1 ISZERO PUSH2 0x28A8 JUMPI RETURNDATASIZE PUSH1 0x0 DUP1 RETURNDATACOPY RETURNDATASIZE PUSH1 0x0 REVERT JUMPDEST POP POP POP POP PUSH1 0x40 MLOAD RETURNDATASIZE PUSH1 0x1F NOT PUSH1 0x1F DUP3 ADD AND DUP3 ADD DUP1 PUSH1 0x40 MSTORE POP DUP2 ADD SWAP1 PUSH2 0x28CC SWAP2 SWAP1 PUSH2 0x4B0A JUMP JUMPDEST SWAP1 POP DUP1 DUP6 PUSH1 0x4 ADD PUSH1 0x0 DUP3 DUP3 SLOAD PUSH2 0x28E2 SWAP2 SWAP1 PUSH2 0x3DE8 JUMP JUMPDEST SWAP3 POP POP DUP2 SWAP1 SSTORE POP DUP6 PUSH1 0x1 ADD PUSH1 0x0 SWAP1 SLOAD SWAP1 PUSH2 0x100 EXP SWAP1 DIV PUSH20 0xFFFFFFFFFFFFFFFFFFFFFFFFFFFFFFFFFFFFFFFF AND PUSH20 0xFFFFFFFFFFFFFFFFFFFFFFFFFFFFFFFFFFFFFFFF AND DUP7 PUSH1 0x0 ADD PUSH1 0x0 SWAP1 SLOAD SWAP1 PUSH2 0x100 EXP SWAP1 DIV PUSH20 0xFFFFFFFFFFFFFFFFFFFFFFFFFFFFFFFFFFFFFFFF AND PUSH20 0xFFFFFFFFFFFFFFFFFFFFFFFFFFFFFFFFFFFFFFFF AND PUSH32 0x3F88BDD6633CD54B71B7CAE22EAE61C3B2C6560FC2F44D5B631985520F9AD996 DUP6 DUP5 DUP12 PUSH1 0x40 MLOAD PUSH2 0x2992 SWAP4 SWAP3 SWAP2 SWAP1 PUSH2 0x4B37 JUMP JUMPDEST PUSH1 0x40 MLOAD DUP1 SWAP2 SUB SWAP1 LOG3 PUSH2 0x29C8 DUP9 DUP8 PUSH1 0x0 ADD PUSH1 0x0 SWAP1 SLOAD SWAP1 PUSH2 0x100 EXP SWAP1 DIV PUSH20 0xFFFFFFFFFFFFFFFFFFFFFFFFFFFFFFFFFFFFFFFF AND PUSH2 0x20F2 JUMP JUMPDEST POP POP POP POP POP POP JUMPDEST POP POP JUMP JUMPDEST PUSH1 0x60 PUSH1 0x0 DUP3 SUB PUSH2 0x2A1A JUMPI PUSH1 0x40 MLOAD DUP1 PUSH1 0x40 ADD PUSH1 0x40 MSTORE DUP1 PUSH1 0x1 DUP2 MSTORE PUSH1 0x20 ADD PUSH32 0x3000000000000000000000000000000000000000000000000000000000000000 DUP2 MSTORE POP SWAP1 POP PUSH2 0x2B33 JUMP JUMPDEST PUSH1 0x0 DUP3 SWAP1 POP PUSH1 0x0 JUMPDEST PUSH1 0x0 DUP3 EQ PUSH2 0x2A4C JUMPI DUP1 DUP1 PUSH2 0x2A35 SWAP1 PUSH2 0x4B6E JUMP JUMPDEST SWAP2 POP POP PUSH1 0xA DUP3 PUSH2 0x2A45 SWAP2 SWAP1 PUSH2 0x4335 JUMP JUMPDEST SWAP2 POP PUSH2 0x2A22 JUMP JUMPDEST PUSH1 0x0 DUP2 PUSH8 0xFFFFFFFFFFFFFFFF DUP2 GT ISZERO PUSH2 0x2A68 JUMPI PUSH2 0x2A67 PUSH2 0x356A JUMP JUMPDEST JUMPDEST PUSH1 0x40 MLOAD SWAP1 DUP1 DUP3 MSTORE DUP1 PUSH1 0x1F ADD PUSH1 0x1F NOT AND PUSH1 0x20 ADD DUP3 ADD PUSH1 0x40 MSTORE DUP1 ISZERO PUSH2 0x2A9A JUMPI DUP2 PUSH1 0x20 ADD PUSH1 0x1 DUP3 MUL DUP1 CALLDATASIZE DUP4 CALLDATACOPY DUP1 DUP3 ADD SWAP2 POP POP SWAP1 POP JUMPDEST POP SWAP1 POP PUSH1 0x0 DUP3 SWAP1 POP JUMPDEST PUSH1 0x0 DUP7 EQ PUSH2 0x2B2B JUMPI DUP1 DUP1 PUSH2 0x2AB6 SWAP1 PUSH2 0x4BB6 JUMP JUMPDEST SWAP2 POP POP PUSH1 0xA DUP7 PUSH2 0x2AC6 SWAP2 SWAP1 PUSH2 0x4BDF JUMP JUMPDEST PUSH1 0x30 PUSH2 0x2AD2 SWAP2 SWAP1 PUSH2 0x3DE8 JUMP JUMPDEST PUSH1 0xF8 SHL DUP3 DUP3 DUP2 MLOAD DUP2 LT PUSH2 0x2AE8 JUMPI PUSH2 0x2AE7 PUSH2 0x4295 JUMP JUMPDEST JUMPDEST PUSH1 0x20 ADD ADD SWAP1 PUSH31 0xFFFFFFFFFFFFFFFFFFFFFFFFFFFFFFFFFFFFFFFFFFFFFFFFFFFFFFFFFFFFFF NOT AND SWAP1 DUP2 PUSH1 0x0 BYTE SWAP1 MSTORE8 POP PUSH1 0xA DUP7 PUSH2 0x2B24 SWAP2 SWAP1 PUSH2 0x4335 JUMP JUMPDEST SWAP6 POP PUSH2 0x2AA3 JUMP JUMPDEST DUP2 SWAP5 POP POP POP POP POP JUMPDEST SWAP2 SWAP1 POP JUMP JUMPDEST PUSH1 0x40 MLOAD DUP1 PUSH1 0xC0 ADD PUSH1 0x40 MSTORE DUP1 PUSH1 0x0 PUSH20 0xFFFFFFFFFFFFFFFFFFFFFFFFFFFFFFFFFFFFFFFF AND DUP2 MSTORE PUSH1 0x20 ADD PUSH1 0x0 PUSH1 0xFF AND DUP2 MSTORE PUSH1 0x20 ADD PUSH1 0x0 DUP2 MSTORE PUSH1 0x20 ADD PUSH1 0x0 DUP2 MSTORE PUSH1 0x20 ADD PUSH1 0x0 ISZERO ISZERO DUP2 MSTORE PUSH1 0x20 ADD PUSH1 0x0 DUP2 MSTORE POP SWAP1 JUMP JUMPDEST POP DUP1 SLOAD PUSH2 0x2B95 SWAP1 PUSH2 0x32CC JUMP JUMPDEST PUSH1 0x0 DUP3 SSTORE DUP1 PUSH1 0x1F LT PUSH2 0x2BA7 JUMPI POP PUSH2 0x2BC6 JUMP JUMPDEST PUSH1 0x1F ADD PUSH1 0x20 SWAP1 DIV SWAP1 PUSH1 0x0 MSTORE PUSH1 0x20 PUSH1 0x0 KECCAK256 SWAP1 DUP2 ADD SWAP1 PUSH2 0x2BC5 SWAP2 SWAP1 PUSH2 0x2BC9 JUMP JUMPDEST JUMPDEST POP JUMP JUMPDEST JUMPDEST DUP1 DUP3 GT ISZERO PUSH2 0x2BE2 JUMPI PUSH1 0x0 DUP2 PUSH1 0x0 SWAP1 SSTORE POP PUSH1 0x1 ADD PUSH2 0x2BCA JUMP JUMPDEST POP SWAP1 JUMP JUMPDEST PUSH1 0x0 DUP2 SWAP1 POP SWAP2 SWAP1 POP JUMP JUMPDEST PUSH2 0x2BF9 DUP2 PUSH2 0x2BE6 JUMP JUMPDEST DUP3 MSTORE POP POP JUMP JUMPDEST PUSH1 0x0 PUSH1 0x20 DUP3 ADD SWAP1 POP PUSH2 0x2C14 PUSH1 0x0 DUP4 ADD DUP5 PUSH2 0x2BF0 JUMP JUMPDEST SWAP3 SWAP2 POP POP JUMP JUMPDEST PUSH1 0x0 DUP1 REVERT JUMPDEST PUSH1 0x0 DUP1 REVERT JUMPDEST PUSH1 0x0 PUSH20 0xFFFFFFFFFFFFFFFFFFFFFFFFFFFFFFFFFFFFFFFF DUP3 AND SWAP1 POP SWAP2 SWAP1 POP JUMP JUMPDEST PUSH1 0x0 PUSH2 0x2C4F DUP3 PUSH2 0x2C24 JUMP JUMPDEST SWAP1 POP SWAP2 SWAP1 POP JUMP JUMPDEST PUSH2 0x2C5F DUP2 PUSH2 0x2C44 JUMP JUMPDEST DUP2 EQ PUSH2 0x2C6A JUMPI PUSH1 0x0 DUP1 REVERT JUMPDEST POP JUMP JUMPDEST PUSH1 0x0 DUP2 CALLDATALOAD SWAP1 POP PUSH2 0x2C7C DUP2 PUSH2 0x2C56 JUMP JUMPDEST SWAP3 SWAP2 POP POP JUMP JUMPDEST PUSH1 0x0 PUSH1 0x20 DUP3 DUP5 SUB SLT ISZERO PUSH2 0x2C98 JUMPI PUSH2 0x2C97 PUSH2 0x2C1A JUMP JUMPDEST JUMPDEST PUSH1 0x0 PUSH2 0x2CA6 DUP5 DUP3 DUP6 ADD PUSH2 0x2C6D JUMP JUMPDEST SWAP2 POP POP SWAP3 SWAP2 POP POP JUMP JUMPDEST PUSH2 0x2CB8 DUP2 PUSH2 0x2C44 JUMP JUMPDEST DUP3 MSTORE POP POP JUMP JUMPDEST PUSH1 0x0 PUSH1 0xFF DUP3 AND SWAP1 POP SWAP2 SWAP1 POP JUMP JUMPDEST PUSH2 0x2CD4 DUP2 PUSH2 0x2CBE JUMP JUMPDEST DUP3 MSTORE POP POP JUMP JUMPDEST PUSH2 0x2CE3 DUP2 PUSH2 0x2BE6 JUMP JUMPDEST DUP3 MSTORE POP POP JUMP JUMPDEST PUSH1 0x0 DUP2 ISZERO ISZERO SWAP1 POP SWAP2 SWAP1 POP JUMP JUMPDEST PUSH2 0x2CFE DUP2 PUSH2 0x2CE9 JUMP JUMPDEST DUP3 MSTORE POP POP JUMP JUMPDEST PUSH1 0xC0 DUP3 ADD PUSH1 0x0 DUP3 ADD MLOAD PUSH2 0x2D1A PUSH1 0x0 DUP6 ADD DUP3 PUSH2 0x2CAF JUMP JUMPDEST POP PUSH1 0x20 DUP3 ADD MLOAD PUSH2 0x2D2D PUSH1 0x20 DUP6 ADD DUP3 PUSH2 0x2CCB JUMP JUMPDEST POP PUSH1 0x40 DUP3 ADD MLOAD PUSH2 0x2D40 PUSH1 0x40 DUP6 ADD DUP3 PUSH2 0x2CDA JUMP JUMPDEST POP PUSH1 0x60 DUP3 ADD MLOAD PUSH2 0x2D53 PUSH1 0x60 DUP6 ADD DUP3 PUSH2 0x2CDA JUMP JUMPDEST POP PUSH1 0x80 DUP3 ADD MLOAD PUSH2 0x2D66 PUSH1 0x80 DUP6 ADD DUP3 PUSH2 0x2CF5 JUMP JUMPDEST POP PUSH1 0xA0 DUP3 ADD MLOAD PUSH2 0x2D79 PUSH1 0xA0 DUP6 ADD DUP3 PUSH2 0x2CDA JUMP JUMPDEST POP POP POP POP JUMP JUMPDEST PUSH1 0x0 PUSH1 0xC0 DUP3 ADD SWAP1 POP PUSH2 0x2D94 PUSH1 0x0 DUP4 ADD DUP5 PUSH2 0x2D04 JUMP JUMPDEST SWAP3 SWAP2 POP POP JUMP JUMPDEST PUSH2 0x2DA3 DUP2 PUSH2 0x2C44 JUMP JUMPDEST DUP3 MSTORE POP POP JUMP JUMPDEST PUSH1 0x0 PUSH1 0x20 DUP3 ADD SWAP1 POP PUSH2 0x2DBE PUSH1 0x0 DUP4 ADD DUP5 PUSH2 0x2D9A JUMP JUMPDEST SWAP3 SWAP2 POP POP JUMP JUMPDEST PUSH2 0x2DCD DUP2 PUSH2 0x2CBE JUMP JUMPDEST DUP3 MSTORE POP POP JUMP JUMPDEST PUSH1 0x0 PUSH1 0x20 DUP3 ADD SWAP1 POP PUSH2 0x2DE8 PUSH1 0x0 DUP4 ADD DUP5 PUSH2 0x2DC4 JUMP JUMPDEST SWAP3 SWAP2 POP POP JUMP JUMPDEST PUSH1 0x0 DUP2 SWAP1 POP SWAP2 SWAP1 POP JUMP JUMPDEST PUSH2 0x2E01 DUP2 PUSH2 0x2DEE JUMP JUMPDEST DUP2 EQ PUSH2 0x2E0C JUMPI PUSH1 0x0 DUP1 REVERT JUMPDEST POP JUMP JUMPDEST PUSH1 0x0 DUP2 CALLDATALOAD SWAP1 POP PUSH2 0x2E1E DUP2 PUSH2 0x2DF8 JUMP JUMPDEST SWAP3 SWAP2 POP POP JUMP JUMPDEST PUSH1 0x0 PUSH1 0x20 DUP3 DUP5 SUB SLT ISZERO PUSH2 0x2E3A JUMPI PUSH2 0x2E39 PUSH2 0x2C1A JUMP JUMPDEST JUMPDEST PUSH1 0x0 PUSH2 0x2E48 DUP5 DUP3 DUP6 ADD PUSH2 0x2E0F JUMP JUMPDEST SWAP2 POP POP SWAP3 SWAP2 POP POP JUMP JUMPDEST PUSH1 0x0 DUP2 MLOAD SWAP1 POP SWAP2 SWAP1 POP JUMP JUMPDEST PUSH1 0x0 DUP3 DUP3 MSTORE PUSH1 0x20 DUP3 ADD SWAP1 POP SWAP3 SWAP2 POP POP JUMP JUMPDEST PUSH1 0x0 JUMPDEST DUP4 DUP2 LT ISZERO PUSH2 0x2E8B JUMPI DUP1 DUP3 ADD MLOAD DUP2 DUP5 ADD MSTORE PUSH1 0x20 DUP2 ADD SWAP1 POP PUSH2 0x2E70 JUMP JUMPDEST PUSH1 0x0 DUP5 DUP5 ADD MSTORE POP POP POP POP JUMP JUMPDEST PUSH1 0x0 PUSH1 0x1F NOT PUSH1 0x1F DUP4 ADD AND SWAP1 POP SWAP2 SWAP1 POP JUMP JUMPDEST PUSH1 0x0 PUSH2 0x2EB3 DUP3 PUSH2 0x2E51 JUMP JUMPDEST PUSH2 0x2EBD DUP2 DUP6 PUSH2 0x2E5C JUMP JUMPDEST SWAP4 POP PUSH2 0x2ECD DUP2 DUP6 PUSH1 0x20 DUP7 ADD PUSH2 0x2E6D JUMP JUMPDEST PUSH2 0x2ED6 DUP2 PUSH2 0x2E97 JUMP JUMPDEST DUP5 ADD SWAP2 POP POP SWAP3 SWAP2 POP POP JUMP JUMPDEST PUSH32 0x4E487B7100000000000000000000000000000000000000000000000000000000 PUSH1 0x0 MSTORE PUSH1 0x21 PUSH1 0x4 MSTORE PUSH1 0x24 PUSH1 0x0 REVERT JUMPDEST PUSH1 0x4 DUP2 LT PUSH2 0x2F21 JUMPI PUSH2 0x2F20 PUSH2 0x2EE1 JUMP JUMPDEST JUMPDEST POP JUMP JUMPDEST PUSH1 0x0 DUP2 SWAP1 POP PUSH2 0x2F32 DUP3 PUSH2 0x2F10 JUMP JUMPDEST SWAP2 SWAP1 POP JUMP JUMPDEST PUSH1 0x0 PUSH2 0x2F42 DUP3 PUSH2 0x2F24 JUMP JUMPDEST SWAP1 POP SWAP2 SWAP1 POP JUMP JUMPDEST PUSH2 0x2F52 DUP2 PUSH2 0x2F37 JUMP JUMPDEST DUP3 MSTORE POP POP JUMP JUMPDEST PUSH1 0x0 PUSH1 0xA0 DUP3 ADD SWAP1 POP PUSH2 0x2F6D PUSH1 0x0 DUP4 ADD DUP9 PUSH2 0x2D9A JUMP JUMPDEST PUSH2 0x2F7A PUSH1 0x20 DUP4 ADD DUP8 PUSH2 0x2D9A JUMP JUMPDEST DUP2 DUP2 SUB PUSH1 0x40 DUP4 ADD MSTORE PUSH2 0x2F8C DUP2 DUP7 PUSH2 0x2EA8 JUMP JUMPDEST SWAP1 POP PUSH2 0x2F9B PUSH1 0x60 DUP4 ADD DUP6 PUSH2 0x2F49 JUMP JUMPDEST PUSH2 0x2FA8 PUSH1 0x80 DUP4 ADD DUP5 PUSH2 0x2BF0 JUMP JUMPDEST SWAP7 SWAP6 POP POP POP POP POP POP JUMP JUMPDEST PUSH1 0x0 DUP2 MLOAD SWAP1 POP SWAP2 SWAP1 POP JUMP JUMPDEST PUSH1 0x0 DUP3 DUP3 MSTORE PUSH1 0x20 DUP3 ADD SWAP1 POP SWAP3 SWAP2 POP POP JUMP JUMPDEST PUSH1 0x0 PUSH2 0x2FD9 DUP3 PUSH2 0x2FB2 JUMP JUMPDEST PUSH2 0x2FE3 DUP2 DUP6 PUSH2 0x2FBD JUMP JUMPDEST SWAP4 POP PUSH2 0x2FF3 DUP2 DUP6 PUSH1 0x20 DUP7 ADD PUSH2 0x2E6D JUMP JUMPDEST PUSH2 0x2FFC DUP2 PUSH2 0x2E97 JUMP JUMPDEST DUP5 ADD SWAP2 POP POP SWAP3 SWAP2 POP POP JUMP JUMPDEST PUSH1 0x0 PUSH1 0x20 DUP3 ADD SWAP1 POP DUP2 DUP2 SUB PUSH1 0x0 DUP4 ADD MSTORE PUSH2 0x3021 DUP2 DUP5 PUSH2 0x2FCE JUMP JUMPDEST SWAP1 POP SWAP3 SWAP2 POP POP JUMP JUMPDEST PUSH1 0x0 DUP1 REVERT JUMPDEST PUSH1 0x0 DUP1 REVERT JUMPDEST PUSH1 0x0 DUP1 REVERT JUMPDEST PUSH1 0x0 DUP1 DUP4 PUSH1 0x1F DUP5 ADD SLT PUSH2 0x304E JUMPI PUSH2 0x304D PUSH2 0x3029 JUMP JUMPDEST JUMPDEST DUP3 CALLDATALOAD SWAP1 POP PUSH8 0xFFFFFFFFFFFFFFFF DUP2 GT ISZERO PUSH2 0x306B JUMPI PUSH2 0x306A PUSH2 0x302E JUMP JUMPDEST JUMPDEST PUSH1 0x20 DUP4 ADD SWAP2 POP DUP4 PUSH1 0x1 DUP3 MUL DUP4 ADD GT ISZERO PUSH2 0x3087 JUMPI PUSH2 0x3086 PUSH2 0x3033 JUMP JUMPDEST JUMPDEST SWAP3 POP SWAP3 SWAP1 POP JUMP JUMPDEST PUSH1 0x0 DUP1 PUSH1 0x0 PUSH1 0x40 DUP5 DUP7 SUB SLT ISZERO PUSH2 0x30A7 JUMPI PUSH2 0x30A6 PUSH2 0x2C1A JUMP JUMPDEST JUMPDEST PUSH1 0x0 PUSH2 0x30B5 DUP7 DUP3 DUP8 ADD PUSH2 0x2E0F JUMP JUMPDEST SWAP4 POP POP PUSH1 0x20 DUP5 ADD CALLDATALOAD PUSH8 0xFFFFFFFFFFFFFFFF DUP2 GT ISZERO PUSH2 0x30D6 JUMPI PUSH2 0x30D5 PUSH2 0x2C1F JUMP JUMPDEST JUMPDEST PUSH2 0x30E2 DUP7 DUP3 DUP8 ADD PUSH2 0x3038 JUMP JUMPDEST SWAP3 POP SWAP3 POP POP SWAP3 POP SWAP3 POP SWAP3 JUMP JUMPDEST PUSH2 0x30F7 DUP2 PUSH2 0x2BE6 JUMP JUMPDEST DUP2 EQ PUSH2 0x3102 JUMPI PUSH1 0x0 DUP1 REVERT JUMPDEST POP JUMP JUMPDEST PUSH1 0x0 DUP2 CALLDATALOAD SWAP1 POP PUSH2 0x3114 DUP2 PUSH2 0x30EE JUMP JUMPDEST SWAP3 SWAP2 POP POP JUMP JUMPDEST PUSH1 0x0 PUSH1 0x20 DUP3 DUP5 SUB SLT ISZERO PUSH2 0x3130 JUMPI PUSH2 0x312F PUSH2 0x2C1A JUMP JUMPDEST JUMPDEST PUSH1 0x0 PUSH2 0x313E DUP5 DUP3 DUP6 ADD PUSH2 0x3105 JUMP JUMPDEST SWAP2 POP POP SWAP3 SWAP2 POP POP JUMP JUMPDEST PUSH2 0x3150 DUP2 PUSH2 0x2CE9 JUMP JUMPDEST DUP3 MSTORE POP POP JUMP JUMPDEST PUSH1 0x0 PUSH1 0xC0 DUP3 ADD SWAP1 POP PUSH2 0x316B PUSH1 0x0 DUP4 ADD DUP10 PUSH2 0x2D9A JUMP JUMPDEST PUSH2 0x3178 PUSH1 0x20 DUP4 ADD DUP9 PUSH2 0x2DC4 JUMP JUMPDEST PUSH2 0x3185 PUSH1 0x40 DUP4 ADD DUP8 PUSH2 0x2BF0 JUMP JUMPDEST PUSH2 0x3192 PUSH1 0x60 DUP4 ADD DUP7 PUSH2 0x2BF0 JUMP JUMPDEST PUSH2 0x319F PUSH1 0x80 DUP4 ADD DUP6 PUSH2 0x3147 JUMP JUMPDEST PUSH2 0x31AC PUSH1 0xA0 DUP4 ADD DUP5 PUSH2 0x2BF0 JUMP JUMPDEST SWAP8 SWAP7 POP POP POP POP POP POP POP JUMP JUMPDEST PUSH2 0x31C0 DUP2 PUSH2 0x2DEE JUMP JUMPDEST DUP3 MSTORE POP POP JUMP JUMPDEST PUSH1 0x0 PUSH1 0x20 DUP3 ADD SWAP1 POP PUSH2 0x31DB PUSH1 0x0 DUP4 ADD DUP5 PUSH2 0x31B7 JUMP JUMPDEST SWAP3 SWAP2 POP POP JUMP JUMPDEST PUSH1 0x0 PUSH1 0x40 DUP3 ADD SWAP1 POP PUSH2 0x31F6 PUSH1 0x0 DUP4 ADD DUP6 PUSH2 0x2F49 JUMP JUMPDEST PUSH2 0x3203 PUSH1 0x20 DUP4 ADD DUP5 PUSH2 0x31B7 JUMP JUMPDEST SWAP4 SWAP3 POP POP POP JUMP JUMPDEST PUSH2 0x3213 DUP2 PUSH2 0x2CBE JUMP JUMPDEST DUP2 EQ PUSH2 0x321E JUMPI PUSH1 0x0 DUP1 REVERT JUMPDEST POP JUMP JUMPDEST PUSH1 0x0 DUP2 CALLDATALOAD SWAP1 POP PUSH2 0x3230 DUP2 PUSH2 0x320A JUMP JUMPDEST SWAP3 SWAP2 POP POP JUMP JUMPDEST PUSH1 0x0 DUP1 PUSH1 0x0 DUP1 PUSH1 0x80 DUP6 DUP8 SUB SLT ISZERO PUSH2 0x3250 JUMPI PUSH2 0x324F PUSH2 0x2C1A JUMP JUMPDEST JUMPDEST PUSH1 0x0 PUSH2 0x325E DUP8 DUP3 DUP9 ADD PUSH2 0x2C6D JUMP JUMPDEST SWAP5 POP POP PUSH1 0x20 PUSH2 0x326F DUP8 DUP3 DUP9 ADD PUSH2 0x3221 JUMP JUMPDEST SWAP4 POP POP PUSH1 0x40 PUSH2 0x3280 DUP8 DUP3 DUP9 ADD PUSH2 0x3105 JUMP JUMPDEST SWAP3 POP POP PUSH1 0x60 PUSH2 0x3291 DUP8 DUP3 DUP9 ADD PUSH2 0x3105 JUMP JUMPDEST SWAP2 POP POP SWAP3 SWAP6 SWAP2 SWAP5 POP SWAP3 POP JUMP JUMPDEST PUSH32 0x4E487B7100000000000000000000000000000000000000000000000000000000 PUSH1 0x0 MSTORE PUSH1 0x22 PUSH1 0x4 MSTORE PUSH1 0x24 PUSH1 0x0 REVERT JUMPDEST PUSH1 0x0 PUSH1 0x2 DUP3 DIV SWAP1 POP PUSH1 0x1 DUP3 AND DUP1 PUSH2 0x32E4 JUMPI PUSH1 0x7F DUP3 AND SWAP2 POP JUMPDEST PUSH1 0x20 DUP3 LT DUP2 SUB PUSH2 0x32F7 JUMPI PUSH2 0x32F6 PUSH2 0x329D JUMP JUMPDEST JUMPDEST POP SWAP2 SWAP1 POP JUMP JUMPDEST PUSH32 0x53414D3A20666F6C6C6F77657220696E61637469766500000000000000000000 PUSH1 0x0 DUP3 ADD MSTORE POP JUMP JUMPDEST PUSH1 0x0 PUSH2 0x3333 PUSH1 0x16 DUP4 PUSH2 0x2FBD JUMP JUMPDEST SWAP2 POP PUSH2 0x333E DUP3 PUSH2 0x32FD JUMP JUMPDEST PUSH1 0x20 DUP3 ADD SWAP1 POP SWAP2 SWAP1 POP JUMP JUMPDEST PUSH1 0x0 PUSH1 0x20 DUP3 ADD SWAP1 POP DUP2 DUP2 SUB PUSH1 0x0 DUP4 ADD MSTORE PUSH2 0x3362 DUP2 PUSH2 0x3326 JUMP JUMPDEST SWAP1 POP SWAP2 SWAP1 POP JUMP JUMPDEST PUSH32 0x53414D3A207265717565737420616C726561647920696E20666C696768740000 PUSH1 0x0 DUP3 ADD MSTORE POP JUMP JUMPDEST PUSH1 0x0 PUSH2 0x339F PUSH1 0x1E DUP4 PUSH2 0x2FBD JUMP JUMPDEST SWAP2 POP PUSH2 0x33AA DUP3 PUSH2 0x3369 JUMP JUMPDEST PUSH1 0x20 DUP3 ADD SWAP1 POP SWAP2 SWAP1 POP JUMP JUMPDEST PUSH1 0x0 PUSH1 0x20 DUP3 ADD SWAP1 POP DUP2 DUP2 SUB PUSH1 0x0 DUP4 ADD MSTORE PUSH2 0x33CE DUP2 PUSH2 0x3392 JUMP JUMPDEST SWAP1 POP SWAP2 SWAP1 POP JUMP JUMPDEST PUSH1 0x0 DUP2 SWAP1 POP SWAP3 SWAP2 POP POP JUMP JUMPDEST PUSH1 0x0 PUSH2 0x33EB DUP3 PUSH2 0x2FB2 JUMP JUMPDEST PUSH2 0x33F5 DUP2 DUP6 PUSH2 0x33D5 JUMP JUMPDEST SWAP4 POP PUSH2 0x3405 DUP2 DUP6 PUSH1 0x20 DUP7 ADD PUSH2 0x2E6D JUMP JUMPDEST DUP1 DUP5 ADD SWAP2 POP POP SWAP3 SWAP2 POP POP JUMP JUMPDEST PUSH32 0x2F6C61746573742D737761700000000000000000000000000000000000000000 DUP2 MSTORE POP JUMP JUMPDEST PUSH1 0x0 PUSH2 0x3443 DUP3 DUP6 PUSH2 0x33E0 JUMP JUMPDEST SWAP2 POP PUSH2 0x344F DUP3 DUP5 PUSH2 0x33E0 JUMP JUMPDEST SWAP2 POP PUSH2 0x345A DUP3 PUSH2 0x3411 JUMP JUMPDEST PUSH1 0xC DUP3 ADD SWAP2 POP DUP2 SWAP1 POP SWAP4 SWAP3 POP POP POP JUMP JUMPDEST PUSH1 0x0 PUSH1 0x40 DUP3 ADD SWAP1 POP DUP2 DUP2 SUB PUSH1 0x0 DUP4 ADD MSTORE PUSH2 0x3484 DUP2 DUP6 PUSH2 0x2FCE JUMP JUMPDEST SWAP1 POP DUP2 DUP2 SUB PUSH1 0x20 DUP4 ADD MSTORE PUSH2 0x3498 DUP2 DUP5 PUSH2 0x2FCE JUMP JUMPDEST SWAP1 POP SWAP4 SWAP3 POP POP POP JUMP JUMPDEST PUSH1 0x0 PUSH32 0xFFFFFFFF00000000000000000000000000000000000000000000000000000000 DUP3 AND SWAP1 POP SWAP2 SWAP1 POP JUMP JUMPDEST PUSH2 0x34D6 DUP2 PUSH2 0x34A1 JUMP JUMPDEST DUP3 MSTORE POP POP JUMP JUMPDEST PUSH1 0x0 PUSH1 0x80 DUP3 ADD SWAP1 POP PUSH2 0x34F1 PUSH1 0x0 DUP4 ADD DUP8 PUSH2 0x2BF0 JUMP JUMPDEST DUP2 DUP2 SUB PUSH1 0x20 DUP4 ADD MSTORE PUSH2 0x3503 DUP2 DUP7 PUSH2 0x2EA8 JUMP JUMPDEST SWAP1 POP PUSH2 0x3512 PUSH1 0x40 DUP4 ADD DUP6 PUSH2 0x2D9A JUMP JUMPDEST PUSH2 0x351F PUSH1 0x60 DUP4 ADD DUP5 PUSH2 0x34CD JUMP JUMPDEST SWAP6 SWAP5 POP POP POP POP POP JUMP JUMPDEST PUSH1 0x0 DUP2 MLOAD SWAP1 POP PUSH2 0x3537 DUP2 PUSH2 0x2DF8 JUMP JUMPDEST SWAP3 SWAP2 POP POP JUMP JUMPDEST PUSH1 0x0 PUSH1 0x20 DUP3 DUP5 SUB SLT ISZERO PUSH2 0x3553 JUMPI PUSH2 0x3552 PUSH2 0x2C1A JUMP JUMPDEST JUMPDEST PUSH1 0x0 PUSH2 0x3561 DUP5 DUP3 DUP6 ADD PUSH2 0x3528 JUMP JUMPDEST SWAP2 POP POP SWAP3 SWAP2 POP POP JUMP JUMPDEST PUSH32 0x4E487B7100000000000000000000000000000000000000000000000000000000 PUSH1 0x0 MSTORE PUSH1 0x41 PUSH1 0x4 MSTORE PUSH1 0x24 PUSH1 0x0 REVERT JUMPDEST PUSH1 0x0 DUP2 SWAP1 POP DUP2 PUSH1 0x0 MSTORE PUSH1 0x20 PUSH1 0x0 KECCAK256 SWAP1 POP SWAP2 SWAP1 POP JUMP JUMPDEST PUSH1 0x0 PUSH1 0x20 PUSH1 0x1F DUP4 ADD DIV SWAP1 POP SWAP2 SWAP1 POP JUMP JUMPDEST PUSH1 0x0 DUP3 DUP3 SHL SWAP1 POP SWAP3 SWAP2 POP POP JUMP JUMPDEST PUSH1 0x0 PUSH1 0x8 DUP4 MUL PUSH2 0x35FB PUSH32 0xFFFFFFFFFFFFFFFFFFFFFFFFFFFFFFFFFFFFFFFFFFFFFFFFFFFFFFFFFFFFFFFF DUP3 PUSH2 0x35BE JUMP JUMPDEST PUSH2 0x3605 DUP7 DUP4 PUSH2 0x35BE JUMP JUMPDEST SWAP6 POP DUP1 NOT DUP5 AND SWAP4 POP DUP1 DUP7 AND DUP5 OR SWAP3 POP POP POP SWAP4 SWAP3 POP POP POP JUMP JUMPDEST PUSH1 0x0 DUP2 SWAP1 POP SWAP2 SWAP1 POP JUMP JUMPDEST PUSH1 0x0 PUSH2 0x3642 PUSH2 0x363D PUSH2 0x3638 DUP5 PUSH2 0x2BE6 JUMP JUMPDEST PUSH2 0x361D JUMP JUMPDEST PUSH2 0x2BE6 JUMP JUMPDEST SWAP1 POP SWAP2 SWAP1 POP JUMP JUMPDEST PUSH1 0x0 DUP2 SWAP1 POP SWAP2 SWAP1 POP JUMP JUMPDEST PUSH2 0x365C DUP4 PUSH2 0x3627 JUMP JUMPDEST PUSH2 0x3670 PUSH2 0x3668 DUP3 PUSH2 0x3649 JUMP JUMPDEST DUP5 DUP5 SLOAD PUSH2 0x35CB JUMP JUMPDEST DUP3 SSTORE POP POP POP POP JUMP JUMPDEST PUSH1 0x0 SWAP1 JUMP JUMPDEST PUSH2 0x3685 PUSH2 0x3678 JUMP JUMPDEST PUSH2 0x3690 DUP2 DUP5 DUP5 PUSH2 0x3653 JUMP JUMPDEST POP POP POP JUMP JUMPDEST JUMPDEST DUP2 DUP2 LT ISZERO PUSH2 0x36B4 JUMPI PUSH2 0x36A9 PUSH1 0x0 DUP3 PUSH2 0x367D JUMP JUMPDEST PUSH1 0x1 DUP2 ADD SWAP1 POP PUSH2 0x3696 JUMP JUMPDEST POP POP JUMP JUMPDEST PUSH1 0x1F DUP3 GT ISZERO PUSH2 0x36F9 JUMPI PUSH2 0x36CA DUP2 PUSH2 0x3599 JUMP JUMPDEST PUSH2 0x36D3 DUP5 PUSH2 0x35AE JUMP JUMPDEST DUP2 ADD PUSH1 0x20 DUP6 LT ISZERO PUSH2 0x36E2 JUMPI DUP2 SWAP1 POP JUMPDEST PUSH2 0x36F6 PUSH2 0x36EE DUP6 PUSH2 0x35AE JUMP JUMPDEST DUP4 ADD DUP3 PUSH2 0x3695 JUMP JUMPDEST POP POP JUMPDEST POP POP POP JUMP JUMPDEST PUSH1 0x0 DUP3 DUP3 SHR SWAP1 POP SWAP3 SWAP2 POP POP JUMP JUMPDEST PUSH1 0x0 PUSH2 0x371C PUSH1 0x0 NOT DUP5 PUSH1 0x8 MUL PUSH2 0x36FE JUMP JUMPDEST NOT DUP1 DUP4 AND SWAP2 POP POP SWAP3 SWAP2 POP POP JUMP JUMPDEST PUSH1 0x0 PUSH2 0x3735 DUP4 DUP4 PUSH2 0x370B JUMP JUMPDEST SWAP2 POP DUP3 PUSH1 0x2 MUL DUP3 OR SWAP1 POP SWAP3 SWAP2 POP POP JUMP JUMPDEST PUSH2 0x374E DUP3 PUSH2 0x2E51 JUMP JUMPDEST PUSH8 0xFFFFFFFFFFFFFFFF DUP2 GT ISZERO PUSH2 0x3767 JUMPI PUSH2 0x3766 PUSH2 0x356A JUMP JUMPDEST JUMPDEST PUSH2 0x3771 DUP3 SLOAD PUSH2 0x32CC JUMP JUMPDEST PUSH2 0x377C DUP3 DUP3 DUP6 PUSH2 0x36B8 JUMP JUMPDEST PUSH1 0x0 PUSH1 0x20 SWAP1 POP PUSH1 0x1F DUP4 GT PUSH1 0x1 DUP2 EQ PUSH2 0x37AF JUMPI PUSH1 0x0 DUP5 ISZERO PUSH2 0x379D JUMPI DUP3 DUP8 ADD MLOAD SWAP1 POP JUMPDEST PUSH2 0x37A7 DUP6 DUP3 PUSH2 0x3729 JUMP JUMPDEST DUP7 SSTORE POP PUSH2 0x380F JUMP JUMPDEST PUSH1 0x1F NOT DUP5 AND PUSH2 0x37BD DUP7 PUSH2 0x3599 JUMP JUMPDEST PUSH1 0x0 JUMPDEST DUP3 DUP2 LT ISZERO PUSH2 0x37E5 JUMPI DUP5 DUP10 ADD MLOAD DUP3 SSTORE PUSH1 0x1 DUP3 ADD SWAP2 POP PUSH1 0x20 DUP6 ADD SWAP5 POP PUSH1 0x20 DUP2 ADD SWAP1 POP PUSH2 0x37C0 JUMP JUMPDEST DUP7 DUP4 LT ISZERO PUSH2 0x3802 JUMPI DUP5 DUP10 ADD MLOAD PUSH2 0x37FE PUSH1 0x1F DUP10 AND DUP3 PUSH2 0x370B JUMP JUMPDEST DUP4 SSTORE POP JUMPDEST PUSH1 0x1 PUSH1 0x2 DUP9 MUL ADD DUP9 SSTORE POP POP POP JUMPDEST POP POP POP POP POP POP JUMP JUMPDEST PUSH32 0x53414D3A2063616C6C6572206973206E6F74206167656E7420706C6174666F72 PUSH1 0x0 DUP3 ADD MSTORE PUSH32 0x6D00000000000000000000000000000000000000000000000000000000000000 PUSH1 0x20 DUP3 ADD MSTORE POP JUMP JUMPDEST PUSH1 0x0 PUSH2 0x3873 PUSH1 0x21 DUP4 PUSH2 0x2FBD JUMP JUMPDEST SWAP2 POP PUSH2 0x387E DUP3 PUSH2 0x3817 JUMP JUMPDEST PUSH1 0x40 DUP3 ADD SWAP1 POP SWAP2 SWAP1 POP JUMP JUMPDEST PUSH1 0x0 PUSH1 0x20 DUP3 ADD SWAP1 POP DUP2 DUP2 SUB PUSH1 0x0 DUP4 ADD MSTORE PUSH2 0x38A2 DUP2 PUSH2 0x3866 JUMP JUMPDEST SWAP1 POP SWAP2 SWAP1 POP JUMP JUMPDEST PUSH32 0x53414D3A20756E65787065637465642077617463686572206362000000000000 PUSH1 0x0 DUP3 ADD MSTORE POP JUMP JUMPDEST PUSH1 0x0 PUSH2 0x38DF PUSH1 0x1A DUP4 PUSH2 0x2FBD JUMP JUMPDEST SWAP2 POP PUSH2 0x38EA DUP3 PUSH2 0x38A9 JUMP JUMPDEST PUSH1 0x20 DUP3 ADD SWAP1 POP SWAP2 SWAP1 POP JUMP JUMPDEST PUSH1 0x0 PUSH1 0x20 DUP3 ADD SWAP1 POP DUP2 DUP2 SUB PUSH1 0x0 DUP4 ADD MSTORE PUSH2 0x390E DUP2 PUSH2 0x38D2 JUMP JUMPDEST SWAP1 POP SWAP2 SWAP1 POP JUMP JUMPDEST PUSH1 0x0 PUSH2 0x3920 DUP3 PUSH2 0x2C24 JUMP JUMPDEST SWAP1 POP SWAP2 SWAP1 POP JUMP JUMPDEST PUSH2 0x3930 DUP2 PUSH2 0x3915 JUMP JUMPDEST DUP2 EQ PUSH2 0x393B JUMPI PUSH1 0x0 DUP1 REVERT JUMPDEST POP JUMP JUMPDEST PUSH1 0x0 DUP2 CALLDATALOAD SWAP1 POP PUSH2 0x394D DUP2 PUSH2 0x3927 JUMP JUMPDEST SWAP3 SWAP2 POP POP JUMP JUMPDEST PUSH1 0x0 DUP1 PUSH1 0x0 DUP1 PUSH1 0x0 PUSH1 0xA0 DUP7 DUP9 SUB SLT ISZERO PUSH2 0x396F JUMPI PUSH2 0x396E PUSH2 0x2C1A JUMP JUMPDEST JUMPDEST PUSH1 0x0 PUSH2 0x397D DUP9 DUP3 DUP10 ADD PUSH2 0x393E JUMP JUMPDEST SWAP6 POP POP PUSH1 0x20 PUSH2 0x398E DUP9 DUP3 DUP10 ADD PUSH2 0x393E JUMP JUMPDEST SWAP5 POP POP PUSH1 0x40 PUSH2 0x399F DUP9 DUP3 DUP10 ADD PUSH2 0x3105 JUMP JUMPDEST SWAP4 POP POP PUSH1 0x60 PUSH2 0x39B0 DUP9 DUP3 DUP10 ADD PUSH2 0x3105 JUMP JUMPDEST SWAP3 POP POP PUSH1 0x80 PUSH2 0x39C1 DUP9 DUP3 DUP10 ADD PUSH2 0x3105 JUMP JUMPDEST SWAP2 POP POP SWAP3 SWAP6 POP SWAP3 SWAP6 SWAP1 SWAP4 POP JUMP JUMPDEST PUSH1 0x0 PUSH1 0x80 DUP3 ADD SWAP1 POP PUSH2 0x39E3 PUSH1 0x0 DUP4 ADD DUP8 PUSH2 0x2D9A JUMP JUMPDEST PUSH2 0x39F0 PUSH1 0x20 DUP4 ADD DUP7 PUSH2 0x2D9A JUMP JUMPDEST PUSH2 0x39FD PUSH1 0x40 DUP4 ADD DUP6 PUSH2 0x2BF0 JUMP JUMPDEST PUSH2 0x3A0A PUSH1 0x60 DUP4 ADD DUP5 PUSH2 0x2BF0 JUMP JUMPDEST SWAP6 SWAP5 POP POP POP POP POP JUMP JUMPDEST PUSH32 0x4E487B7100000000000000000000000000000000000000000000000000000000 PUSH1 0x0 MSTORE PUSH1 0x11 PUSH1 0x4 MSTORE PUSH1 0x24 PUSH1 0x0 REVERT JUMPDEST PUSH1 0x0 PUSH2 0x3A4D DUP3 PUSH2 0x2BE6 JUMP JUMPDEST SWAP2 POP PUSH2 0x3A58 DUP4 PUSH2 0x2BE6 JUMP JUMPDEST SWAP3 POP DUP3 DUP3 SUB SWAP1 POP DUP2 DUP2 GT ISZERO PUSH2 0x3A70 JUMPI PUSH2 0x3A6F PUSH2 0x3A13 JUMP JUMPDEST JUMPDEST SWAP3 SWAP2 POP POP JUMP JUMPDEST PUSH1 0x0 DUP2 SWAP1 POP SWAP2 SWAP1 POP JUMP JUMPDEST PUSH1 0x0 PUSH2 0x3A9B PUSH2 0x3A96 PUSH2 0x3A91 DUP5 PUSH2 0x3A76 JUMP JUMPDEST PUSH2 0x361D JUMP JUMPDEST PUSH2 0x2CBE JUMP JUMPDEST SWAP1 POP SWAP2 SWAP1 POP JUMP JUMPDEST PUSH2 0x3AAB DUP2 PUSH2 0x3A80 JUMP JUMPDEST DUP3 MSTORE POP POP JUMP JUMPDEST PUSH32 0x7374616C65207369676E616C0000000000000000000000000000000000000000 PUSH1 0x0 DUP3 ADD MSTORE POP JUMP JUMPDEST PUSH1 0x0 PUSH2 0x3AE7 PUSH1 0xC DUP4 PUSH2 0x2FBD JUMP JUMPDEST SWAP2 POP PUSH2 0x3AF2 DUP3 PUSH2 0x3AB1 JUMP JUMPDEST PUSH1 0x20 DUP3 ADD SWAP1 POP SWAP2 SWAP1 POP JUMP JUMPDEST PUSH1 0x0 PUSH1 0x40 DUP3 ADD SWAP1 POP PUSH2 0x3B12 PUSH1 0x0 DUP4 ADD DUP5 PUSH2 0x3AA2 JUMP JUMPDEST DUP2 DUP2 SUB PUSH1 0x20 DUP4 ADD MSTORE PUSH2 0x3B23 DUP2 PUSH2 0x3ADA JUMP JUMPDEST SWAP1 POP SWAP3 SWAP2 POP POP JUMP JUMPDEST PUSH32 0x697272656C6576616E7420706169720000000000000000000000000000000000 PUSH1 0x0 DUP3 ADD MSTORE POP JUMP JUMPDEST PUSH1 0x0 PUSH2 0x3B61 PUSH1 0xF DUP4 PUSH2 0x2FBD JUMP JUMPDEST SWAP2 POP PUSH2 0x3B6C DUP3 PUSH2 0x3B2B JUMP JUMPDEST PUSH1 0x20 DUP3 ADD SWAP1 POP SWAP2 SWAP1 POP JUMP JUMPDEST PUSH1 0x0 PUSH1 0x40 DUP3 ADD SWAP1 POP PUSH2 0x3B8C PUSH1 0x0 DUP4 ADD DUP5 PUSH2 0x3AA2 JUMP JUMPDEST DUP2 DUP2 SUB PUSH1 0x20 DUP4 ADD MSTORE PUSH2 0x3B9D DUP2 PUSH2 0x3B54 JUMP JUMPDEST SWAP1 POP SWAP3 SWAP2 POP POP JUMP JUMPDEST PUSH1 0x0 DUP3 SWAP1 POP SWAP3 SWAP2 POP POP JUMP JUMPDEST PUSH2 0x3BBA DUP4 DUP4 PUSH2 0x3BA5 JUMP JUMPDEST PUSH8 0xFFFFFFFFFFFFFFFF DUP2 GT ISZERO PUSH2 0x3BD3 JUMPI PUSH2 0x3BD2 PUSH2 0x356A JUMP JUMPDEST JUMPDEST PUSH2 0x3BDD DUP3 SLOAD PUSH2 0x32CC JUMP JUMPDEST PUSH2 0x3BE8 DUP3 DUP3 DUP6 PUSH2 0x36B8 JUMP JUMPDEST PUSH1 0x0 PUSH1 0x1F DUP4 GT PUSH1 0x1 DUP2 EQ PUSH2 0x3C17 JUMPI PUSH1 0x0 DUP5 ISZERO PUSH2 0x3C05 JUMPI DUP3 DUP8 ADD CALLDATALOAD SWAP1 POP JUMPDEST PUSH2 0x3C0F DUP6 DUP3 PUSH2 0x3729 JUMP JUMPDEST DUP7 SSTORE POP PUSH2 0x3C77 JUMP JUMPDEST PUSH1 0x1F NOT DUP5 AND PUSH2 0x3C25 DUP7 PUSH2 0x3599 JUMP JUMPDEST PUSH1 0x0 JUMPDEST DUP3 DUP2 LT ISZERO PUSH2 0x3C4D JUMPI DUP5 DUP10 ADD CALLDATALOAD DUP3 SSTORE PUSH1 0x1 DUP3 ADD SWAP2 POP PUSH1 0x20 DUP6 ADD SWAP5 POP PUSH1 0x20 DUP2 ADD SWAP1 POP PUSH2 0x3C28 JUMP JUMPDEST DUP7 DUP4 LT ISZERO PUSH2 0x3C6A JUMPI DUP5 DUP10 ADD CALLDATALOAD PUSH2 0x3C66 PUSH1 0x1F DUP10 AND DUP3 PUSH2 0x370B JUMP JUMPDEST DUP4 SSTORE POP JUMPDEST PUSH1 0x1 PUSH1 0x2 DUP9 MUL ADD DUP9 SSTORE POP POP POP JUMPDEST POP POP POP POP POP POP POP JUMP JUMPDEST PUSH32 0x53414D3A20737461727420666F6C6C6F77696E67206669727374000000000000 PUSH1 0x0 DUP3 ADD MSTORE POP JUMP JUMPDEST PUSH1 0x0 PUSH2 0x3CB6 PUSH1 0x1A DUP4 PUSH2 0x2FBD JUMP JUMPDEST SWAP2 POP PUSH2 0x3CC1 DUP3 PUSH2 0x3C80 JUMP JUMPDEST PUSH1 0x20 DUP3 ADD SWAP1 POP SWAP2 SWAP1 POP JUMP JUMPDEST PUSH1 0x0 PUSH1 0x20 DUP3 ADD SWAP1 POP DUP2 DUP2 SUB PUSH1 0x0 DUP4 ADD MSTORE PUSH2 0x3CE5 DUP2 PUSH2 0x3CA9 JUMP JUMPDEST SWAP1 POP SWAP2 SWAP1 POP JUMP JUMPDEST PUSH1 0x0 PUSH1 0x60 DUP3 ADD SWAP1 POP PUSH2 0x3D01 PUSH1 0x0 DUP4 ADD DUP7 PUSH2 0x2D9A JUMP JUMPDEST PUSH2 0x3D0E PUSH1 0x20 DUP4 ADD DUP6 PUSH2 0x2D9A JUMP JUMPDEST PUSH2 0x3D1B PUSH1 0x40 DUP4 ADD DUP5 PUSH2 0x2BF0 JUMP JUMPDEST SWAP5 SWAP4 POP POP POP POP JUMP JUMPDEST PUSH2 0x3D2C DUP2 PUSH2 0x2CE9 JUMP JUMPDEST DUP2 EQ PUSH2 0x3D37 JUMPI PUSH1 0x0 DUP1 REVERT JUMPDEST POP JUMP JUMPDEST PUSH1 0x0 DUP2 MLOAD SWAP1 POP PUSH2 0x3D49 DUP2 PUSH2 0x3D23 JUMP JUMPDEST SWAP3 SWAP2 POP POP JUMP JUMPDEST PUSH1 0x0 PUSH1 0x20 DUP3 DUP5 SUB SLT ISZERO PUSH2 0x3D65 JUMPI PUSH2 0x3D64 PUSH2 0x2C1A JUMP JUMPDEST JUMPDEST PUSH1 0x0 PUSH2 0x3D73 DUP5 DUP3 DUP6 ADD PUSH2 0x3D3A JUMP JUMPDEST SWAP2 POP POP SWAP3 SWAP2 POP POP JUMP JUMPDEST PUSH32 0x53414D3A206465706F736974206661696C656400000000000000000000000000 PUSH1 0x0 DUP3 ADD MSTORE POP JUMP JUMPDEST PUSH1 0x0 PUSH2 0x3DB2 PUSH1 0x13 DUP4 PUSH2 0x2FBD JUMP JUMPDEST SWAP2 POP PUSH2 0x3DBD DUP3 PUSH2 0x3D7C JUMP JUMPDEST PUSH1 0x20 DUP3 ADD SWAP1 POP SWAP2 SWAP1 POP JUMP JUMPDEST PUSH1 0x0 PUSH1 0x20 DUP3 ADD SWAP1 POP DUP2 DUP2 SUB PUSH1 0x0 DUP4 ADD MSTORE PUSH2 0x3DE1 DUP2 PUSH2 0x3DA5 JUMP JUMPDEST SWAP1 POP SWAP2 SWAP1 POP JUMP JUMPDEST PUSH1 0x0 PUSH2 0x3DF3 DUP3 PUSH2 0x2BE6 JUMP JUMPDEST SWAP2 POP PUSH2 0x3DFE DUP4 PUSH2 0x2BE6 JUMP JUMPDEST SWAP3 POP DUP3 DUP3 ADD SWAP1 POP DUP1 DUP3 GT ISZERO PUSH2 0x3E16 JUMPI PUSH2 0x3E15 PUSH2 0x3A13 JUMP JUMPDEST JUMPDEST SWAP3 SWAP2 POP POP JUMP JUMPDEST PUSH32 0x53414D3A206E6F7420666F6C6C6F77696E670000000000000000000000000000 PUSH1 0x0 DUP3 ADD MSTORE POP JUMP JUMPDEST PUSH1 0x0 PUSH2 0x3E52 PUSH1 0x12 DUP4 PUSH2 0x2FBD JUMP JUMPDEST SWAP2 POP PUSH2 0x3E5D DUP3 PUSH2 0x3E1C JUMP JUMPDEST PUSH1 0x20 DUP3 ADD SWAP1 POP SWAP2 SWAP1 POP JUMP JUMPDEST PUSH1 0x0 PUSH1 0x20 DUP3 ADD SWAP1 POP DUP2 DUP2 SUB PUSH1 0x0 DUP4 ADD MSTORE PUSH2 0x3E81 DUP2 PUSH2 0x3E45 JUMP JUMPDEST SWAP1 POP SWAP2 SWAP1 POP JUMP JUMPDEST PUSH1 0x0 PUSH1 0x40 DUP3 ADD SWAP1 POP PUSH2 0x3E9D PUSH1 0x0 DUP4 ADD DUP6 PUSH2 0x2D9A JUMP JUMPDEST PUSH2 0x3EAA PUSH1 0x20 DUP4 ADD DUP5 PUSH2 0x2BF0 JUMP JUMPDEST SWAP4 SWAP3 POP POP POP JUMP JUMPDEST PUSH32 0x53414D3A207769746864726177206661696C6564000000000000000000000000 PUSH1 0x0 DUP3 ADD MSTORE POP JUMP JUMPDEST PUSH1 0x0 PUSH2 0x3EE7 PUSH1 0x14 DUP4 PUSH2 0x2FBD JUMP JUMPDEST SWAP2 POP PUSH2 0x3EF2 DUP3 PUSH2 0x3EB1 JUMP JUMPDEST PUSH1 0x20 DUP3 ADD SWAP1 POP SWAP2 SWAP1 POP JUMP JUMPDEST PUSH1 0x0 PUSH1 0x20 DUP3 ADD SWAP1 POP DUP2 DUP2 SUB PUSH1 0x0 DUP4 ADD MSTORE PUSH2 0x3F16 DUP2 PUSH2 0x3EDA JUMP JUMPDEST SWAP1 POP SWAP2 SWAP1 POP JUMP JUMPDEST PUSH32 0x53414D3A20756E65787065637465642073747261746567697374206362000000 PUSH1 0x0 DUP3 ADD MSTORE POP JUMP JUMPDEST PUSH1 0x0 PUSH2 0x3F53 PUSH1 0x1D DUP4 PUSH2 0x2FBD JUMP JUMPDEST SWAP2 POP PUSH2 0x3F5E DUP3 PUSH2 0x3F1D JUMP JUMPDEST PUSH1 0x20 DUP3 ADD SWAP1 POP SWAP2 SWAP1 POP JUMP JUMPDEST PUSH1 0x0 PUSH1 0x20 DUP3 ADD SWAP1 POP DUP2 DUP2 SUB PUSH1 0x0 DUP4 ADD MSTORE PUSH2 0x3F82 DUP2 PUSH2 0x3F46 JUMP JUMPDEST SWAP1 POP SWAP2 SWAP1 POP JUMP JUMPDEST PUSH1 0x0 PUSH1 0x20 DUP3 DUP5 SUB SLT ISZERO PUSH2 0x3F9F JUMPI PUSH2 0x3F9E PUSH2 0x2C1A JUMP JUMPDEST JUMPDEST PUSH1 0x0 PUSH2 0x3FAD DUP5 DUP3 DUP6 ADD PUSH2 0x3221 JUMP JUMPDEST SWAP2 POP POP SWAP3 SWAP2 POP POP JUMP JUMPDEST PUSH1 0x0 PUSH1 0x40 DUP3 ADD SWAP1 POP PUSH2 0x3FCB PUSH1 0x0 DUP4 ADD DUP6 PUSH2 0x2DC4 JUMP JUMPDEST PUSH2 0x3FD8 PUSH1 0x20 DUP4 ADD DUP5 PUSH2 0x3147 JUMP JUMPDEST SWAP4 SWAP3 POP POP POP JUMP JUMPDEST PUSH32 0x73636F72652062656C6F77207468726573686F6C640000000000000000000000 PUSH1 0x0 DUP3 ADD MSTORE POP JUMP JUMPDEST PUSH1 0x0 PUSH2 0x4015 PUSH1 0x15 DUP4 PUSH2 0x2FBD JUMP JUMPDEST SWAP2 POP PUSH2 0x4020 DUP3 PUSH2 0x3FDF JUMP JUMPDEST PUSH1 0x20 DUP3 ADD SWAP1 POP SWAP2 SWAP1 POP JUMP JUMPDEST PUSH1 0x0 PUSH1 0x40 DUP3 ADD SWAP1 POP PUSH2 0x4040 PUSH1 0x0 DUP4 ADD DUP5 PUSH2 0x2DC4 JUMP JUMPDEST DUP2 DUP2 SUB PUSH1 0x20 DUP4 ADD MSTORE PUSH2 0x4051 DUP2 PUSH2 0x4008 JUMP JUMPDEST SWAP1 POP SWAP3 SWAP2 POP POP JUMP JUMPDEST PUSH32 0x53414D3A20696E76616C6964206C656164657200000000000000000000000000 PUSH1 0x0 DUP3 ADD MSTORE POP JUMP JUMPDEST PUSH1 0x0 PUSH2 0x408F PUSH1 0x13 DUP4 PUSH2 0x2FBD JUMP JUMPDEST SWAP2 POP PUSH2 0x409A DUP3 PUSH2 0x4059 JUMP JUMPDEST PUSH1 0x20 DUP3 ADD SWAP1 POP SWAP2 SWAP1 POP JUMP JUMPDEST PUSH1 0x0 PUSH1 0x20 DUP3 ADD SWAP1 POP DUP2 DUP2 SUB PUSH1 0x0 DUP4 ADD MSTORE PUSH2 0x40BE DUP2 PUSH2 0x4082 JUMP JUMPDEST SWAP1 POP SWAP2 SWAP1 POP JUMP JUMPDEST PUSH32 0x53414D3A2063616E6E6F7420666F6C6C6F7720796F757273656C660000000000 PUSH1 0x0 DUP3 ADD MSTORE POP JUMP JUMPDEST PUSH1 0x0 PUSH2 0x40FB PUSH1 0x1B DUP4 PUSH2 0x2FBD JUMP JUMPDEST SWAP2 POP PUSH2 0x4106 DUP3 PUSH2 0x40C5 JUMP JUMPDEST PUSH1 0x20 DUP3 ADD SWAP1 POP SWAP2 SWAP1 POP JUMP JUMPDEST PUSH1 0x0 PUSH1 0x20 DUP3 ADD SWAP1 POP DUP2 DUP2 SUB PUSH1 0x0 DUP4 ADD MSTORE PUSH2 0x412A DUP2 PUSH2 0x40EE JUMP JUMPDEST SWAP1 POP SWAP2 SWAP1 POP JUMP JUMPDEST PUSH32 0x53414D3A207269736B20312D3130000000000000000000000000000000000000 PUSH1 0x0 DUP3 ADD MSTORE POP JUMP JUMPDEST PUSH1 0x0 PUSH2 0x4167 PUSH1 0xE DUP4 PUSH2 0x2FBD JUMP JUMPDEST SWAP2 POP PUSH2 0x4172 DUP3 PUSH2 0x4131 JUMP JUMPDEST PUSH1 0x20 DUP3 ADD SWAP1 POP SWAP2 SWAP1 POP JUMP JUMPDEST PUSH1 0x0 PUSH1 0x20 DUP3 ADD SWAP1 POP DUP2 DUP2 SUB PUSH1 0x0 DUP4 ADD MSTORE PUSH2 0x4196 DUP2 PUSH2 0x415A JUMP JUMPDEST SWAP1 POP SWAP2 SWAP1 POP JUMP JUMPDEST PUSH32 0x53414D3A207A65726F20616C6C6F636174696F6E000000000000000000000000 PUSH1 0x0 DUP3 ADD MSTORE POP JUMP JUMPDEST PUSH1 0x0 PUSH2 0x41D3 PUSH1 0x14 DUP4 PUSH2 0x2FBD JUMP JUMPDEST SWAP2 POP PUSH2 0x41DE DUP3 PUSH2 0x419D JUMP JUMPDEST PUSH1 0x20 DUP3 ADD SWAP1 POP SWAP2 SWAP1 POP JUMP JUMPDEST PUSH1 0x0 PUSH1 0x20 DUP3 ADD SWAP1 POP DUP2 DUP2 SUB PUSH1 0x0 DUP4 ADD MSTORE PUSH2 0x4202 DUP2 PUSH2 0x41C6 JUMP JUMPDEST SWAP1 POP SWAP2 SWAP1 POP JUMP JUMPDEST PUSH1 0x0 PUSH1 0x40 DUP3 ADD SWAP1 POP PUSH2 0x421E PUSH1 0x0 DUP4 ADD DUP6 PUSH2 0x2DC4 JUMP JUMPDEST PUSH2 0x422B PUSH1 0x20 DUP4 ADD DUP5 PUSH2 0x2BF0 JUMP JUMPDEST SWAP4 SWAP3 POP POP POP JUMP JUMPDEST PUSH1 0x0 DUP2 PUSH1 0x60 SHL SWAP1 POP SWAP2 SWAP1 POP JUMP JUMPDEST PUSH1 0x0 PUSH2 0x424A DUP3 PUSH2 0x4232 JUMP JUMPDEST SWAP1 POP SWAP2 SWAP1 POP JUMP JUMPDEST PUSH1 0x0 PUSH2 0x425C DUP3 PUSH2 0x423F JUMP JUMPDEST SWAP1 POP SWAP2 SWAP1 POP JUMP JUMPDEST PUSH2 0x4274 PUSH2 0x426F DUP3 PUSH2 0x2C44 JUMP JUMPDEST PUSH2 0x4251 JUMP JUMPDEST DUP3 MSTORE POP POP JUMP JUMPDEST PUSH1 0x0 PUSH2 0x4286 DUP3 DUP5 PUSH2 0x4263 JUMP JUMPDEST PUSH1 0x14 DUP3 ADD SWAP2 POP DUP2 SWAP1 POP SWAP3 SWAP2 POP POP JUMP JUMPDEST PUSH32 0x4E487B7100000000000000000000000000000000000000000000000000000000 PUSH1 0x0 MSTORE PUSH1 0x32 PUSH1 0x4 MSTORE PUSH1 0x24 PUSH1 0x0 REVERT JUMPDEST PUSH1 0x0 PUSH2 0x42CF DUP3 PUSH2 0x2BE6 JUMP JUMPDEST SWAP2 POP PUSH2 0x42DA DUP4 PUSH2 0x2BE6 JUMP JUMPDEST SWAP3 POP DUP3 DUP3 MUL PUSH2 0x42E8 DUP2 PUSH2 0x2BE6 JUMP JUMPDEST SWAP2 POP DUP3 DUP3 DIV DUP5 EQ DUP4 ISZERO OR PUSH2 0x42FF JUMPI PUSH2 0x42FE PUSH2 0x3A13 JUMP JUMPDEST JUMPDEST POP SWAP3 SWAP2 POP POP JUMP JUMPDEST PUSH32 0x4E487B7100000000000000000000000000000000000000000000000000000000 PUSH1 0x0 MSTORE PUSH1 0x12 PUSH1 0x4 MSTORE PUSH1 0x24 PUSH1 0x0 REVERT JUMPDEST PUSH1 0x0 PUSH2 0x4340 DUP3 PUSH2 0x2BE6 JUMP JUMPDEST SWAP2 POP PUSH2 0x434B DUP4 PUSH2 0x2BE6 JUMP JUMPDEST SWAP3 POP DUP3 PUSH2 0x435B JUMPI PUSH2 0x435A PUSH2 0x4306 JUMP JUMPDEST JUMPDEST DUP3 DUP3 DIV SWAP1 POP SWAP3 SWAP2 POP POP JUMP JUMPDEST PUSH32 0x596F7520617265206120636F70792D74726164696E67207269736B20656E6769 PUSH1 0x0 DUP3 ADD MSTORE PUSH32 0x6E652E20526573706F6E642077697468204F4E4C5920612073696E676C652069 PUSH1 0x20 DUP3 ADD MSTORE PUSH32 0x6E746567657220302D3130302E20000000000000000000000000000000000000 PUSH1 0x40 DUP3 ADD MSTORE POP JUMP JUMPDEST PUSH1 0x0 PUSH2 0x43E8 PUSH1 0x4E DUP4 PUSH2 0x33D5 JUMP JUMPDEST SWAP2 POP PUSH2 0x43F3 DUP3 PUSH2 0x4366 JUMP JUMPDEST PUSH1 0x4E DUP3 ADD SWAP1 POP SWAP2 SWAP1 POP JUMP JUMPDEST PUSH32 0x30203D20736B69702C20312D313030203D20636F70792070657263656E746167 PUSH1 0x0 DUP3 ADD MSTORE PUSH32 0x65206F66206D617820616C6C6F636174696F6E2E0A0A00000000000000000000 PUSH1 0x20 DUP3 ADD MSTORE POP JUMP JUMPDEST PUSH1 0x0 PUSH2 0x445A PUSH1 0x36 DUP4 PUSH2 0x33D5 JUMP JUMPDEST SWAP2 POP PUSH2 0x4465 DUP3 PUSH2 0x43FE JUMP JUMPDEST PUSH1 0x36 DUP3 ADD SWAP1 POP SWAP2 SWAP1 POP JUMP JUMPDEST PUSH32 0x4C65616465723A20000000000000000000000000000000000000000000000000 DUP2 MSTORE POP JUMP JUMPDEST PUSH32 0xA00000000000000000000000000000000000000000000000000000000000000 DUP2 MSTORE POP JUMP JUMPDEST PUSH32 0x54726164653A2000000000000000000000000000000000000000000000000000 DUP2 MSTORE POP JUMP JUMPDEST PUSH32 0x2057534F4D490A00000000000000000000000000000000000000000000000000 DUP2 MSTORE POP JUMP JUMPDEST PUSH32 0x416D6F756E74496E3A2000000000000000000000000000000000000000000000 DUP2 MSTORE POP JUMP JUMPDEST PUSH32 0x20555344432028617070726F78290A0000000000000000000000000000000000 DUP2 MSTORE POP JUMP JUMPDEST PUSH32 0x5472616465206167653A20000000000000000000000000000000000000000000 DUP2 MSTORE POP JUMP JUMPDEST PUSH32 0x730A000000000000000000000000000000000000000000000000000000000000 DUP2 MSTORE POP JUMP JUMPDEST PUSH32 0x466F6C6C6F776572207269736B546F6C6572616E63653A200000000000000000 DUP2 MSTORE POP JUMP JUMPDEST PUSH32 0x2F31300A00000000000000000000000000000000000000000000000000000000 DUP2 MSTORE POP JUMP JUMPDEST PUSH32 0x466F6C6C6F776572206D6178416C6C6F636174696F6E3A202400000000000000 DUP2 MSTORE POP JUMP JUMPDEST PUSH32 0x466F6C6C6F77657220555344432062616C616E63653A20240000000000000000 DUP2 MSTORE POP JUMP JUMPDEST PUSH32 0xA0A000000000000000000000000000000000000000000000000000000000000 DUP2 MSTORE POP JUMP JUMPDEST PUSH32 0x52756C65733A207269736B546F6C6572616E636520312D33202D3E3E206D6178 PUSH1 0x0 DUP3 ADD MSTORE PUSH32 0x2034302073636F72652E20000000000000000000000000000000000000000000 PUSH1 0x20 DUP3 ADD MSTORE POP JUMP JUMPDEST PUSH1 0x0 PUSH2 0x46BA PUSH1 0x2B DUP4 PUSH2 0x33D5 JUMP JUMPDEST SWAP2 POP PUSH2 0x46C5 DUP3 PUSH2 0x465E JUMP JUMPDEST PUSH1 0x2B DUP3 ADD SWAP1 POP SWAP2 SWAP1 POP JUMP JUMPDEST PUSH32 0x7269736B546F6C6572616E636520372D3130202D3E3E2063616E207265747572 PUSH1 0x0 DUP3 ADD MSTORE PUSH32 0x6E20757020746F203130302E2000000000000000000000000000000000000000 PUSH1 0x20 DUP3 ADD MSTORE POP JUMP JUMPDEST PUSH1 0x0 PUSH2 0x472C PUSH1 0x2D DUP4 PUSH2 0x33D5 JUMP JUMPDEST SWAP2 POP PUSH2 0x4737 DUP3 PUSH2 0x46D0 JUMP JUMPDEST PUSH1 0x2D DUP3 ADD SWAP1 POP SWAP2 SWAP1 POP JUMP JUMPDEST PUSH32 0x53454C4C207472616465732073686F756C642072657475726E203020756E6C65 PUSH1 0x0 DUP3 ADD MSTORE PUSH32 0x7373207269736B546F6C6572616E63653E3D382E200000000000000000000000 PUSH1 0x20 DUP3 ADD MSTORE POP JUMP JUMPDEST PUSH1 0x0 PUSH2 0x479E PUSH1 0x35 DUP4 PUSH2 0x33D5 JUMP JUMPDEST SWAP2 POP PUSH2 0x47A9 DUP3 PUSH2 0x4742 JUMP JUMPDEST PUSH1 0x35 DUP3 ADD SWAP1 POP SWAP2 SWAP1 POP JUMP JUMPDEST PUSH32 0x526573706F6E64207769746820696E7465676572206F6E6C792E000000000000 DUP2 MSTORE POP JUMP JUMPDEST PUSH1 0x0 PUSH2 0x47E5 DUP3 PUSH2 0x43DB JUMP JUMPDEST SWAP2 POP PUSH2 0x47F0 DUP3 PUSH2 0x444D JUMP JUMPDEST SWAP2 POP PUSH2 0x47FB DUP3 PUSH2 0x4470 JUMP JUMPDEST PUSH1 0x8 DUP3 ADD SWAP2 POP PUSH2 0x480B DUP3 DUP11 PUSH2 0x33E0 JUMP JUMPDEST SWAP2 POP PUSH2 0x4816 DUP3 PUSH2 0x4496 JUMP JUMPDEST PUSH1 0x1 DUP3 ADD SWAP2 POP PUSH2 0x4825 DUP3 PUSH2 0x44BC JUMP JUMPDEST PUSH1 0x7 DUP3 ADD SWAP2 POP PUSH2 0x4835 DUP3 DUP10 PUSH2 0x33E0 JUMP JUMPDEST SWAP2 POP PUSH2 0x4840 DUP3 PUSH2 0x44E2 JUMP JUMPDEST PUSH1 0x7 DUP3 ADD SWAP2 POP PUSH2 0x484F DUP3 PUSH2 0x4508 JUMP JUMPDEST PUSH1 0xA DUP3 ADD SWAP2 POP PUSH2 0x485F DUP3 DUP9 PUSH2 0x33E0 JUMP JUMPDEST SWAP2 POP PUSH2 0x486A DUP3 PUSH2 0x452E JUMP JUMPDEST PUSH1 0xF DUP3 ADD SWAP2 POP PUSH2 0x4879 DUP3 PUSH2 0x4554 JUMP JUMPDEST PUSH1 0xB DUP3 ADD SWAP2 POP PUSH2 0x4889 DUP3 DUP8 PUSH2 0x33E0 JUMP JUMPDEST SWAP2 POP PUSH2 0x4894 DUP3 PUSH2 0x457A JUMP JUMPDEST PUSH1 0x2 DUP3 ADD SWAP2 POP PUSH2 0x48A3 DUP3 PUSH2 0x45A0 JUMP JUMPDEST PUSH1 0x18 DUP3 ADD SWAP2 POP PUSH2 0x48B3 DUP3 DUP7 PUSH2 0x33E0 JUMP JUMPDEST SWAP2 POP PUSH2 0x48BE DUP3 PUSH2 0x45C6 JUMP JUMPDEST PUSH1 0x4 DUP3 ADD SWAP2 POP PUSH2 0x48CD DUP3 PUSH2 0x45EC JUMP JUMPDEST PUSH1 0x19 DUP3 ADD SWAP2 POP PUSH2 0x48DD DUP3 DUP6 PUSH2 0x33E0 JUMP JUMPDEST SWAP2 POP PUSH2 0x48E8 DUP3 PUSH2 0x4496 JUMP JUMPDEST PUSH1 0x1 DUP3 ADD SWAP2 POP PUSH2 0x48F7 DUP3 PUSH2 0x4612 JUMP JUMPDEST PUSH1 0x18 DUP3 ADD SWAP2 POP PUSH2 0x4907 DUP3 DUP5 PUSH2 0x33E0 JUMP JUMPDEST SWAP2 POP PUSH2 0x4912 DUP3 PUSH2 0x4638 JUMP JUMPDEST PUSH1 0x2 DUP3 ADD SWAP2 POP PUSH2 0x4921 DUP3 PUSH2 0x46AD JUMP JUMPDEST SWAP2 POP PUSH2 0x492C DUP3 PUSH2 0x471F JUMP JUMPDEST SWAP2 POP PUSH2 0x4937 DUP3 PUSH2 0x4791 JUMP JUMPDEST SWAP2 POP PUSH2 0x4942 DUP3 PUSH2 0x47B4 JUMP JUMPDEST PUSH1 0x1A DUP3 ADD SWAP2 POP DUP2 SWAP1 POP SWAP9 SWAP8 POP POP POP POP POP POP POP POP JUMP JUMPDEST PUSH32 0x696E73756666696369656E742062616C616E6365000000000000000000000000 PUSH1 0x0 DUP3 ADD MSTORE POP JUMP JUMPDEST PUSH1 0x0 PUSH2 0x498D PUSH1 0x14 DUP4 PUSH2 0x2FBD JUMP JUMPDEST SWAP2 POP PUSH2 0x4998 DUP3 PUSH2 0x4957 JUMP JUMPDEST PUSH1 0x20 DUP3 ADD SWAP1 POP SWAP2 SWAP1 POP JUMP JUMPDEST PUSH1 0x0 PUSH1 0x40 DUP3 ADD SWAP1 POP PUSH2 0x49B8 PUSH1 0x0 DUP4 ADD DUP5 PUSH2 0x2DC4 JUMP JUMPDEST DUP2 DUP2 SUB PUSH1 0x20 DUP4 ADD MSTORE PUSH2 0x49C9 DUP2 PUSH2 0x4980 JUMP JUMPDEST SWAP1 POP SWAP3 SWAP2 POP POP JUMP JUMPDEST PUSH32 0x53414D3A20617070726F7665206661696C656400000000000000000000000000 PUSH1 0x0 DUP3 ADD MSTORE POP JUMP JUMPDEST PUSH1 0x0 PUSH2 0x4A07 PUSH1 0x13 DUP4 PUSH2 0x2FBD JUMP JUMPDEST SWAP2 POP PUSH2 0x4A12 DUP3 PUSH2 0x49D1 JUMP JUMPDEST PUSH1 0x20 DUP3 ADD SWAP1 POP SWAP2 SWAP1 POP JUMP JUMPDEST PUSH1 0x0 PUSH1 0x20 DUP3 ADD SWAP1 POP DUP2 DUP2 SUB PUSH1 0x0 DUP4 ADD MSTORE PUSH2 0x4A36 DUP2 PUSH2 0x49FA JUMP JUMPDEST SWAP1 POP SWAP2 SWAP1 POP JUMP JUMPDEST PUSH2 0x4A46 DUP2 PUSH2 0x2C24 JUMP JUMPDEST DUP3 MSTORE POP POP JUMP JUMPDEST PUSH1 0xE0 DUP3 ADD PUSH1 0x0 DUP3 ADD MLOAD PUSH2 0x4A62 PUSH1 0x0 DUP6 ADD DUP3 PUSH2 0x2CAF JUMP JUMPDEST POP PUSH1 0x20 DUP3 ADD MLOAD PUSH2 0x4A75 PUSH1 0x20 DUP6 ADD DUP3 PUSH2 0x2CAF JUMP JUMPDEST POP PUSH1 0x40 DUP3 ADD MLOAD PUSH2 0x4A88 PUSH1 0x40 DUP6 ADD DUP3 PUSH2 0x2CAF JUMP JUMPDEST POP PUSH1 0x60 DUP3 ADD MLOAD PUSH2 0x4A9B PUSH1 0x60 DUP6 ADD DUP3 PUSH2 0x2CDA JUMP JUMPDEST POP PUSH1 0x80 DUP3 ADD MLOAD PUSH2 0x4AAE PUSH1 0x80 DUP6 ADD DUP3 PUSH2 0x2CDA JUMP JUMPDEST POP PUSH1 0xA0 DUP3 ADD MLOAD PUSH2 0x4AC1 PUSH1 0xA0 DUP6 ADD DUP3 PUSH2 0x2CDA JUMP JUMPDEST POP PUSH1 0xC0 DUP3 ADD MLOAD PUSH2 0x4AD4 PUSH1 0xC0 DUP6 ADD DUP3 PUSH2 0x4A3D JUMP JUMPDEST POP POP POP POP JUMP JUMPDEST PUSH1 0x0 PUSH1 0xE0 DUP3 ADD SWAP1 POP PUSH2 0x4AEF PUSH1 0x0 DUP4 ADD DUP5 PUSH2 0x4A4C JUMP JUMPDEST SWAP3 SWAP2 POP POP JUMP JUMPDEST PUSH1 0x0 DUP2 MLOAD SWAP1 POP PUSH2 0x4B04 DUP2 PUSH2 0x30EE JUMP JUMPDEST SWAP3 SWAP2 POP POP JUMP JUMPDEST PUSH1 0x0 PUSH1 0x20 DUP3 DUP5 SUB SLT ISZERO PUSH2 0x4B20 JUMPI PUSH2 0x4B1F PUSH2 0x2C1A JUMP JUMPDEST JUMPDEST PUSH1 0x0 PUSH2 0x4B2E DUP5 DUP3 DUP6 ADD PUSH2 0x4AF5 JUMP JUMPDEST SWAP2 POP POP SWAP3 SWAP2 POP POP JUMP JUMPDEST PUSH1 0x0 PUSH1 0x60 DUP3 ADD SWAP1 POP PUSH2 0x4B4C PUSH1 0x0 DUP4 ADD DUP7 PUSH2 0x2BF0 JUMP JUMPDEST PUSH2 0x4B59 PUSH1 0x20 DUP4 ADD DUP6 PUSH2 0x2BF0 JUMP JUMPDEST PUSH2 0x4B66 PUSH1 0x40 DUP4 ADD DUP5 PUSH2 0x2DC4 JUMP JUMPDEST SWAP5 SWAP4 POP POP POP POP JUMP JUMPDEST PUSH1 0x0 PUSH2 0x4B79 DUP3 PUSH2 0x2BE6 JUMP JUMPDEST SWAP2 POP PUSH32 0xFFFFFFFFFFFFFFFFFFFFFFFFFFFFFFFFFFFFFFFFFFFFFFFFFFFFFFFFFFFFFFFF DUP3 SUB PUSH2 0x4BAB JUMPI PUSH2 0x4BAA PUSH2 0x3A13 JUMP JUMPDEST JUMPDEST PUSH1 0x1 DUP3 ADD SWAP1 POP SWAP2 SWAP1 POP JUMP JUMPDEST PUSH1 0x0 PUSH2 0x4BC1 DUP3 PUSH2 0x2BE6 JUMP JUMPDEST SWAP2 POP PUSH1 0x0 DUP3 SUB PUSH2 0x4BD4 JUMPI PUSH2 0x4BD3 PUSH2 0x3A13 JUMP JUMPDEST JUMPDEST PUSH1 0x1 DUP3 SUB SWAP1 POP SWAP2 SWAP1 POP JUMP JUMPDEST PUSH1 0x0 PUSH2 0x4BEA DUP3 PUSH2 0x2BE6 JUMP JUMPDEST SWAP2 POP PUSH2 0x4BF5 DUP4 PUSH2 0x2BE6 JUMP JUMPDEST SWAP3 POP DUP3 PUSH2 0x4C05 JUMPI PUSH2 0x4C04 PUSH2 0x4306 JUMP JUMPDEST JUMPDEST DUP3 DUP3 MOD SWAP1 POP SWAP3 SWAP2 POP POP JUMP INVALID PUSH9 0x747470733A2F2F6170 PUSH10 0x2E61696F6E69732E7879 PUSH27 0x2F76312F6C65616465722FA2646970667358221220B6D0E607097A NOT 0xDE NOT AND PUSH9 0xEF26F0AA769B5F4CD5 PUSH16 0x2F856D4A89B6D2FDB6409064736F6C63 NUMBER STOP ADDMOD XOR STOP CALLER "},"methodIdentifiers":{"AGENT_PLATFORM()":"e55ee7eb","AIONIS_API()":"82cb455b","JSON_API_AGENT_ID()":"011f8b1b","LLM_AGENT_ID()":"2e90c1a9","MAX_TRADE_AGE()":"9530b30f","MIN_EXECUTE_SCORE()":"1e13c6c3","QUICKSWAP_ROUTER()":"d0919116","USDCE()":"195187e1","WSOMI()":"d5a53bbb","activeRequest(address)":"c2c77938","checkLeaderActivity(address)":"503ee630","deposit(uint256)":"b6b55f25","getProfile(address)":"0f53a470","getRequestStage(address)":"f4cce57e","onStrategistResponse(bytes32,bytes)":"e9e42596","onWatcherResponse(bytes32,bytes)":"8b50817b","pendingRequests(bytes32)":"2795ad20","profiles(address)":"bbe15627","startFollowing(address,uint8,uint256,uint256)":"fdb1e58b","stopFollowing()":"b765e313"}}}}}